{
  "contractName": "Mint",
  "abi": [
    {
      "anonymous": false,
      "inputs": [
        {
          "indexed": true,
          "internalType": "address",
          "name": "owner",
          "type": "address"
        },
        {
          "indexed": true,
          "internalType": "address",
          "name": "approved",
          "type": "address"
        },
        {
          "indexed": true,
          "internalType": "uint256",
          "name": "tokenId",
          "type": "uint256"
        }
      ],
      "name": "Approval",
      "type": "event"
    },
    {
      "anonymous": false,
      "inputs": [
        {
          "indexed": true,
          "internalType": "address",
          "name": "owner",
          "type": "address"
        },
        {
          "indexed": true,
          "internalType": "address",
          "name": "operator",
          "type": "address"
        },
        {
          "indexed": false,
          "internalType": "bool",
          "name": "approved",
          "type": "bool"
        }
      ],
      "name": "ApprovalForAll",
      "type": "event"
    },
    {
      "anonymous": false,
      "inputs": [
        {
          "indexed": true,
          "internalType": "address",
          "name": "previousOwner",
          "type": "address"
        },
        {
          "indexed": true,
          "internalType": "address",
          "name": "newOwner",
          "type": "address"
        }
      ],
      "name": "OwnershipTransferred",
      "type": "event"
    },
    {
      "anonymous": false,
      "inputs": [
        {
          "indexed": true,
          "internalType": "address",
          "name": "from",
          "type": "address"
        },
        {
          "indexed": true,
          "internalType": "address",
          "name": "to",
          "type": "address"
        },
        {
          "indexed": true,
          "internalType": "uint256",
          "name": "tokenId",
          "type": "uint256"
        }
      ],
      "name": "Transfer",
      "type": "event"
    },
    {
      "inputs": [],
      "name": "FREE_PER_WALLET",
      "outputs": [
        {
          "internalType": "uint256",
          "name": "",
          "type": "uint256"
        }
      ],
      "stateMutability": "view",
      "type": "function"
    },
    {
      "inputs": [],
      "name": "MAX_MINTS_PER_TX",
      "outputs": [
        {
          "internalType": "uint256",
          "name": "",
          "type": "uint256"
        }
      ],
      "stateMutability": "view",
      "type": "function"
    },
    {
      "inputs": [],
      "name": "MAX_PER_WALLET",
      "outputs": [
        {
          "internalType": "uint256",
          "name": "",
          "type": "uint256"
        }
      ],
      "stateMutability": "view",
      "type": "function"
    },
    {
      "inputs": [],
      "name": "MAX_SUPPLY",
      "outputs": [
        {
          "internalType": "uint256",
          "name": "",
          "type": "uint256"
        }
      ],
      "stateMutability": "view",
      "type": "function"
    },
    {
      "inputs": [
        {
          "internalType": "address",
          "name": "to",
          "type": "address"
        },
        {
          "internalType": "uint256",
          "name": "tokenId",
          "type": "uint256"
        }
      ],
      "name": "approve",
      "outputs": [],
      "stateMutability": "nonpayable",
      "type": "function"
    },
    {
      "inputs": [
        {
          "internalType": "address",
          "name": "owner",
          "type": "address"
        }
      ],
      "name": "balanceOf",
      "outputs": [
        {
          "internalType": "uint256",
          "name": "",
          "type": "uint256"
        }
      ],
      "stateMutability": "view",
      "type": "function"
    },
    {
      "inputs": [
        {
          "internalType": "uint256",
          "name": "tokenId",
          "type": "uint256"
        }
      ],
      "name": "getApproved",
      "outputs": [
        {
          "internalType": "address",
          "name": "",
          "type": "address"
        }
      ],
      "stateMutability": "view",
      "type": "function"
    },
    {
      "inputs": [
        {
          "internalType": "address",
          "name": "owner",
          "type": "address"
        },
        {
          "internalType": "address",
          "name": "operator",
          "type": "address"
        }
      ],
      "name": "isApprovedForAll",
      "outputs": [
        {
          "internalType": "bool",
          "name": "",
          "type": "bool"
        }
      ],
      "stateMutability": "view",
      "type": "function"
    },
    {
      "inputs": [],
      "name": "name",
      "outputs": [
        {
          "internalType": "string",
          "name": "",
          "type": "string"
        }
      ],
      "stateMutability": "view",
      "type": "function"
    },
    {
      "inputs": [],
      "name": "owner",
      "outputs": [
        {
          "internalType": "address",
          "name": "",
          "type": "address"
        }
      ],
      "stateMutability": "view",
      "type": "function"
    },
    {
      "inputs": [
        {
          "internalType": "uint256",
          "name": "tokenId",
          "type": "uint256"
        }
      ],
      "name": "ownerOf",
      "outputs": [
        {
          "internalType": "address",
          "name": "",
          "type": "address"
        }
      ],
      "stateMutability": "view",
      "type": "function"
    },
    {
      "inputs": [],
      "name": "renounceOwnership",
      "outputs": [],
      "stateMutability": "nonpayable",
      "type": "function"
    },
    {
      "inputs": [
        {
          "internalType": "address",
          "name": "from",
          "type": "address"
        },
        {
          "internalType": "address",
          "name": "to",
          "type": "address"
        },
        {
          "internalType": "uint256",
          "name": "tokenId",
          "type": "uint256"
        }
      ],
      "name": "safeTransferFrom",
      "outputs": [],
      "stateMutability": "nonpayable",
      "type": "function"
    },
    {
      "inputs": [
        {
          "internalType": "address",
          "name": "from",
          "type": "address"
        },
        {
          "internalType": "address",
          "name": "to",
          "type": "address"
        },
        {
          "internalType": "uint256",
          "name": "tokenId",
          "type": "uint256"
        },
        {
          "internalType": "bytes",
          "name": "_data",
          "type": "bytes"
        }
      ],
      "name": "safeTransferFrom",
      "outputs": [],
      "stateMutability": "nonpayable",
      "type": "function"
    },
    {
      "inputs": [
        {
          "internalType": "address",
          "name": "operator",
          "type": "address"
        },
        {
          "internalType": "bool",
          "name": "approved",
          "type": "bool"
        }
      ],
      "name": "setApprovalForAll",
      "outputs": [],
      "stateMutability": "nonpayable",
      "type": "function"
    },
    {
      "inputs": [
        {
          "internalType": "bytes4",
          "name": "interfaceId",
          "type": "bytes4"
        }
      ],
      "name": "supportsInterface",
      "outputs": [
        {
          "internalType": "bool",
          "name": "",
          "type": "bool"
        }
      ],
      "stateMutability": "view",
      "type": "function"
    },
    {
      "inputs": [],
      "name": "symbol",
      "outputs": [
        {
          "internalType": "string",
          "name": "",
          "type": "string"
        }
      ],
      "stateMutability": "view",
      "type": "function"
    },
    {
      "inputs": [
        {
          "internalType": "address",
          "name": "from",
          "type": "address"
        },
        {
          "internalType": "address",
          "name": "to",
          "type": "address"
        },
        {
          "internalType": "uint256",
          "name": "tokenId",
          "type": "uint256"
        }
      ],
      "name": "transferFrom",
      "outputs": [],
      "stateMutability": "nonpayable",
      "type": "function"
    },
    {
      "inputs": [
        {
          "internalType": "address",
          "name": "newOwner",
          "type": "address"
        }
      ],
      "name": "transferOwnership",
      "outputs": [],
      "stateMutability": "nonpayable",
      "type": "function"
    },
    {
      "inputs": [
        {
          "internalType": "string",
          "name": "newBaseURI",
          "type": "string"
        }
      ],
      "name": "setBaseURI",
      "outputs": [],
      "stateMutability": "nonpayable",
      "type": "function"
    },
    {
      "inputs": [
        {
          "internalType": "uint256",
          "name": "maxMint",
          "type": "uint256"
        }
      ],
      "name": "setMaxMintPerTx",
      "outputs": [],
      "stateMutability": "nonpayable",
      "type": "function"
    },
    {
      "inputs": [
        {
          "internalType": "uint256",
          "name": "price",
          "type": "uint256"
        }
      ],
      "name": "setSalePrice",
      "outputs": [],
      "stateMutability": "nonpayable",
      "type": "function"
    },
    {
      "inputs": [],
      "name": "toggleSaleStatus",
      "outputs": [],
      "stateMutability": "nonpayable",
      "type": "function"
    },
    {
      "inputs": [
        {
          "internalType": "uint256",
          "name": "tokenId",
          "type": "uint256"
        }
      ],
      "name": "mint",
      "outputs": [],
      "stateMutability": "payable",
      "type": "function"
    },
    {
      "inputs": [],
      "name": "withdraw",
      "outputs": [],
      "stateMutability": "nonpayable",
      "type": "function"
    },
    {
      "inputs": [
        {
          "internalType": "uint256",
          "name": "tokenId",
          "type": "uint256"
        }
      ],
      "name": "tokenURI",
      "outputs": [
        {
          "internalType": "string",
          "name": "",
          "type": "string"
        }
      ],
      "stateMutability": "view",
      "type": "function"
    },
    {
      "inputs": [],
      "name": "isSaleActive",
      "outputs": [
        {
          "internalType": "bool",
          "name": "",
          "type": "bool"
        }
      ],
      "stateMutability": "view",
      "type": "function"
    },
    {
      "inputs": [],
      "name": "getSalePrice",
      "outputs": [
        {
          "internalType": "uint256",
          "name": "",
          "type": "uint256"
        }
      ],
      "stateMutability": "view",
      "type": "function"
    }
  ],
  "bytecode": "0x60806040526000600860006101000a81548160ff0219169083151502179055506611c37937e080006009556058600a556122b8600c556002600d556005600e556005600f553480156200005157600080fd5b506040518060400160405280600481526020017f54455354000000000000000000000000000000000000000000000000000000008152506040518060400160405280600481526020017f54455354000000000000000000000000000000000000000000000000000000008152508160009081620000cf919062000452565b508060019081620000e1919062000452565b50505062000104620000f86200010a60201b60201c565b6200011260201b60201c565b62000539565b600033905090565b6000600660009054906101000a900473ffffffffffffffffffffffffffffffffffffffff16905081600660006101000a81548173ffffffffffffffffffffffffffffffffffffffff021916908373ffffffffffffffffffffffffffffffffffffffff1602179055508173ffffffffffffffffffffffffffffffffffffffff168173ffffffffffffffffffffffffffffffffffffffff167f8be0079c531659141344cd1fd0a4f28419497f9722a3daafe3b4186f6b6457e060405160405180910390a35050565b600081519050919050565b7f4e487b7100000000000000000000000000000000000000000000000000000000600052604160045260246000fd5b7f4e487b7100000000000000000000000000000000000000000000000000000000600052602260045260246000fd5b600060028204905060018216806200025a57607f821691505b60208210810362000270576200026f62000212565b5b50919050565b60008190508160005260206000209050919050565b60006020601f8301049050919050565b600082821b905092915050565b600060088302620002da7fffffffffffffffffffffffffffffffffffffffffffffffffffffffffffffffff826200029b565b620002e686836200029b565b95508019841693508086168417925050509392505050565b6000819050919050565b6000819050919050565b6000620003336200032d6200032784620002fe565b62000308565b620002fe565b9050919050565b6000819050919050565b6200034f8362000312565b620003676200035e826200033a565b848454620002a8565b825550505050565b600090565b6200037e6200036f565b6200038b81848462000344565b505050565b5b81811015620003b357620003a760008262000374565b60018101905062000391565b5050565b601f8211156200040257620003cc8162000276565b620003d7846200028b565b81016020851015620003e7578190505b620003ff620003f6856200028b565b83018262000390565b50505b505050565b600082821c905092915050565b6000620004276000198460080262000407565b1980831691505092915050565b600062000442838362000414565b9150826002028217905092915050565b6200045d82620001d8565b67ffffffffffffffff811115620004795762000478620001e3565b5b62000485825462000241565b62000492828285620003b7565b600060209050601f831160018114620004ca5760008415620004b5578287015190505b620004c1858262000434565b86555062000531565b601f198416620004da8662000276565b60005b828110156200050457848901518255600182019150602085019450602081019050620004dd565b8683101562000524578489015162000520601f89168262000414565b8355505b6001600288020188555050505b505050505050565b61374d80620005496000396000f3fe6080604052600436106101b75760003560e01c8063616cdb1e116100ec578063a22cb4651161008a578063c87b56dd11610064578063c87b56dd146105b1578063cd90e5af146105ee578063e985e9c514610619578063f2fde38b14610656576101b7565b8063a22cb46514610534578063b88d4fde1461055d578063c6a91b4214610586576101b7565b8063715018a6116100c6578063715018a6146104ab5780638da5cb5b146104c257806395d89b41146104ed578063a0712d6814610518576101b7565b8063616cdb1e146104085780636352211e1461043157806370a082311461046e576101b7565b806323b872dd116101595780633ccfd60b116101335780633ccfd60b1461037457806342842e0e1461038b57806355f804b3146103b4578063564566a8146103dd576101b7565b806323b872dd146102f55780632fbc0bf11461031e57806332cb6b0c14610349576101b7565b8063081812fc11610195578063081812fc1461023b578063095ea7b3146102785780630f2cdd6c146102a15780631919fed7146102cc576101b7565b806301ffc9a7146101bc578063049c5c49146101f957806306fdde0314610210575b600080fd5b3480156101c857600080fd5b506101e360048036038101906101de9190612180565b61067f565b6040516101f091906121c8565b60405180910390f35b34801561020557600080fd5b5061020e610761565b005b34801561021c57600080fd5b50610225610809565b604051610232919061227c565b60405180910390f35b34801561024757600080fd5b50610262600480360381019061025d91906122d4565b61089b565b60405161026f9190612342565b60405180910390f35b34801561028457600080fd5b5061029f600480360381019061029a9190612389565b610920565b005b3480156102ad57600080fd5b506102b6610a37565b6040516102c391906123d8565b60405180910390f35b3480156102d857600080fd5b506102f360048036038101906102ee91906122d4565b610a3d565b005b34801561030157600080fd5b5061031c600480360381019061031791906123f3565b610ac3565b005b34801561032a57600080fd5b50610333610b23565b60405161034091906123d8565b60405180910390f35b34801561035557600080fd5b5061035e610b2d565b60405161036b91906123d8565b60405180910390f35b34801561038057600080fd5b50610389610b33565b005b34801561039757600080fd5b506103b260048036038101906103ad91906123f3565b610bf8565b005b3480156103c057600080fd5b506103db60048036038101906103d691906124ab565b610c18565b005b3480156103e957600080fd5b506103f2610caa565b6040516103ff91906121c8565b60405180910390f35b34801561041457600080fd5b5061042f600480360381019061042a91906122d4565b610cc1565b005b34801561043d57600080fd5b50610458600480360381019061045391906122d4565b610d47565b6040516104659190612342565b60405180910390f35b34801561047a57600080fd5b50610495600480360381019061049091906124f8565b610df8565b6040516104a291906123d8565b60405180910390f35b3480156104b757600080fd5b506104c0610eaf565b005b3480156104ce57600080fd5b506104d7610f37565b6040516104e49190612342565b60405180910390f35b3480156104f957600080fd5b50610502610f61565b60405161050f919061227c565b60405180910390f35b610532600480360381019061052d91906122d4565b610ff3565b005b34801561054057600080fd5b5061055b60048036038101906105569190612551565b61106e565b005b34801561056957600080fd5b50610584600480360381019061057f91906126c1565b611084565b005b34801561059257600080fd5b5061059b6110e6565b6040516105a891906123d8565b60405180910390f35b3480156105bd57600080fd5b506105d860048036038101906105d391906122d4565b6110ec565b6040516105e5919061227c565b60405180910390f35b3480156105fa57600080fd5b50610603611168565b60405161061091906123d8565b60405180910390f35b34801561062557600080fd5b50610640600480360381019061063b9190612744565b61116e565b60405161064d91906121c8565b60405180910390f35b34801561066257600080fd5b5061067d600480360381019061067891906124f8565b611202565b005b60007f80ac58cd000000000000000000000000000000000000000000000000000000007bffffffffffffffffffffffffffffffffffffffffffffffffffffffff1916827bffffffffffffffffffffffffffffffffffffffffffffffffffffffff1916148061074a57507f5b5e139f000000000000000000000000000000000000000000000000000000007bffffffffffffffffffffffffffffffffffffffffffffffffffffffff1916827bffffffffffffffffffffffffffffffffffffffffffffffffffffffff1916145b8061075a5750610759826112f9565b5b9050919050565b610769611363565b73ffffffffffffffffffffffffffffffffffffffff16610787610f37565b73ffffffffffffffffffffffffffffffffffffffff16146107dd576040517f08c379a00000000000000000000000000000000000000000000000000000000081526004016107d4906127d0565b60405180910390fd5b600860009054906101000a900460ff1615600860006101000a81548160ff021916908315150217905550565b6060600080546108189061281f565b80601f01602080910402602001604051908101604052809291908181526020018280546108449061281f565b80156108915780601f1061086657610100808354040283529160200191610891565b820191906000526020600020905b81548152906001019060200180831161087457829003601f168201915b5050505050905090565b60006108a68261136b565b6108e5576040517f08c379a00000000000000000000000000000000000000000000000000000000081526004016108dc906128c2565b60405180910390fd5b6004600083815260200190815260200160002060009054906101000a900473ffffffffffffffffffffffffffffffffffffffff169050919050565b600061092b82610d47565b90508073ffffffffffffffffffffffffffffffffffffffff168373ffffffffffffffffffffffffffffffffffffffff160361099b576040517f08c379a00000000000000000000000000000000000000000000000000000000081526004016109929061292e565b60405180910390fd5b8073ffffffffffffffffffffffffffffffffffffffff166109ba611363565b73ffffffffffffffffffffffffffffffffffffffff1614806109e957506109e8816109e3611363565b61116e565b5b610a28576040517f08c379a0000000000000000000000000000000000000000000000000000000008152600401610a1f906129c0565b60405180910390fd5b610a3283836113d7565b505050565b600f5481565b610a45611363565b73ffffffffffffffffffffffffffffffffffffffff16610a63610f37565b73ffffffffffffffffffffffffffffffffffffffff1614610ab9576040517f08c379a0000000000000000000000000000000000000000000000000000000008152600401610ab0906127d0565b60405180910390fd5b8060098190555050565b610ad4610ace611363565b82611490565b610b13576040517f08c379a0000000000000000000000000000000000000000000000000000000008152600401610b0a90612a52565b60405180910390fd5b610b1e83838361156e565b505050565b6000600954905090565b600c5481565b610b3b611363565b73ffffffffffffffffffffffffffffffffffffffff16610b59610f37565b73ffffffffffffffffffffffffffffffffffffffff1614610baf576040517f08c379a0000000000000000000000000000000000000000000000000000000008152600401610ba6906127d0565b60405180910390fd5b3373ffffffffffffffffffffffffffffffffffffffff166108fc479081150290604051600060405180830381858888f19350505050158015610bf5573d6000803e3d6000fd5b50565b610c1383838360405180602001604052806000815250611084565b505050565b610c20611363565b73ffffffffffffffffffffffffffffffffffffffff16610c3e610f37565b73ffffffffffffffffffffffffffffffffffffffff1614610c94576040517f08c379a0000000000000000000000000000000000000000000000000000000008152600401610c8b906127d0565b60405180910390fd5b818160079182610ca5929190612c29565b505050565b6000600860009054906101000a900460ff16905090565b610cc9611363565b73ffffffffffffffffffffffffffffffffffffffff16610ce7610f37565b73ffffffffffffffffffffffffffffffffffffffff1614610d3d576040517f08c379a0000000000000000000000000000000000000000000000000000000008152600401610d34906127d0565b60405180910390fd5b80600e8190555050565b6000806002600084815260200190815260200160002060009054906101000a900473ffffffffffffffffffffffffffffffffffffffff169050600073ffffffffffffffffffffffffffffffffffffffff168173ffffffffffffffffffffffffffffffffffffffff1603610def576040517f08c379a0000000000000000000000000000000000000000000000000000000008152600401610de690612d6b565b60405180910390fd5b80915050919050565b60008073ffffffffffffffffffffffffffffffffffffffff168273ffffffffffffffffffffffffffffffffffffffff1603610e68576040517f08c379a0000000000000000000000000000000000000000000000000000000008152600401610e5f90612dfd565b60405180910390fd5b600360008373ffffffffffffffffffffffffffffffffffffffff1673ffffffffffffffffffffffffffffffffffffffff168152602001908152602001600020549050919050565b610eb7611363565b73ffffffffffffffffffffffffffffffffffffffff16610ed5610f37565b73ffffffffffffffffffffffffffffffffffffffff1614610f2b576040517f08c379a0000000000000000000000000000000000000000000000000000000008152600401610f22906127d0565b60405180910390fd5b610f3560006117d4565b565b6000600660009054906101000a900473ffffffffffffffffffffffffffffffffffffffff16905090565b606060018054610f709061281f565b80601f0160208091040260200160405190810160405280929190818152602001828054610f9c9061281f565b8015610fe95780601f10610fbe57610100808354040283529160200191610fe9565b820191906000526020600020905b815481529060010190602001808311610fcc57829003601f168201915b5050505050905090565b3373ffffffffffffffffffffffffffffffffffffffff163273ffffffffffffffffffffffffffffffffffffffff1614611061576040517f08c379a000000000000000000000000000000000000000000000000000000000815260040161105890612e69565b60405180910390fd5b61106b338261189a565b50565b611080611079611363565b83836118b8565b5050565b61109561108f611363565b83611490565b6110d4576040517f08c379a00000000000000000000000000000000000000000000000000000000081526004016110cb90612a52565b60405180910390fd5b6110e084848484611a24565b50505050565b600e5481565b60606110f78261136b565b611136576040517f08c379a000000000000000000000000000000000000000000000000000000000815260040161112d90612ed5565b60405180910390fd5b600761114183611a93565b604051602001611152929190613000565b6040516020818303038152906040529050919050565b600d5481565b6000600560008473ffffffffffffffffffffffffffffffffffffffff1673ffffffffffffffffffffffffffffffffffffffff16815260200190815260200160002060008373ffffffffffffffffffffffffffffffffffffffff1673ffffffffffffffffffffffffffffffffffffffff16815260200190815260200160002060009054906101000a900460ff16905092915050565b61120a611363565b73ffffffffffffffffffffffffffffffffffffffff16611228610f37565b73ffffffffffffffffffffffffffffffffffffffff161461127e576040517f08c379a0000000000000000000000000000000000000000000000000000000008152600401611275906127d0565b60405180910390fd5b600073ffffffffffffffffffffffffffffffffffffffff168173ffffffffffffffffffffffffffffffffffffffff16036112ed576040517f08c379a00000000000000000000000000000000000000000000000000000000081526004016112e4906130a1565b60405180910390fd5b6112f6816117d4565b50565b60007f01ffc9a7000000000000000000000000000000000000000000000000000000007bffffffffffffffffffffffffffffffffffffffffffffffffffffffff1916827bffffffffffffffffffffffffffffffffffffffffffffffffffffffff1916149050919050565b600033905090565b60008073ffffffffffffffffffffffffffffffffffffffff166002600084815260200190815260200160002060009054906101000a900473ffffffffffffffffffffffffffffffffffffffff1673ffffffffffffffffffffffffffffffffffffffff1614159050919050565b816004600083815260200190815260200160002060006101000a81548173ffffffffffffffffffffffffffffffffffffffff021916908373ffffffffffffffffffffffffffffffffffffffff160217905550808273ffffffffffffffffffffffffffffffffffffffff1661144a83610d47565b73ffffffffffffffffffffffffffffffffffffffff167f8c5be1e5ebec7d5bd14f71427d1e84f3dd0314c0f7b2291e5b200ac8c7c3b92560405160405180910390a45050565b600061149b8261136b565b6114da576040517f08c379a00000000000000000000000000000000000000000000000000000000081526004016114d190613133565b60405180910390fd5b60006114e583610d47565b90508073ffffffffffffffffffffffffffffffffffffffff168473ffffffffffffffffffffffffffffffffffffffff1614806115275750611526818561116e565b5b8061156557508373ffffffffffffffffffffffffffffffffffffffff1661154d8461089b565b73ffffffffffffffffffffffffffffffffffffffff16145b91505092915050565b8273ffffffffffffffffffffffffffffffffffffffff1661158e82610d47565b73ffffffffffffffffffffffffffffffffffffffff16146115e4576040517f08c379a00000000000000000000000000000000000000000000000000000000081526004016115db906131c5565b60405180910390fd5b600073ffffffffffffffffffffffffffffffffffffffff168273ffffffffffffffffffffffffffffffffffffffff1603611653576040517f08c379a000000000000000000000000000000000000000000000000000000000815260040161164a90613257565b60405180910390fd5b61165e838383611bf3565b6116696000826113d7565b6001600360008573ffffffffffffffffffffffffffffffffffffffff1673ffffffffffffffffffffffffffffffffffffffff16815260200190815260200160002060008282546116b991906132a6565b925050819055506001600360008473ffffffffffffffffffffffffffffffffffffffff1673ffffffffffffffffffffffffffffffffffffffff168152602001908152602001600020600082825461171091906132da565b92505081905550816002600083815260200190815260200160002060006101000a81548173ffffffffffffffffffffffffffffffffffffffff021916908373ffffffffffffffffffffffffffffffffffffffff160217905550808273ffffffffffffffffffffffffffffffffffffffff168473ffffffffffffffffffffffffffffffffffffffff167fddf252ad1be2c89b69c2b068fc378daa952ba7f163c4a11628f55a4df523b3ef60405160405180910390a46117cf838383611bf8565b505050565b6000600660009054906101000a900473ffffffffffffffffffffffffffffffffffffffff16905081600660006101000a81548173ffffffffffffffffffffffffffffffffffffffff021916908373ffffffffffffffffffffffffffffffffffffffff1602179055508173ffffffffffffffffffffffffffffffffffffffff168173ffffffffffffffffffffffffffffffffffffffff167f8be0079c531659141344cd1fd0a4f28419497f9722a3daafe3b4186f6b6457e060405160405180910390a35050565b6118b4828260405180602001604052806000815250611bfd565b5050565b8173ffffffffffffffffffffffffffffffffffffffff168373ffffffffffffffffffffffffffffffffffffffff1603611926576040517f08c379a000000000000000000000000000000000000000000000000000000000815260040161191d9061337c565b60405180910390fd5b80600560008573ffffffffffffffffffffffffffffffffffffffff1673ffffffffffffffffffffffffffffffffffffffff16815260200190815260200160002060008473ffffffffffffffffffffffffffffffffffffffff1673ffffffffffffffffffffffffffffffffffffffff16815260200190815260200160002060006101000a81548160ff0219169083151502179055508173ffffffffffffffffffffffffffffffffffffffff168373ffffffffffffffffffffffffffffffffffffffff167f17307eab39ab6107e8899845ad3d59bd9653f200f220920489ca2b5937696c3183604051611a1791906121c8565b60405180910390a3505050565b611a2f84848461156e565b611a3b84848484611c6c565b80611a4e5750611a4d84848484611dc2565b5b611a8d576040517f08c379a0000000000000000000000000000000000000000000000000000000008152600401611a8490613434565b60405180910390fd5b50505050565b606060008203611ada576040518060400160405280600181526020017f30000000000000000000000000000000000000000000000000000000000000008152509050611bee565b600082905060005b60008214611b0c578080611af590613454565b915050600a82611b0591906134cb565b9150611ae2565b60008167ffffffffffffffff811115611b2857611b27612596565b5b6040519080825280601f01601f191660200182016040528015611b5a5781602001600182028036833780820191505090505b5090505b60008514611be757600182611b7391906132a6565b9150600a85611b8291906134fc565b6030611b8e91906132da565b60f81b818381518110611ba457611ba361352d565b5b60200101907effffffffffffffffffffffffffffffffffffffffffffffffffffffffffffff1916908160001a905350600a85611be091906134cb565b9450611b5e565b8093505050505b919050565b505050565b505050565b611c078383611f18565b611c146000848484611c6c565b80611c285750611c276000848484611dc2565b5b611c67576040517f08c379a0000000000000000000000000000000000000000000000000000000008152600401611c5e90613434565b60405180910390fd5b505050565b6000611c8d8473ffffffffffffffffffffffffffffffffffffffff166120f1565b15611db5578373ffffffffffffffffffffffffffffffffffffffff16636745782b611cb6611363565b8786866040518563ffffffff1660e01b8152600401611cd894939291906135b1565b6020604051808303816000875af1925050508015611d1457506040513d601f19601f82011682018060405250810190611d119190613612565b60015b611d65573d8060008114611d44576040519150601f19603f3d011682016040523d82523d6000602084013e611d49565b606091505b506000815103611d5d576000915050611dba565b805181602001fd5b636745782b60e01b7bffffffffffffffffffffffffffffffffffffffffffffffffffffffff1916817bffffffffffffffffffffffffffffffffffffffffffffffffffffffff191614915050611dba565b600190505b949350505050565b6000611de38473ffffffffffffffffffffffffffffffffffffffff166120f1565b15611f0b578373ffffffffffffffffffffffffffffffffffffffff1663150b7a02611e0c611363565b8786866040518563ffffffff1660e01b8152600401611e2e94939291906135b1565b6020604051808303816000875af1925050508015611e6a57506040513d601f19601f82011682018060405250810190611e679190613612565b60015b611ebb573d8060008114611e9a576040519150601f19603f3d011682016040523d82523d6000602084013e611e9f565b606091505b506000815103611eb3576000915050611f10565b805181602001fd5b63150b7a0260e01b7bffffffffffffffffffffffffffffffffffffffffffffffffffffffff1916817bffffffffffffffffffffffffffffffffffffffffffffffffffffffff191614915050611f10565b600190505b949350505050565b600073ffffffffffffffffffffffffffffffffffffffff168273ffffffffffffffffffffffffffffffffffffffff1603611f87576040517f08c379a0000000000000000000000000000000000000000000000000000000008152600401611f7e9061368b565b60405180910390fd5b611f908161136b565b15611fd0576040517f08c379a0000000000000000000000000000000000000000000000000000000008152600401611fc7906136f7565b60405180910390fd5b611fdc60008383611bf3565b6001600360008473ffffffffffffffffffffffffffffffffffffffff1673ffffffffffffffffffffffffffffffffffffffff168152602001908152602001600020600082825461202c91906132da565b92505081905550816002600083815260200190815260200160002060006101000a81548173ffffffffffffffffffffffffffffffffffffffff021916908373ffffffffffffffffffffffffffffffffffffffff160217905550808273ffffffffffffffffffffffffffffffffffffffff16600073ffffffffffffffffffffffffffffffffffffffff167fddf252ad1be2c89b69c2b068fc378daa952ba7f163c4a11628f55a4df523b3ef60405160405180910390a46120ed60008383611bf8565b5050565b6000808273ffffffffffffffffffffffffffffffffffffffff163b119050919050565b6000604051905090565b600080fd5b600080fd5b60007fffffffff0000000000000000000000000000000000000000000000000000000082169050919050565b61215d81612128565b811461216857600080fd5b50565b60008135905061217a81612154565b92915050565b6000602082840312156121965761219561211e565b5b60006121a48482850161216b565b91505092915050565b60008115159050919050565b6121c2816121ad565b82525050565b60006020820190506121dd60008301846121b9565b92915050565b600081519050919050565b600082825260208201905092915050565b60005b8381101561221d578082015181840152602081019050612202565b8381111561222c576000848401525b50505050565b6000601f19601f8301169050919050565b600061224e826121e3565b61225881856121ee565b93506122688185602086016121ff565b61227181612232565b840191505092915050565b600060208201905081810360008301526122968184612243565b905092915050565b6000819050919050565b6122b18161229e565b81146122bc57600080fd5b50565b6000813590506122ce816122a8565b92915050565b6000602082840312156122ea576122e961211e565b5b60006122f8848285016122bf565b91505092915050565b600073ffffffffffffffffffffffffffffffffffffffff82169050919050565b600061232c82612301565b9050919050565b61233c81612321565b82525050565b60006020820190506123576000830184612333565b92915050565b61236681612321565b811461237157600080fd5b50565b6000813590506123838161235d565b92915050565b600080604083850312156123a05761239f61211e565b5b60006123ae85828601612374565b92505060206123bf858286016122bf565b9150509250929050565b6123d28161229e565b82525050565b60006020820190506123ed60008301846123c9565b92915050565b60008060006060848603121561240c5761240b61211e565b5b600061241a86828701612374565b935050602061242b86828701612374565b925050604061243c868287016122bf565b9150509250925092565b600080fd5b600080fd5b600080fd5b60008083601f84011261246b5761246a612446565b5b8235905067ffffffffffffffff8111156124885761248761244b565b5b6020830191508360018202830111156124a4576124a3612450565b5b9250929050565b600080602083850312156124c2576124c161211e565b5b600083013567ffffffffffffffff8111156124e0576124df612123565b5b6124ec85828601612455565b92509250509250929050565b60006020828403121561250e5761250d61211e565b5b600061251c84828501612374565b91505092915050565b61252e816121ad565b811461253957600080fd5b50565b60008135905061254b81612525565b92915050565b600080604083850312156125685761256761211e565b5b600061257685828601612374565b92505060206125878582860161253c565b9150509250929050565b600080fd5b7f4e487b7100000000000000000000000000000000000000000000000000000000600052604160045260246000fd5b6125ce82612232565b810181811067ffffffffffffffff821117156125ed576125ec612596565b5b80604052505050565b6000612600612114565b905061260c82826125c5565b919050565b600067ffffffffffffffff82111561262c5761262b612596565b5b61263582612232565b9050602081019050919050565b82818337600083830152505050565b600061266461265f84612611565b6125f6565b9050828152602081018484840111156126805761267f612591565b5b61268b848285612642565b509392505050565b600082601f8301126126a8576126a7612446565b5b81356126b8848260208601612651565b91505092915050565b600080600080608085870312156126db576126da61211e565b5b60006126e987828801612374565b94505060206126fa87828801612374565b935050604061270b878288016122bf565b925050606085013567ffffffffffffffff81111561272c5761272b612123565b5b61273887828801612693565b91505092959194509250565b6000806040838503121561275b5761275a61211e565b5b600061276985828601612374565b925050602061277a85828601612374565b9150509250929050565b7f4f776e61626c653a2063616c6c6572206973206e6f7420746865206f776e6572600082015250565b60006127ba6020836121ee565b91506127c582612784565b602082019050919050565b600060208201905081810360008301526127e9816127ad565b9050919050565b7f4e487b7100000000000000000000000000000000000000000000000000000000600052602260045260246000fd5b6000600282049050600182168061283757607f821691505b60208210810361284a576128496127f0565b5b50919050565b7f4b495031373a20617070726f76656420717565727920666f72206e6f6e65786960008201527f7374656e7420746f6b656e000000000000000000000000000000000000000000602082015250565b60006128ac602b836121ee565b91506128b782612850565b604082019050919050565b600060208201905081810360008301526128db8161289f565b9050919050565b7f4b495031373a20617070726f76616c20746f2063757272656e74206f776e6572600082015250565b60006129186020836121ee565b9150612923826128e2565b602082019050919050565b600060208201905081810360008301526129478161290b565b9050919050565b7f4b495031373a20617070726f76652063616c6c6572206973206e6f74206f776e60008201527f6572206e6f7220617070726f76656420666f7220616c6c000000000000000000602082015250565b60006129aa6037836121ee565b91506129b58261294e565b604082019050919050565b600060208201905081810360008301526129d98161299d565b9050919050565b7f4b495031373a207472616e736665722063616c6c6572206973206e6f74206f7760008201527f6e6572206e6f7220617070726f76656400000000000000000000000000000000602082015250565b6000612a3c6030836121ee565b9150612a47826129e0565b604082019050919050565b60006020820190508181036000830152612a6b81612a2f565b9050919050565b600082905092915050565b60008190508160005260206000209050919050565b60006020601f8301049050919050565b600082821b905092915050565b600060088302612adf7fffffffffffffffffffffffffffffffffffffffffffffffffffffffffffffffff82612aa2565b612ae98683612aa2565b95508019841693508086168417925050509392505050565b6000819050919050565b6000612b26612b21612b1c8461229e565b612b01565b61229e565b9050919050565b6000819050919050565b612b4083612b0b565b612b54612b4c82612b2d565b848454612aaf565b825550505050565b600090565b612b69612b5c565b612b74818484612b37565b505050565b5b81811015612b9857612b8d600082612b61565b600181019050612b7a565b5050565b601f821115612bdd57612bae81612a7d565b612bb784612a92565b81016020851015612bc6578190505b612bda612bd285612a92565b830182612b79565b50505b505050565b600082821c905092915050565b6000612c0060001984600802612be2565b1980831691505092915050565b6000612c198383612bef565b9150826002028217905092915050565b612c338383612a72565b67ffffffffffffffff811115612c4c57612c4b612596565b5b612c56825461281f565b612c61828285612b9c565b6000601f831160018114612c905760008415612c7e578287013590505b612c888582612c0d565b865550612cf0565b601f198416612c9e86612a7d565b60005b82811015612cc657848901358255600182019150602085019450602081019050612ca1565b86831015612ce35784890135612cdf601f891682612bef565b8355505b6001600288020188555050505b50505050505050565b7f4b495031373a206f776e657220717565727920666f72206e6f6e65786973746560008201527f6e7420746f6b656e000000000000000000000000000000000000000000000000602082015250565b6000612d556028836121ee565b9150612d6082612cf9565b604082019050919050565b60006020820190508181036000830152612d8481612d48565b9050919050565b7f4b495031373a2061646472657373207a65726f206973206e6f7420612076616c60008201527f6964206f776e6572000000000000000000000000000000000000000000000000602082015250565b6000612de76028836121ee565b9150612df282612d8b565b604082019050919050565b60006020820190508181036000830152612e1681612dda565b9050919050565b7f5468652063616c6c657220697320616e6f7468657220636f6e74726163740000600082015250565b6000612e53601e836121ee565b9150612e5e82612e1d565b602082019050919050565b60006020820190508181036000830152612e8281612e46565b9050919050565b7f55524920717565727920666f72206e6f6e6578697374656e7420746f6b656e00600082015250565b6000612ebf601f836121ee565b9150612eca82612e89565b602082019050919050565b60006020820190508181036000830152612eee81612eb2565b9050919050565b600081905092915050565b60008154612f0d8161281f565b612f178186612ef5565b94506001821660008114612f325760018114612f4757612f7a565b60ff1983168652811515820286019350612f7a565b612f5085612a7d565b60005b83811015612f7257815481890152600182019150602081019050612f53565b838801955050505b50505092915050565b6000612f8e826121e3565b612f988185612ef5565b9350612fa88185602086016121ff565b80840191505092915050565b7f2e6a736f6e000000000000000000000000000000000000000000000000000000600082015250565b6000612fea600583612ef5565b9150612ff582612fb4565b600582019050919050565b600061300c8285612f00565b91506130188284612f83565b915061302382612fdd565b91508190509392505050565b7f4f776e61626c653a206e6577206f776e657220697320746865207a65726f206160008201527f6464726573730000000000000000000000000000000000000000000000000000602082015250565b600061308b6026836121ee565b91506130968261302f565b604082019050919050565b600060208201905081810360008301526130ba8161307e565b9050919050565b7f4b495031373a206f70657261746f7220717565727920666f72206e6f6e65786960008201527f7374656e7420746f6b656e000000000000000000000000000000000000000000602082015250565b600061311d602b836121ee565b9150613128826130c1565b604082019050919050565b6000602082019050818103600083015261314c81613110565b9050919050565b7f4b495031373a207472616e736665722066726f6d20696e636f7272656374206f60008201527f776e657200000000000000000000000000000000000000000000000000000000602082015250565b60006131af6024836121ee565b91506131ba82613153565b604082019050919050565b600060208201905081810360008301526131de816131a2565b9050919050565b7f4b495031373a207472616e7366657220746f20746865207a65726f206164647260008201527f6573730000000000000000000000000000000000000000000000000000000000602082015250565b60006132416023836121ee565b915061324c826131e5565b604082019050919050565b6000602082019050818103600083015261327081613234565b9050919050565b7f4e487b7100000000000000000000000000000000000000000000000000000000600052601160045260246000fd5b60006132b18261229e565b91506132bc8361229e565b9250828210156132cf576132ce613277565b5b828203905092915050565b60006132e58261229e565b91506132f08361229e565b9250827fffffffffffffffffffffffffffffffffffffffffffffffffffffffffffffffff0382111561332557613324613277565b5b828201905092915050565b7f4b495031373a20617070726f766520746f2063616c6c65720000000000000000600082015250565b60006133666018836121ee565b915061337182613330565b602082019050919050565b6000602082019050818103600083015261339581613359565b9050919050565b7f4b495031373a207472616e7366657220746f206e6f6e20494b4950313752656360008201527f65697665722f49455243373231526563656976657220696d706c656d656e746560208201527f7200000000000000000000000000000000000000000000000000000000000000604082015250565b600061341e6041836121ee565b91506134298261339c565b606082019050919050565b6000602082019050818103600083015261344d81613411565b9050919050565b600061345f8261229e565b91507fffffffffffffffffffffffffffffffffffffffffffffffffffffffffffffffff820361349157613490613277565b5b600182019050919050565b7f4e487b7100000000000000000000000000000000000000000000000000000000600052601260045260246000fd5b60006134d68261229e565b91506134e18361229e565b9250826134f1576134f061349c565b5b828204905092915050565b60006135078261229e565b91506135128361229e565b9250826135225761352161349c565b5b828206905092915050565b7f4e487b7100000000000000000000000000000000000000000000000000000000600052603260045260246000fd5b600081519050919050565b600082825260208201905092915050565b60006135838261355c565b61358d8185613567565b935061359d8185602086016121ff565b6135a681612232565b840191505092915050565b60006080820190506135c66000830187612333565b6135d36020830186612333565b6135e060408301856123c9565b81810360608301526135f28184613578565b905095945050505050565b60008151905061360c81612154565b92915050565b6000602082840312156136285761362761211e565b5b6000613636848285016135fd565b91505092915050565b7f4b495031373a206d696e7420746f20746865207a65726f206164647265737300600082015250565b6000613675601f836121ee565b91506136808261363f565b602082019050919050565b600060208201905081810360008301526136a481613668565b9050919050565b7f4b495031373a20746f6b656e20616c7265616479206d696e7465640000000000600082015250565b60006136e1601b836121ee565b91506136ec826136ab565b602082019050919050565b60006020820190508181036000830152613710816136d4565b905091905056fea26469706673582212206896cdb31e5364bc96d2bfb589337ffb3b0fbb8e1d7ee00ab991ced4d96f3cdf64736f6c634300080f0033",
  "immutableReferences": {},
  "source": "pragma solidity ^0.8.15;\r\n\r\nimport \"@klaytn/contracts/KIP/token/KIP17/KIP17.sol\";\r\nimport \"@klaytn/contracts/KIP/token/KIP17/extensions/KIP17Mintable.sol\";\r\nimport \"@klaytn/contracts/KIP/token/KIP17/extensions/KIP17Burnable.sol\";\r\nimport \"@klaytn/contracts/KIP/token/KIP17/extensions/KIP17Pausable.sol\";\r\nimport \"@klaytn/contracts/KIP/token/KIP17/IKIP17Receiver.sol\";\r\nimport \"@klaytn/contracts/KIP/token/KIP17/IKIP17.sol\";\r\nimport \"@klaytn/contracts/access/Ownable.sol\";\r\n\r\n\r\ncontract Mint is KIP17(\"TEST\", \"TEST\"), Ownable {\r\n    using Address for address payable;\r\n    using Strings for uint256;\r\n\r\n    string private _baseTokenURI;\r\n    bool private _saleStatus = false;\r\n    uint256 private _salePrice = 0.005 ether;\r\n    uint256 private _teamSupply = 88;\r\n    uint256 private _reservedSupply;\r\n\r\n    uint256 public MAX_SUPPLY = 8888;\r\n    uint256 public FREE_PER_WALLET = 2;\r\n    uint256 public MAX_MINTS_PER_TX = 5;\r\n    uint256 public MAX_PER_WALLET = 5;\r\n\r\n        modifier callerIsUser() {\r\n        require(tx.origin == msg.sender, \"The caller is another contract\");\r\n        _;\r\n    }\r\n\r\n    function setBaseURI(string calldata newBaseURI) external onlyOwner {\r\n        _baseTokenURI = newBaseURI;\r\n    }\r\n\r\n    function setMaxMintPerTx(uint256 maxMint) external onlyOwner {\r\n        MAX_MINTS_PER_TX = maxMint;\r\n    }\r\n\r\n    function setSalePrice(uint256 price) external onlyOwner {\r\n        _salePrice = price;\r\n    }\r\n\r\n    function toggleSaleStatus() external onlyOwner {\r\n        _saleStatus = !_saleStatus;\r\n    }\r\n\r\n    function mint(uint256 tokenId) external payable callerIsUser {\r\n        _safeMint(msg.sender, tokenId);\r\n    }\r\n\r\n    function withdraw() external onlyOwner {\r\n        payable(msg.sender).transfer(address(this).balance);\r\n    }\r\n\r\n    function _baseURI() internal view virtual override returns (string memory) {\r\n        return _baseTokenURI;\r\n    }\r\n\r\n    function _startTokenId() internal pure returns (uint256) {\r\n        return 1;\r\n    }\r\n\r\n    function tokenURI(uint256 tokenId) public view virtual override returns (string memory) {\r\n        require(_exists(tokenId), \"URI query for nonexistent token\");\r\n\r\n        return string(abi.encodePacked(_baseTokenURI, tokenId.toString(), \".json\"));\r\n    }\r\n\r\n\r\n    function isSaleActive() public view returns (bool) {\r\n        return _saleStatus;\r\n    }\r\n\r\n    function getSalePrice() public view returns (uint256) {\r\n        return _salePrice;\r\n    }\r\n\r\n\r\n}\r\n",
  "sourcePath": "C:\\Users\\th_kr\\OneDrive\\Documents\\Smart_Contracts\\Klaytn\\Staking\\contracts\\Mint.sol",
  "compiler": {
    "name": "solc",
    "version": "0.8.15+commit.e14f2714.Emscripten.clang"
  },
  "schemaVersion": "3.4.8",
  "updatedAt": "2022-08-14T09:55:11.533Z",
  "networkType": "ethereum",
  "devdoc": {
    "kind": "dev",
    "methods": {
      "approve(address,uint256)": {
        "details": "See {IKIP17-approve}."
      },
      "balanceOf(address)": {
        "details": "See {IKIP17-balanceOf}."
      },
      "getApproved(uint256)": {
        "details": "See {IKIP17-getApproved}."
      },
      "isApprovedForAll(address,address)": {
        "details": "See {IKIP17-isApprovedForAll}."
      },
      "name()": {
        "details": "See {IKIP17Metadata-name}."
      },
      "owner()": {
        "details": "Returns the address of the current owner."
      },
      "ownerOf(uint256)": {
        "details": "See {IKIP17-ownerOf}."
      },
      "renounceOwnership()": {
        "details": "Leaves the contract without owner. It will not be possible to call `onlyOwner` functions anymore. Can only be called by the current owner. NOTE: Renouncing ownership will leave the contract without an owner, thereby removing any functionality that is only available to the owner."
      },
      "safeTransferFrom(address,address,uint256)": {
        "details": "See {IKIP17-safeTransferFrom}."
      },
      "safeTransferFrom(address,address,uint256,bytes)": {
        "details": "See {IKIP17-safeTransferFrom}."
      },
      "setApprovalForAll(address,bool)": {
        "details": "See {IKIP17-setApprovalForAll}."
      },
      "supportsInterface(bytes4)": {
        "details": "See {IKIP13-supportsInterface}."
      },
      "symbol()": {
        "details": "See {IKIP17Metadata-symbol}."
      },
      "tokenURI(uint256)": {
        "details": "See {IKIP17Metadata-tokenURI}."
      },
      "transferFrom(address,address,uint256)": {
        "details": "See {IKIP17-transferFrom}."
      },
      "transferOwnership(address)": {
        "details": "Transfers ownership of the contract to a new account (`newOwner`). Can only be called by the current owner."
      }
    },
    "version": 1
  },
  "userdoc": {
    "kind": "user",
    "methods": {},
    "version": 1
  }
}