{
  "contractName": "N2DRewards",
  "abi": [
    {
      "inputs": [],
      "stateMutability": "nonpayable",
      "type": "constructor"
    },
    {
      "anonymous": false,
      "inputs": [
        {
          "indexed": true,
          "internalType": "address",
          "name": "owner",
          "type": "address"
        },
        {
          "indexed": true,
          "internalType": "address",
          "name": "spender",
          "type": "address"
        },
        {
          "indexed": false,
          "internalType": "uint256",
          "name": "value",
          "type": "uint256"
        }
      ],
      "name": "Approval",
      "type": "event"
    },
    {
      "anonymous": false,
      "inputs": [
        {
          "indexed": true,
          "internalType": "address",
          "name": "previousOwner",
          "type": "address"
        },
        {
          "indexed": true,
          "internalType": "address",
          "name": "newOwner",
          "type": "address"
        }
      ],
      "name": "OwnershipTransferred",
      "type": "event"
    },
    {
      "anonymous": false,
      "inputs": [
        {
          "indexed": true,
          "internalType": "address",
          "name": "from",
          "type": "address"
        },
        {
          "indexed": true,
          "internalType": "address",
          "name": "to",
          "type": "address"
        },
        {
          "indexed": false,
          "internalType": "uint256",
          "name": "value",
          "type": "uint256"
        }
      ],
      "name": "Transfer",
      "type": "event"
    },
    {
      "inputs": [
        {
          "internalType": "address",
          "name": "owner",
          "type": "address"
        },
        {
          "internalType": "address",
          "name": "spender",
          "type": "address"
        }
      ],
      "name": "allowance",
      "outputs": [
        {
          "internalType": "uint256",
          "name": "",
          "type": "uint256"
        }
      ],
      "stateMutability": "view",
      "type": "function"
    },
    {
      "inputs": [
        {
          "internalType": "address",
          "name": "spender",
          "type": "address"
        },
        {
          "internalType": "uint256",
          "name": "amount",
          "type": "uint256"
        }
      ],
      "name": "approve",
      "outputs": [
        {
          "internalType": "bool",
          "name": "",
          "type": "bool"
        }
      ],
      "stateMutability": "nonpayable",
      "type": "function"
    },
    {
      "inputs": [
        {
          "internalType": "address",
          "name": "account",
          "type": "address"
        }
      ],
      "name": "balanceOf",
      "outputs": [
        {
          "internalType": "uint256",
          "name": "",
          "type": "uint256"
        }
      ],
      "stateMutability": "view",
      "type": "function"
    },
    {
      "inputs": [
        {
          "internalType": "uint256",
          "name": "amount",
          "type": "uint256"
        }
      ],
      "name": "burn",
      "outputs": [],
      "stateMutability": "nonpayable",
      "type": "function"
    },
    {
      "inputs": [],
      "name": "decimals",
      "outputs": [
        {
          "internalType": "uint8",
          "name": "",
          "type": "uint8"
        }
      ],
      "stateMutability": "view",
      "type": "function"
    },
    {
      "inputs": [
        {
          "internalType": "address",
          "name": "spender",
          "type": "address"
        },
        {
          "internalType": "uint256",
          "name": "subtractedValue",
          "type": "uint256"
        }
      ],
      "name": "decreaseAllowance",
      "outputs": [
        {
          "internalType": "bool",
          "name": "",
          "type": "bool"
        }
      ],
      "stateMutability": "nonpayable",
      "type": "function"
    },
    {
      "inputs": [
        {
          "internalType": "address",
          "name": "spender",
          "type": "address"
        },
        {
          "internalType": "uint256",
          "name": "addedValue",
          "type": "uint256"
        }
      ],
      "name": "increaseAllowance",
      "outputs": [
        {
          "internalType": "bool",
          "name": "",
          "type": "bool"
        }
      ],
      "stateMutability": "nonpayable",
      "type": "function"
    },
    {
      "inputs": [],
      "name": "name",
      "outputs": [
        {
          "internalType": "string",
          "name": "",
          "type": "string"
        }
      ],
      "stateMutability": "view",
      "type": "function"
    },
    {
      "inputs": [],
      "name": "owner",
      "outputs": [
        {
          "internalType": "address",
          "name": "",
          "type": "address"
        }
      ],
      "stateMutability": "view",
      "type": "function"
    },
    {
      "inputs": [],
      "name": "renounceOwnership",
      "outputs": [],
      "stateMutability": "nonpayable",
      "type": "function"
    },
    {
      "inputs": [
        {
          "internalType": "address",
          "name": "recipient",
          "type": "address"
        },
        {
          "internalType": "uint256",
          "name": "amount",
          "type": "uint256"
        }
      ],
      "name": "safeTransfer",
      "outputs": [],
      "stateMutability": "nonpayable",
      "type": "function"
    },
    {
      "inputs": [
        {
          "internalType": "address",
          "name": "recipient",
          "type": "address"
        },
        {
          "internalType": "uint256",
          "name": "amount",
          "type": "uint256"
        },
        {
          "internalType": "bytes",
          "name": "_data",
          "type": "bytes"
        }
      ],
      "name": "safeTransfer",
      "outputs": [],
      "stateMutability": "nonpayable",
      "type": "function"
    },
    {
      "inputs": [
        {
          "internalType": "address",
          "name": "sender",
          "type": "address"
        },
        {
          "internalType": "address",
          "name": "recipient",
          "type": "address"
        },
        {
          "internalType": "uint256",
          "name": "amount",
          "type": "uint256"
        }
      ],
      "name": "safeTransferFrom",
      "outputs": [],
      "stateMutability": "nonpayable",
      "type": "function"
    },
    {
      "inputs": [
        {
          "internalType": "address",
          "name": "sender",
          "type": "address"
        },
        {
          "internalType": "address",
          "name": "recipient",
          "type": "address"
        },
        {
          "internalType": "uint256",
          "name": "amount",
          "type": "uint256"
        },
        {
          "internalType": "bytes",
          "name": "_data",
          "type": "bytes"
        }
      ],
      "name": "safeTransferFrom",
      "outputs": [],
      "stateMutability": "nonpayable",
      "type": "function"
    },
    {
      "inputs": [
        {
          "internalType": "bytes4",
          "name": "interfaceId",
          "type": "bytes4"
        }
      ],
      "name": "supportsInterface",
      "outputs": [
        {
          "internalType": "bool",
          "name": "",
          "type": "bool"
        }
      ],
      "stateMutability": "view",
      "type": "function"
    },
    {
      "inputs": [],
      "name": "symbol",
      "outputs": [
        {
          "internalType": "string",
          "name": "",
          "type": "string"
        }
      ],
      "stateMutability": "view",
      "type": "function"
    },
    {
      "inputs": [],
      "name": "totalSupply",
      "outputs": [
        {
          "internalType": "uint256",
          "name": "",
          "type": "uint256"
        }
      ],
      "stateMutability": "view",
      "type": "function"
    },
    {
      "inputs": [
        {
          "internalType": "address",
          "name": "to",
          "type": "address"
        },
        {
          "internalType": "uint256",
          "name": "amount",
          "type": "uint256"
        }
      ],
      "name": "transfer",
      "outputs": [
        {
          "internalType": "bool",
          "name": "",
          "type": "bool"
        }
      ],
      "stateMutability": "nonpayable",
      "type": "function"
    },
    {
      "inputs": [
        {
          "internalType": "address",
          "name": "from",
          "type": "address"
        },
        {
          "internalType": "address",
          "name": "to",
          "type": "address"
        },
        {
          "internalType": "uint256",
          "name": "amount",
          "type": "uint256"
        }
      ],
      "name": "transferFrom",
      "outputs": [
        {
          "internalType": "bool",
          "name": "",
          "type": "bool"
        }
      ],
      "stateMutability": "nonpayable",
      "type": "function"
    },
    {
      "inputs": [
        {
          "internalType": "address",
          "name": "newOwner",
          "type": "address"
        }
      ],
      "name": "transferOwnership",
      "outputs": [],
      "stateMutability": "nonpayable",
      "type": "function"
    },
    {
      "inputs": [
        {
          "internalType": "address",
          "name": "to",
          "type": "address"
        },
        {
          "internalType": "uint256",
          "name": "amount",
          "type": "uint256"
        }
      ],
      "name": "mint",
      "outputs": [],
      "stateMutability": "nonpayable",
      "type": "function"
    },
    {
      "inputs": [
        {
          "internalType": "address",
          "name": "account",
          "type": "address"
        },
        {
          "internalType": "uint256",
          "name": "amount",
          "type": "uint256"
        }
      ],
      "name": "burnFrom",
      "outputs": [],
      "stateMutability": "nonpayable",
      "type": "function"
    },
    {
      "inputs": [
        {
          "internalType": "address",
          "name": "controller",
          "type": "address"
        }
      ],
      "name": "addController",
      "outputs": [],
      "stateMutability": "nonpayable",
      "type": "function"
    },
    {
      "inputs": [
        {
          "internalType": "address",
          "name": "controller",
          "type": "address"
        }
      ],
      "name": "removeController",
      "outputs": [],
      "stateMutability": "nonpayable",
      "type": "function"
    }
  ],
  "bytecode": "0x60806040523480156200001157600080fd5b506040518060400160405280600a81526020017f4e324452657761726473000000000000000000000000000000000000000000008152506040518060400160405280600481526020017f4e3244520000000000000000000000000000000000000000000000000000000081525081600390816200008f919062000412565b508060049081620000a1919062000412565b505050620000c4620000b8620000ca60201b60201c565b620000d260201b60201c565b620004f9565b600033905090565b6000600560009054906101000a900473ffffffffffffffffffffffffffffffffffffffff16905081600560006101000a81548173ffffffffffffffffffffffffffffffffffffffff021916908373ffffffffffffffffffffffffffffffffffffffff1602179055508173ffffffffffffffffffffffffffffffffffffffff168173ffffffffffffffffffffffffffffffffffffffff167f8be0079c531659141344cd1fd0a4f28419497f9722a3daafe3b4186f6b6457e060405160405180910390a35050565b600081519050919050565b7f4e487b7100000000000000000000000000000000000000000000000000000000600052604160045260246000fd5b7f4e487b7100000000000000000000000000000000000000000000000000000000600052602260045260246000fd5b600060028204905060018216806200021a57607f821691505b60208210810362000230576200022f620001d2565b5b50919050565b60008190508160005260206000209050919050565b60006020601f8301049050919050565b600082821b905092915050565b6000600883026200029a7fffffffffffffffffffffffffffffffffffffffffffffffffffffffffffffffff826200025b565b620002a686836200025b565b95508019841693508086168417925050509392505050565b6000819050919050565b6000819050919050565b6000620002f3620002ed620002e784620002be565b620002c8565b620002be565b9050919050565b6000819050919050565b6200030f83620002d2565b620003276200031e82620002fa565b84845462000268565b825550505050565b600090565b6200033e6200032f565b6200034b81848462000304565b505050565b5b8181101562000373576200036760008262000334565b60018101905062000351565b5050565b601f821115620003c2576200038c8162000236565b62000397846200024b565b81016020851015620003a7578190505b620003bf620003b6856200024b565b83018262000350565b50505b505050565b600082821c905092915050565b6000620003e760001984600802620003c7565b1980831691505092915050565b6000620004028383620003d4565b9150826002028217905092915050565b6200041d8262000198565b67ffffffffffffffff811115620004395762000438620001a3565b5b62000445825462000201565b6200045282828562000377565b600060209050601f8311600181146200048a576000841562000475578287015190505b620004818582620003f4565b865550620004f1565b601f1984166200049a8662000236565b60005b82811015620004c4578489015182556001820191506020850194506020810190506200049d565b86831015620004e45784890151620004e0601f891682620003d4565b8355505b6001600288020188555050505b505050505050565b6129ab80620005096000396000f3fe608060405234801561001057600080fd5b50600436106101585760003560e01c8063715018a6116100c3578063a9059cbb1161007c578063a9059cbb146103c5578063b88d4fde146103f5578063dd62ed3e14610411578063eb79554914610441578063f2fde38b1461045d578063f6a74ed71461047957610158565b8063715018a61461031757806379cc6790146103215780638da5cb5b1461033d57806395d89b411461035b578063a457c2d714610379578063a7fc7a07146103a957610158565b80633950935111610115578063395093511461024757806340c10f1914610277578063423f6cef1461029357806342842e0e146102af57806342966c68146102cb57806370a08231146102e757610158565b806301ffc9a71461015d57806306fdde031461018d578063095ea7b3146101ab57806318160ddd146101db57806323b872dd146101f9578063313ce56714610229575b600080fd5b61017760048036038101906101729190611a18565b610495565b6040516101849190611a60565b60405180910390f35b61019561050f565b6040516101a29190611b14565b60405180910390f35b6101c560048036038101906101c09190611bca565b6105a1565b6040516101d29190611a60565b60405180910390f35b6101e36105c4565b6040516101f09190611c19565b60405180910390f35b610213600480360381019061020e9190611c34565b6105ce565b6040516102209190611a60565b60405180910390f35b6102316105fd565b60405161023e9190611ca3565b60405180910390f35b610261600480360381019061025c9190611bca565b610606565b60405161026e9190611a60565b60405180910390f35b610291600480360381019061028c9190611bca565b61063d565b005b6102ad60048036038101906102a89190611bca565b6106d7565b005b6102c960048036038101906102c49190611c34565b610703565b005b6102e560048036038101906102e09190611cbe565b61073b565b005b61030160048036038101906102fc9190611ceb565b61074f565b60405161030e9190611c19565b60405180910390f35b61031f610797565b005b61033b60048036038101906103369190611bca565b61081f565b005b61034561088f565b6040516103529190611d27565b60405180910390f35b6103636108b9565b6040516103709190611b14565b60405180910390f35b610393600480360381019061038e9190611bca565b61094b565b6040516103a09190611a60565b60405180910390f35b6103c360048036038101906103be9190611ceb565b6109c2565b005b6103df60048036038101906103da9190611bca565b610a99565b6040516103ec9190611a60565b60405180910390f35b61040f600480360381019061040a9190611e77565b610abc565b005b61042b60048036038101906104269190611efa565b610ae6565b6040516104389190611c19565b60405180910390f35b61045b60048036038101906104569190611f3a565b610b6d565b005b61047760048036038101906104729190611ceb565b610b8b565b005b610493600480360381019061048e9190611ceb565b610c82565b005b60007f3b5a0bf8000000000000000000000000000000000000000000000000000000007bffffffffffffffffffffffffffffffffffffffffffffffffffffffff1916827bffffffffffffffffffffffffffffffffffffffffffffffffffffffff19161480610508575061050782610d59565b5b9050919050565b60606003805461051e90611fd8565b80601f016020809104026020016040519081016040528092919081815260200182805461054a90611fd8565b80156105975780601f1061056c57610100808354040283529160200191610597565b820191906000526020600020905b81548152906001019060200180831161057a57829003601f168201915b5050505050905090565b6000806105ac610e3b565b90506105b9818585610e43565b600191505092915050565b6000600254905090565b6000806105d9610e3b565b90506105e685828561100c565b6105f1858585611098565b60019150509392505050565b60006012905090565b600080610611610e3b565b90506106328185856106238589610ae6565b61062d9190612038565b610e43565b600191505092915050565b600660003373ffffffffffffffffffffffffffffffffffffffff1673ffffffffffffffffffffffffffffffffffffffff16815260200190815260200160002060009054906101000a900460ff166106c9576040517f08c379a00000000000000000000000000000000000000000000000000000000081526004016106c0906120da565b60405180910390fd5b6106d38282611317565b5050565b60006106e1610e3b565b90506106fe81848460405180602001604052806000815250611476565b505050565b600061070d610e3b565b905061071a84828461100c565b61073584848460405180602001604052806000815250611476565b50505050565b61074c610746610e3b565b826114d2565b50565b60008060008373ffffffffffffffffffffffffffffffffffffffff1673ffffffffffffffffffffffffffffffffffffffff168152602001908152602001600020549050919050565b61079f610e3b565b73ffffffffffffffffffffffffffffffffffffffff166107bd61088f565b73ffffffffffffffffffffffffffffffffffffffff1614610813576040517f08c379a000000000000000000000000000000000000000000000000000000000815260040161080a90612146565b60405180910390fd5b61081d60006116a8565b565b600660003373ffffffffffffffffffffffffffffffffffffffff1673ffffffffffffffffffffffffffffffffffffffff16815260200190815260200160002060009054906101000a900460ff16156108805761087b82826114d2565b61088b565b61088a828261176e565b5b5050565b6000600560009054906101000a900473ffffffffffffffffffffffffffffffffffffffff16905090565b6060600480546108c890611fd8565b80601f01602080910402602001604051908101604052809291908181526020018280546108f490611fd8565b80156109415780601f1061091657610100808354040283529160200191610941565b820191906000526020600020905b81548152906001019060200180831161092457829003601f168201915b5050505050905090565b600080610956610e3b565b905060006109648286610ae6565b9050838110156109a9576040517f08c379a00000000000000000000000000000000000000000000000000000000081526004016109a0906121d8565b60405180910390fd5b6109b68286868403610e43565b60019250505092915050565b6109ca610e3b565b73ffffffffffffffffffffffffffffffffffffffff166109e861088f565b73ffffffffffffffffffffffffffffffffffffffff1614610a3e576040517f08c379a0000000000000000000000000000000000000000000000000000000008152600401610a3590612146565b60405180910390fd5b6001600660008373ffffffffffffffffffffffffffffffffffffffff1673ffffffffffffffffffffffffffffffffffffffff16815260200190815260200160002060006101000a81548160ff02191690831515021790555050565b600080610aa4610e3b565b9050610ab1818585611098565b600191505092915050565b6000610ac6610e3b565b9050610ad385828561100c565b610adf85858585611476565b5050505050565b6000600160008473ffffffffffffffffffffffffffffffffffffffff1673ffffffffffffffffffffffffffffffffffffffff16815260200190815260200160002060008373ffffffffffffffffffffffffffffffffffffffff1673ffffffffffffffffffffffffffffffffffffffff16815260200190815260200160002054905092915050565b6000610b77610e3b565b9050610b8581858585611476565b50505050565b610b93610e3b565b73ffffffffffffffffffffffffffffffffffffffff16610bb161088f565b73ffffffffffffffffffffffffffffffffffffffff1614610c07576040517f08c379a0000000000000000000000000000000000000000000000000000000008152600401610bfe90612146565b60405180910390fd5b600073ffffffffffffffffffffffffffffffffffffffff168173ffffffffffffffffffffffffffffffffffffffff1603610c76576040517f08c379a0000000000000000000000000000000000000000000000000000000008152600401610c6d9061226a565b60405180910390fd5b610c7f816116a8565b50565b610c8a610e3b565b73ffffffffffffffffffffffffffffffffffffffff16610ca861088f565b73ffffffffffffffffffffffffffffffffffffffff1614610cfe576040517f08c379a0000000000000000000000000000000000000000000000000000000008152600401610cf590612146565b60405180910390fd5b6000600660008373ffffffffffffffffffffffffffffffffffffffff1673ffffffffffffffffffffffffffffffffffffffff16815260200190815260200160002060006101000a81548160ff02191690831515021790555050565b60007f65787371000000000000000000000000000000000000000000000000000000007bffffffffffffffffffffffffffffffffffffffffffffffffffffffff1916827bffffffffffffffffffffffffffffffffffffffffffffffffffffffff19161480610e2457507fa219a025000000000000000000000000000000000000000000000000000000007bffffffffffffffffffffffffffffffffffffffffffffffffffffffff1916827bffffffffffffffffffffffffffffffffffffffffffffffffffffffff1916145b80610e345750610e338261178e565b5b9050919050565b600033905090565b600073ffffffffffffffffffffffffffffffffffffffff168373ffffffffffffffffffffffffffffffffffffffff1603610eb2576040517f08c379a0000000000000000000000000000000000000000000000000000000008152600401610ea9906122fc565b60405180910390fd5b600073ffffffffffffffffffffffffffffffffffffffff168273ffffffffffffffffffffffffffffffffffffffff1603610f21576040517f08c379a0000000000000000000000000000000000000000000000000000000008152600401610f189061238e565b60405180910390fd5b80600160008573ffffffffffffffffffffffffffffffffffffffff1673ffffffffffffffffffffffffffffffffffffffff16815260200190815260200160002060008473ffffffffffffffffffffffffffffffffffffffff1673ffffffffffffffffffffffffffffffffffffffff168152602001908152602001600020819055508173ffffffffffffffffffffffffffffffffffffffff168373ffffffffffffffffffffffffffffffffffffffff167f8c5be1e5ebec7d5bd14f71427d1e84f3dd0314c0f7b2291e5b200ac8c7c3b92583604051610fff9190611c19565b60405180910390a3505050565b60006110188484610ae6565b90507fffffffffffffffffffffffffffffffffffffffffffffffffffffffffffffffff81146110925781811015611084576040517f08c379a000000000000000000000000000000000000000000000000000000000815260040161107b906123fa565b60405180910390fd5b6110918484848403610e43565b5b50505050565b600073ffffffffffffffffffffffffffffffffffffffff168373ffffffffffffffffffffffffffffffffffffffff1603611107576040517f08c379a00000000000000000000000000000000000000000000000000000000081526004016110fe9061248c565b60405180910390fd5b600073ffffffffffffffffffffffffffffffffffffffff168273ffffffffffffffffffffffffffffffffffffffff1603611176576040517f08c379a000000000000000000000000000000000000000000000000000000000815260040161116d9061251e565b60405180910390fd5b6111818383836117f8565b60008060008573ffffffffffffffffffffffffffffffffffffffff1673ffffffffffffffffffffffffffffffffffffffff16815260200190815260200160002054905081811015611207576040517f08c379a00000000000000000000000000000000000000000000000000000000081526004016111fe906125b0565b60405180910390fd5b8181036000808673ffffffffffffffffffffffffffffffffffffffff1673ffffffffffffffffffffffffffffffffffffffff16815260200190815260200160002081905550816000808573ffffffffffffffffffffffffffffffffffffffff1673ffffffffffffffffffffffffffffffffffffffff168152602001908152602001600020600082825461129a9190612038565b925050819055508273ffffffffffffffffffffffffffffffffffffffff168473ffffffffffffffffffffffffffffffffffffffff167fddf252ad1be2c89b69c2b068fc378daa952ba7f163c4a11628f55a4df523b3ef846040516112fe9190611c19565b60405180910390a36113118484846117fd565b50505050565b600073ffffffffffffffffffffffffffffffffffffffff168273ffffffffffffffffffffffffffffffffffffffff1603611386576040517f08c379a000000000000000000000000000000000000000000000000000000000815260040161137d9061261c565b60405180910390fd5b611392600083836117f8565b80600260008282546113a49190612038565b92505081905550806000808473ffffffffffffffffffffffffffffffffffffffff1673ffffffffffffffffffffffffffffffffffffffff16815260200190815260200160002060008282546113f99190612038565b925050819055508173ffffffffffffffffffffffffffffffffffffffff16600073ffffffffffffffffffffffffffffffffffffffff167fddf252ad1be2c89b69c2b068fc378daa952ba7f163c4a11628f55a4df523b3ef8360405161145e9190611c19565b60405180910390a3611472600083836117fd565b5050565b611481848484611098565b61148d84848484611802565b6114cc576040517f08c379a00000000000000000000000000000000000000000000000000000000081526004016114c3906126ae565b60405180910390fd5b50505050565b600073ffffffffffffffffffffffffffffffffffffffff168273ffffffffffffffffffffffffffffffffffffffff1603611541576040517f08c379a00000000000000000000000000000000000000000000000000000000081526004016115389061271a565b60405180910390fd5b61154d826000836117f8565b60008060008473ffffffffffffffffffffffffffffffffffffffff1673ffffffffffffffffffffffffffffffffffffffff168152602001908152602001600020549050818110156115d3576040517f08c379a00000000000000000000000000000000000000000000000000000000081526004016115ca906127ac565b60405180910390fd5b8181036000808573ffffffffffffffffffffffffffffffffffffffff1673ffffffffffffffffffffffffffffffffffffffff16815260200190815260200160002081905550816002600082825461162a91906127cc565b92505081905550600073ffffffffffffffffffffffffffffffffffffffff168373ffffffffffffffffffffffffffffffffffffffff167fddf252ad1be2c89b69c2b068fc378daa952ba7f163c4a11628f55a4df523b3ef8460405161168f9190611c19565b60405180910390a36116a3836000846117fd565b505050565b6000600560009054906101000a900473ffffffffffffffffffffffffffffffffffffffff16905081600560006101000a81548173ffffffffffffffffffffffffffffffffffffffff021916908373ffffffffffffffffffffffffffffffffffffffff1602179055508173ffffffffffffffffffffffffffffffffffffffff168173ffffffffffffffffffffffffffffffffffffffff167f8be0079c531659141344cd1fd0a4f28419497f9722a3daafe3b4186f6b6457e060405160405180910390a35050565b6117808261177a610e3b565b8361100c565b61178a82826114d2565b5050565b60007f01ffc9a7000000000000000000000000000000000000000000000000000000007bffffffffffffffffffffffffffffffffffffffffffffffffffffffff1916827bffffffffffffffffffffffffffffffffffffffffffffffffffffffff1916149050919050565b505050565b505050565b60006118238473ffffffffffffffffffffffffffffffffffffffff16611989565b1561197c578373ffffffffffffffffffffffffffffffffffffffff16639d188c2261184c610e3b565b8786866040518563ffffffff1660e01b815260040161186e9493929190612855565b6020604051808303816000875af19250505080156118aa57506040513d601f19601f820116820180604052508101906118a791906128b6565b60015b61192c573d80600081146118da576040519150601f19603f3d011682016040523d82523d6000602084013e6118df565b606091505b506000815103611924576040517f08c379a000000000000000000000000000000000000000000000000000000000815260040161191b90612955565b60405180910390fd5b805181602001fd5b639d188c2260e01b7bffffffffffffffffffffffffffffffffffffffffffffffffffffffff1916817bffffffffffffffffffffffffffffffffffffffffffffffffffffffff191614915050611981565b600190505b949350505050565b6000808273ffffffffffffffffffffffffffffffffffffffff163b119050919050565b6000604051905090565b600080fd5b600080fd5b60007fffffffff0000000000000000000000000000000000000000000000000000000082169050919050565b6119f5816119c0565b8114611a0057600080fd5b50565b600081359050611a12816119ec565b92915050565b600060208284031215611a2e57611a2d6119b6565b5b6000611a3c84828501611a03565b91505092915050565b60008115159050919050565b611a5a81611a45565b82525050565b6000602082019050611a756000830184611a51565b92915050565b600081519050919050565b600082825260208201905092915050565b60005b83811015611ab5578082015181840152602081019050611a9a565b83811115611ac4576000848401525b50505050565b6000601f19601f8301169050919050565b6000611ae682611a7b565b611af08185611a86565b9350611b00818560208601611a97565b611b0981611aca565b840191505092915050565b60006020820190508181036000830152611b2e8184611adb565b905092915050565b600073ffffffffffffffffffffffffffffffffffffffff82169050919050565b6000611b6182611b36565b9050919050565b611b7181611b56565b8114611b7c57600080fd5b50565b600081359050611b8e81611b68565b92915050565b6000819050919050565b611ba781611b94565b8114611bb257600080fd5b50565b600081359050611bc481611b9e565b92915050565b60008060408385031215611be157611be06119b6565b5b6000611bef85828601611b7f565b9250506020611c0085828601611bb5565b9150509250929050565b611c1381611b94565b82525050565b6000602082019050611c2e6000830184611c0a565b92915050565b600080600060608486031215611c4d57611c4c6119b6565b5b6000611c5b86828701611b7f565b9350506020611c6c86828701611b7f565b9250506040611c7d86828701611bb5565b9150509250925092565b600060ff82169050919050565b611c9d81611c87565b82525050565b6000602082019050611cb86000830184611c94565b92915050565b600060208284031215611cd457611cd36119b6565b5b6000611ce284828501611bb5565b91505092915050565b600060208284031215611d0157611d006119b6565b5b6000611d0f84828501611b7f565b91505092915050565b611d2181611b56565b82525050565b6000602082019050611d3c6000830184611d18565b92915050565b600080fd5b600080fd5b7f4e487b7100000000000000000000000000000000000000000000000000000000600052604160045260246000fd5b611d8482611aca565b810181811067ffffffffffffffff82111715611da357611da2611d4c565b5b80604052505050565b6000611db66119ac565b9050611dc28282611d7b565b919050565b600067ffffffffffffffff821115611de257611de1611d4c565b5b611deb82611aca565b9050602081019050919050565b82818337600083830152505050565b6000611e1a611e1584611dc7565b611dac565b905082815260208101848484011115611e3657611e35611d47565b5b611e41848285611df8565b509392505050565b600082601f830112611e5e57611e5d611d42565b5b8135611e6e848260208601611e07565b91505092915050565b60008060008060808587031215611e9157611e906119b6565b5b6000611e9f87828801611b7f565b9450506020611eb087828801611b7f565b9350506040611ec187828801611bb5565b925050606085013567ffffffffffffffff811115611ee257611ee16119bb565b5b611eee87828801611e49565b91505092959194509250565b60008060408385031215611f1157611f106119b6565b5b6000611f1f85828601611b7f565b9250506020611f3085828601611b7f565b9150509250929050565b600080600060608486031215611f5357611f526119b6565b5b6000611f6186828701611b7f565b9350506020611f7286828701611bb5565b925050604084013567ffffffffffffffff811115611f9357611f926119bb565b5b611f9f86828701611e49565b9150509250925092565b7f4e487b7100000000000000000000000000000000000000000000000000000000600052602260045260246000fd5b60006002820490506001821680611ff057607f821691505b60208210810361200357612002611fa9565b5b50919050565b7f4e487b7100000000000000000000000000000000000000000000000000000000600052601160045260246000fd5b600061204382611b94565b915061204e83611b94565b9250827fffffffffffffffffffffffffffffffffffffffffffffffffffffffffffffffff0382111561208357612082612009565b5b828201905092915050565b7f4f6e6c7920636f6e74726f6c6c6572732063616e206d696e7400000000000000600082015250565b60006120c4601983611a86565b91506120cf8261208e565b602082019050919050565b600060208201905081810360008301526120f3816120b7565b9050919050565b7f4f776e61626c653a2063616c6c6572206973206e6f7420746865206f776e6572600082015250565b6000612130602083611a86565b915061213b826120fa565b602082019050919050565b6000602082019050818103600083015261215f81612123565b9050919050565b7f4b4950373a2064656372656173656420616c6c6f77616e63652062656c6f772060008201527f7a65726f00000000000000000000000000000000000000000000000000000000602082015250565b60006121c2602483611a86565b91506121cd82612166565b604082019050919050565b600060208201905081810360008301526121f1816121b5565b9050919050565b7f4f776e61626c653a206e6577206f776e657220697320746865207a65726f206160008201527f6464726573730000000000000000000000000000000000000000000000000000602082015250565b6000612254602683611a86565b915061225f826121f8565b604082019050919050565b6000602082019050818103600083015261228381612247565b9050919050565b7f4b4950373a20617070726f76652066726f6d20746865207a65726f206164647260008201527f6573730000000000000000000000000000000000000000000000000000000000602082015250565b60006122e6602383611a86565b91506122f18261228a565b604082019050919050565b60006020820190508181036000830152612315816122d9565b9050919050565b7f4b4950373a20617070726f766520746f20746865207a65726f2061646472657360008201527f7300000000000000000000000000000000000000000000000000000000000000602082015250565b6000612378602183611a86565b91506123838261231c565b604082019050919050565b600060208201905081810360008301526123a78161236b565b9050919050565b7f4b4950373a20696e73756666696369656e7420616c6c6f77616e636500000000600082015250565b60006123e4601c83611a86565b91506123ef826123ae565b602082019050919050565b60006020820190508181036000830152612413816123d7565b9050919050565b7f4b4950373a207472616e736665722066726f6d20746865207a65726f2061646460008201527f7265737300000000000000000000000000000000000000000000000000000000602082015250565b6000612476602483611a86565b91506124818261241a565b604082019050919050565b600060208201905081810360008301526124a581612469565b9050919050565b7f4b4950373a207472616e7366657220746f20746865207a65726f20616464726560008201527f7373000000000000000000000000000000000000000000000000000000000000602082015250565b6000612508602283611a86565b9150612513826124ac565b604082019050919050565b60006020820190508181036000830152612537816124fb565b9050919050565b7f4b4950373a207472616e7366657220616d6f756e74206578636565647320626160008201527f6c616e6365000000000000000000000000000000000000000000000000000000602082015250565b600061259a602583611a86565b91506125a58261253e565b604082019050919050565b600060208201905081810360008301526125c98161258d565b9050919050565b7f4b4950373a206d696e7420746f20746865207a65726f20616464726573730000600082015250565b6000612606601e83611a86565b9150612611826125d0565b602082019050919050565b60006020820190508181036000830152612635816125f9565b9050919050565b7f4b4950373a207472616e7366657220746f206e6f6e20494b495037526563656960008201527f76657220696d706c656d656e7465720000000000000000000000000000000000602082015250565b6000612698602f83611a86565b91506126a38261263c565b604082019050919050565b600060208201905081810360008301526126c78161268b565b9050919050565b7f4b4950373a206275726e2066726f6d20746865207a65726f2061646472657373600082015250565b6000612704602083611a86565b915061270f826126ce565b602082019050919050565b60006020820190508181036000830152612733816126f7565b9050919050565b7f4b4950373a206275726e20616d6f756e7420657863656564732062616c616e6360008201527f6500000000000000000000000000000000000000000000000000000000000000602082015250565b6000612796602183611a86565b91506127a18261273a565b604082019050919050565b600060208201905081810360008301526127c581612789565b9050919050565b60006127d782611b94565b91506127e283611b94565b9250828210156127f5576127f4612009565b5b828203905092915050565b600081519050919050565b600082825260208201905092915050565b600061282782612800565b612831818561280b565b9350612841818560208601611a97565b61284a81611aca565b840191505092915050565b600060808201905061286a6000830187611d18565b6128776020830186611d18565b6128846040830185611c0a565b8181036060830152612896818461281c565b905095945050505050565b6000815190506128b0816119ec565b92915050565b6000602082840312156128cc576128cb6119b6565b5b60006128da848285016128a1565b91505092915050565b7f4b4950373a207472616e7366657220746f206e6f6e204b49503752656365697660008201527f657220696d706c656d656e746572000000000000000000000000000000000000602082015250565b600061293f602e83611a86565b915061294a826128e3565b604082019050919050565b6000602082019050818103600083015261296e81612932565b905091905056fea2646970667358221220888adfa16a4d5a1cd9f6316ecd506589ffb7b57de547fc5b0c4388f194c4a0ed64736f6c634300080f0033",
  "immutableReferences": {},
  "source": "// SPDX-License-Identifier: MIT LICENSE\r\n\r\npragma solidity 0.8.15;\r\nimport \"@klaytn/contracts/access/Ownable.sol\";\r\nimport \"@klaytn/contracts/KIP/token/KIP7/KIP7.sol\";\r\nimport \"@klaytn/contracts/KIP/token/KIP7/extensions/KIP7Burnable.sol\";\r\n\r\n\r\ncontract N2DRewards is KIP7Burnable, Ownable {\r\n\r\n  mapping(address => bool) controllers;\r\n  \r\n  constructor() KIP7(\"N2DRewards\", \"N2DR\") { }\r\n\r\n  function mint(address to, uint256 amount) external {\r\n    require(controllers[msg.sender], \"Only controllers can mint\");\r\n    _mint(to, amount);\r\n  }\r\n\r\n  function burnFrom(address account, uint256 amount) public override {\r\n      if (controllers[msg.sender]) {\r\n          _burn(account, amount);\r\n      }\r\n      else {\r\n          super.burnFrom(account, amount);\r\n      }\r\n  }\r\n\r\n  function addController(address controller) external onlyOwner {\r\n    controllers[controller] = true;\r\n  }\r\n\r\n  function removeController(address controller) external onlyOwner {\r\n    controllers[controller] = false;\r\n  }\r\n}",
  "sourcePath": "C:\\Users\\th_kr\\OneDrive\\Documents\\Smart_Contracts\\Klaytn\\Staking\\contracts\\N2DRewards.sol",
  "compiler": {
    "name": "solc",
    "version": "0.8.15+commit.e14f2714.Emscripten.clang"
  },
  "schemaVersion": "3.4.8",
  "updatedAt": "2022-08-14T09:55:11.547Z",
  "networkType": "ethereum",
  "devdoc": {
    "kind": "dev",
    "methods": {
      "allowance(address,address)": {
        "details": "See {IKIP7-allowance}."
      },
      "approve(address,uint256)": {
        "details": "See {IKIP7-approve}. NOTE: If `amount` is the maximum `uint256`, the allowance is not updated on `transferFrom`. This is semantically equivalent to an infinite approval. Requirements: - `spender` cannot be the zero address."
      },
      "balanceOf(address)": {
        "details": "See {IKIP7-balanceOf}."
      },
      "burn(uint256)": {
        "details": "Destroys `amount` tokens from the caller. See {KIP7-_burn}. Requirements: - caller's balance must be greater than or equal to `_amount`"
      },
      "burnFrom(address,uint256)": {
        "details": "Destroys `amount` tokens from `account`, deducting from the caller's allowance. See {KIP7-_burn} and {KIP7-allowance}. Requirements: - the caller must have allowance for ``accounts``'s tokens of at least `amount`."
      },
      "decimals()": {
        "details": "Returns the number of decimals used to get its user representation. For example, if `decimals` equals `2`, a balance of `505` tokens should be displayed to a user as `5.05` (`505 / 10 ** 2`). Tokens usually opt for a value of 18, imitating the relationship between Ether and Wei. This is the value {KIP7} uses, unless this function is overridden; NOTE: This information is only used for _display_ purposes: it in no way affects any of the arithmetic of the contract, including {IKIP7-balanceOf} and {IKIP7-transfer}."
      },
      "decreaseAllowance(address,uint256)": {
        "details": "Atomically decreases the allowance granted to `spender` by the caller. This is an alternative to {approve} that can be used as a mitigation for problems described in {IKIP7-approve}. Emits an {Approval} event indicating the updated allowance. Requirements: - `spender` cannot be the zero address. - `spender` must have allowance for the caller of at least `subtractedValue`."
      },
      "increaseAllowance(address,uint256)": {
        "details": "Atomically increases the allowance granted to `spender` by the caller. This is an alternative to {approve} that can be used as a mitigation for problems described in {IKIP7-approve}. Emits an {Approval} event indicating the updated allowance. Requirements: - `spender` cannot be the zero address."
      },
      "name()": {
        "details": "Returns the name of the token."
      },
      "owner()": {
        "details": "Returns the address of the current owner."
      },
      "renounceOwnership()": {
        "details": "Leaves the contract without owner. It will not be possible to call `onlyOwner` functions anymore. Can only be called by the current owner. NOTE: Renouncing ownership will leave the contract without an owner, thereby removing any functionality that is only available to the owner."
      },
      "safeTransfer(address,uint256)": {
        "details": "See {IKIP7-safeTransfer}. Emits a {Transfer} event Requirements: - `recipient` cannot be the zero address. - the caller must have a balance of at least `amount`. - if `recipient` is a smart contract, it must implement {IKIP7Receiver}"
      },
      "safeTransfer(address,uint256,bytes)": {
        "details": "Same as {xref-KIP7-safeTransfer-address-uint256-}[`safeTransfer`], with an additional `_data` parameter which is forwarded in {IKIP7Receiver-onKIP7Received} to contract recipients. Emits a {Transfer} event"
      },
      "safeTransferFrom(address,address,uint256)": {
        "details": "See {IKIP7-safeTransferFrom}. Emits a {Transfer} event Emits an {Approval} event indicating the updated allowance. This is not required by the KIP. See the note at the beginning of {KIP7}. NOTE: Does not update the allowance if the current allowance is the maximum `uint256`. Requirements: - `sender` and `recipient` cannot be the zero address. - `sender` must have a balance of at least `amount`. - the caller must have allowance for ``sender``'s tokens of at least `amount`. - if `recipient` is a smart contract, it must implement {IKIP7Receiver}"
      },
      "safeTransferFrom(address,address,uint256,bytes)": {
        "details": "Same as {xref-KIP7-safeTransferFrom-address-uint256-}[`safeTransferFrom`], with an additional `_data` parameter which is forwarded in {IKIP7Receiver-onKIP7Received} to contract recipients. Emits a {Transfer} event Emits an {Approval} event indicating the updated allowance."
      },
      "supportsInterface(bytes4)": {
        "details": "See {IKIP13-supportsInterface}."
      },
      "symbol()": {
        "details": "Returns the symbol of the token, usually a shorter version of the name."
      },
      "totalSupply()": {
        "details": "See {IKIP7-totalSupply}."
      },
      "transfer(address,uint256)": {
        "details": "See {IKIP7-transfer}. Requirements: - `to` cannot be the zero address. - the caller must have a balance of at least `amount`."
      },
      "transferFrom(address,address,uint256)": {
        "details": "See {IKIP7-transferFrom}. Emits an {Approval} event indicating the updated allowance. This is not required by the EIP. See the note at the beginning of {KIP7}. NOTE: Does not update the allowance if the current allowance is the maximum `uint256`. Requirements: - `from` and `to` cannot be the zero address. - `from` must have a balance of at least `amount`. - the caller must have allowance for ``from``'s tokens of at least `amount`."
      },
      "transferOwnership(address)": {
        "details": "Transfers ownership of the contract to a new account (`newOwner`). Can only be called by the current owner."
      }
    },
    "version": 1
  },
  "userdoc": {
    "kind": "user",
    "methods": {},
    "version": 1
  }
}