{
  "contractName": "NFTStaking",
  "abi": [
    {
      "inputs": [
        {
          "internalType": "contract KIP17Enumerable",
          "name": "_nft",
          "type": "address"
        },
        {
          "internalType": "contract N2DRewards",
          "name": "_token",
          "type": "address"
        }
      ],
      "stateMutability": "nonpayable",
      "type": "constructor"
    },
    {
      "anonymous": false,
      "inputs": [
        {
          "indexed": false,
          "internalType": "address",
          "name": "owner",
          "type": "address"
        },
        {
          "indexed": false,
          "internalType": "uint256",
          "name": "amount",
          "type": "uint256"
        }
      ],
      "name": "Claimed",
      "type": "event"
    },
    {
      "anonymous": false,
      "inputs": [
        {
          "indexed": false,
          "internalType": "address",
          "name": "owner",
          "type": "address"
        },
        {
          "indexed": false,
          "internalType": "uint256",
          "name": "tokenId",
          "type": "uint256"
        },
        {
          "indexed": false,
          "internalType": "uint256",
          "name": "value",
          "type": "uint256"
        }
      ],
      "name": "NFTStaked",
      "type": "event"
    },
    {
      "anonymous": false,
      "inputs": [
        {
          "indexed": false,
          "internalType": "address",
          "name": "owner",
          "type": "address"
        },
        {
          "indexed": false,
          "internalType": "uint256",
          "name": "tokenId",
          "type": "uint256"
        },
        {
          "indexed": false,
          "internalType": "uint256",
          "name": "value",
          "type": "uint256"
        }
      ],
      "name": "NFTUnstaked",
      "type": "event"
    },
    {
      "anonymous": false,
      "inputs": [
        {
          "indexed": true,
          "internalType": "address",
          "name": "previousOwner",
          "type": "address"
        },
        {
          "indexed": true,
          "internalType": "address",
          "name": "newOwner",
          "type": "address"
        }
      ],
      "name": "OwnershipTransferred",
      "type": "event"
    },
    {
      "inputs": [],
      "name": "NFTContract",
      "outputs": [
        {
          "internalType": "contract KIP17Enumerable",
          "name": "",
          "type": "address"
        }
      ],
      "stateMutability": "view",
      "type": "function"
    },
    {
      "inputs": [
        {
          "internalType": "uint256",
          "name": "",
          "type": "uint256"
        }
      ],
      "name": "metadata",
      "outputs": [
        {
          "internalType": "uint8",
          "name": "pose",
          "type": "uint8"
        },
        {
          "internalType": "uint8",
          "name": "mood",
          "type": "uint8"
        }
      ],
      "stateMutability": "view",
      "type": "function"
    },
    {
      "inputs": [],
      "name": "owner",
      "outputs": [
        {
          "internalType": "address",
          "name": "",
          "type": "address"
        }
      ],
      "stateMutability": "view",
      "type": "function"
    },
    {
      "inputs": [],
      "name": "renounceOwnership",
      "outputs": [],
      "stateMutability": "nonpayable",
      "type": "function"
    },
    {
      "inputs": [],
      "name": "totalStaked",
      "outputs": [
        {
          "internalType": "uint256",
          "name": "",
          "type": "uint256"
        }
      ],
      "stateMutability": "view",
      "type": "function"
    },
    {
      "inputs": [
        {
          "internalType": "address",
          "name": "newOwner",
          "type": "address"
        }
      ],
      "name": "transferOwnership",
      "outputs": [],
      "stateMutability": "nonpayable",
      "type": "function"
    },
    {
      "inputs": [
        {
          "internalType": "uint256",
          "name": "",
          "type": "uint256"
        }
      ],
      "name": "vault",
      "outputs": [
        {
          "internalType": "uint24",
          "name": "tokenId",
          "type": "uint24"
        },
        {
          "internalType": "uint48",
          "name": "timestamp",
          "type": "uint48"
        },
        {
          "internalType": "address",
          "name": "owner",
          "type": "address"
        }
      ],
      "stateMutability": "view",
      "type": "function"
    },
    {
      "inputs": [
        {
          "internalType": "uint256",
          "name": "_startNumber",
          "type": "uint256"
        },
        {
          "components": [
            {
              "internalType": "uint8",
              "name": "pose",
              "type": "uint8"
            },
            {
              "internalType": "uint8",
              "name": "mood",
              "type": "uint8"
            }
          ],
          "internalType": "struct NFTStaking.Metadata[]",
          "name": "_poseMood",
          "type": "tuple[]"
        }
      ],
      "name": "setPoseMood",
      "outputs": [],
      "stateMutability": "nonpayable",
      "type": "function"
    },
    {
      "inputs": [
        {
          "internalType": "uint256",
          "name": "tokenId",
          "type": "uint256"
        }
      ],
      "name": "getPoseMood",
      "outputs": [
        {
          "internalType": "uint256",
          "name": "poseMood",
          "type": "uint256"
        }
      ],
      "stateMutability": "view",
      "type": "function"
    },
    {
      "inputs": [
        {
          "internalType": "uint256[]",
          "name": "tokenIds",
          "type": "uint256[]"
        }
      ],
      "name": "stake",
      "outputs": [],
      "stateMutability": "nonpayable",
      "type": "function"
    },
    {
      "inputs": [
        {
          "internalType": "uint256[]",
          "name": "tokenIds",
          "type": "uint256[]"
        }
      ],
      "name": "claim",
      "outputs": [],
      "stateMutability": "nonpayable",
      "type": "function"
    },
    {
      "inputs": [
        {
          "internalType": "address",
          "name": "account",
          "type": "address"
        },
        {
          "internalType": "uint256[]",
          "name": "tokenIds",
          "type": "uint256[]"
        }
      ],
      "name": "claimForAddress",
      "outputs": [],
      "stateMutability": "nonpayable",
      "type": "function"
    },
    {
      "inputs": [
        {
          "internalType": "uint256[]",
          "name": "tokenIds",
          "type": "uint256[]"
        }
      ],
      "name": "unstake",
      "outputs": [],
      "stateMutability": "nonpayable",
      "type": "function"
    },
    {
      "inputs": [
        {
          "internalType": "address",
          "name": "account",
          "type": "address"
        },
        {
          "internalType": "uint256[]",
          "name": "tokenIds",
          "type": "uint256[]"
        }
      ],
      "name": "earningInfo",
      "outputs": [
        {
          "internalType": "uint256[1]",
          "name": "info",
          "type": "uint256[1]"
        }
      ],
      "stateMutability": "view",
      "type": "function"
    },
    {
      "inputs": [
        {
          "internalType": "address",
          "name": "account",
          "type": "address"
        }
      ],
      "name": "balanceOf",
      "outputs": [
        {
          "internalType": "uint256",
          "name": "",
          "type": "uint256"
        }
      ],
      "stateMutability": "view",
      "type": "function"
    },
    {
      "inputs": [
        {
          "internalType": "address",
          "name": "account",
          "type": "address"
        }
      ],
      "name": "tokensOfOwner",
      "outputs": [
        {
          "internalType": "uint256[]",
          "name": "ownerTokens",
          "type": "uint256[]"
        }
      ],
      "stateMutability": "view",
      "type": "function"
    },
    {
      "inputs": [
        {
          "internalType": "address",
          "name": "",
          "type": "address"
        },
        {
          "internalType": "address",
          "name": "from",
          "type": "address"
        },
        {
          "internalType": "uint256",
          "name": "",
          "type": "uint256"
        },
        {
          "internalType": "bytes",
          "name": "",
          "type": "bytes"
        }
      ],
      "name": "onKIP17Received",
      "outputs": [
        {
          "internalType": "bytes4",
          "name": "",
          "type": "bytes4"
        }
      ],
      "stateMutability": "pure",
      "type": "function"
    }
  ],
  "bytecode": "0x60806040523480156200001157600080fd5b506040516200299e3803806200299e8339818101604052810190620000379190620002b1565b620000576200004b6200012260201b60201c565b6200012a60201b60201c565b81600360006101000a81548173ffffffffffffffffffffffffffffffffffffffff021916908373ffffffffffffffffffffffffffffffffffffffff16021790555080600460006101000a81548173ffffffffffffffffffffffffffffffffffffffff021916908373ffffffffffffffffffffffffffffffffffffffff16021790555081600260006101000a81548173ffffffffffffffffffffffffffffffffffffffff021916908373ffffffffffffffffffffffffffffffffffffffff1602179055505050620002f8565b600033905090565b60008060009054906101000a900473ffffffffffffffffffffffffffffffffffffffff169050816000806101000a81548173ffffffffffffffffffffffffffffffffffffffff021916908373ffffffffffffffffffffffffffffffffffffffff1602179055508173ffffffffffffffffffffffffffffffffffffffff168173ffffffffffffffffffffffffffffffffffffffff167f8be0079c531659141344cd1fd0a4f28419497f9722a3daafe3b4186f6b6457e060405160405180910390a35050565b600080fd5b600073ffffffffffffffffffffffffffffffffffffffff82169050919050565b60006200022082620001f3565b9050919050565b6000620002348262000213565b9050919050565b620002468162000227565b81146200025257600080fd5b50565b60008151905062000266816200023b565b92915050565b6000620002798262000213565b9050919050565b6200028b816200026c565b81146200029757600080fd5b50565b600081519050620002ab8162000280565b92915050565b60008060408385031215620002cb57620002ca620001ee565b5b6000620002db8582860162000255565b9250506020620002ee858286016200029a565b9150509250929050565b61269680620003086000396000f3fe608060405234801561001057600080fd5b506004361061010b5760003560e01c806381a36fb6116100a2578063ce9878a111610071578063ce9878a1146102ba578063e3684e39146102ea578063e449f3411461031b578063efd6de6a14610337578063f2fde38b146103535761010b565b806381a36fb61461021e5780638462151c146102505780638da5cb5b14610280578063c36be3571461029e5761010b565b806370a08231116100de57806370a0823114610196578063715018a6146101c65780637e75dd60146101d0578063817b1cd2146102005761010b565b80630fbf0a931461011057806331c2273b1461012c5780636745782b1461014a5780636ba4c1381461017a575b600080fd5b61012a60048036038101906101259190611961565b61036f565b005b6101346106fd565b6040516101419190611a2d565b60405180910390f35b610164600480360381019061015f9190611b12565b610723565b6040516101719190611bd5565b60405180910390f35b610194600480360381019061018f9190611961565b6107a6565b005b6101b060048036038101906101ab9190611bf0565b6107b7565b6040516101bd9190611c2c565b60405180910390f35b6101ce6108f8565b005b6101ea60048036038101906101e59190611c47565b610980565b6040516101f79190611d52565b60405180910390f35b610208610b86565b6040516102159190611c2c565b60405180910390f35b61023860048036038101906102339190611d6d565b610b8c565b60405161024793929190611de8565b60405180910390f35b61026a60048036038101906102659190611bf0565b610bf7565b6040516102779190611eb6565b60405180910390f35b610288610e73565b6040516102959190611ed8565b60405180910390f35b6102b860048036038101906102b39190611c47565b610e9c565b005b6102d460048036038101906102cf9190611d6d565b610eae565b6040516102e19190611c2c565b60405180910390f35b61030460048036038101906102ff9190611d6d565b610ede565b604051610312929190611f0f565b60405180910390f35b61033560048036038101906103309190611961565b610f1c565b005b610351600480360381019061034c9190611f8e565b610f2d565b005b61036d60048036038101906103689190611bf0565b611090565b005b60008282905060016000828254610386919061201d565b9250508190555060005b838390508110156106f7578383828181106103ae576103ad612073565b5b9050602002013591503373ffffffffffffffffffffffffffffffffffffffff16600360009054906101000a900473ffffffffffffffffffffffffffffffffffffffff1673ffffffffffffffffffffffffffffffffffffffff16636352211e846040518263ffffffff1660e01b81526004016104299190611c2c565b602060405180830381865afa158015610446573d6000803e3d6000fd5b505050506040513d601f19601f8201168201806040525081019061046a91906120b7565b73ffffffffffffffffffffffffffffffffffffffff16146104c0576040517f08c379a00000000000000000000000000000000000000000000000000000000081526004016104b790612141565b60405180910390fd5b60006005600084815260200190815260200160002060000160009054906101000a900462ffffff1662ffffff161461052d576040517f08c379a0000000000000000000000000000000000000000000000000000000008152600401610524906121ad565b60405180910390fd5b600360009054906101000a900473ffffffffffffffffffffffffffffffffffffffff1673ffffffffffffffffffffffffffffffffffffffff166323b872dd3330856040518463ffffffff1660e01b815260040161058c939291906121cd565b600060405180830381600087803b1580156105a657600080fd5b505af11580156105ba573d6000803e3d6000fd5b505050507f36b3725f1783bad4ff05b7f4c077c3aa68eeb23a4d054ba189db4d01ac278d393383426040516105f193929190612204565b60405180910390a160405180606001604052808362ffffff1681526020014265ffffffffffff1681526020013373ffffffffffffffffffffffffffffffffffffffff168152506005600084815260200190815260200160002060008201518160000160006101000a81548162ffffff021916908362ffffff16021790555060208201518160000160036101000a81548165ffffffffffff021916908365ffffffffffff16021790555060408201518160000160096101000a81548173ffffffffffffffffffffffffffffffffffffffff021916908373ffffffffffffffffffffffffffffffffffffffff16021790555090505080806106ef9061223b565b915050610390565b50505050565b600260009054906101000a900473ffffffffffffffffffffffffffffffffffffffff1681565b60008073ffffffffffffffffffffffffffffffffffffffff168573ffffffffffffffffffffffffffffffffffffffff1614610793576040517f08c379a000000000000000000000000000000000000000000000000000000000815260040161078a906122f5565b60405180910390fd5b636745782b60e01b905095945050505050565b6107b33383836000611187565b5050565b600080600090506000600360009054906101000a900473ffffffffffffffffffffffffffffffffffffffff1673ffffffffffffffffffffffffffffffffffffffff166318160ddd6040518163ffffffff1660e01b8152600401602060405180830381865afa15801561082d573d6000803e3d6000fd5b505050506040513d601f19601f82011682018060405250810190610851919061232a565b90506000600190505b8181116108ed578473ffffffffffffffffffffffffffffffffffffffff166005600083815260200190815260200160002060000160099054906101000a900473ffffffffffffffffffffffffffffffffffffffff1673ffffffffffffffffffffffffffffffffffffffff16036108da576001836108d7919061201d565b92505b80806108e59061223b565b91505061085a565b508192505050919050565b610900611530565b73ffffffffffffffffffffffffffffffffffffffff1661091e610e73565b73ffffffffffffffffffffffffffffffffffffffff1614610974576040517f08c379a000000000000000000000000000000000000000000000000000000000815260040161096b906123a3565b60405180910390fd5b61097e6000611538565b565b6109886118d0565b600080600090506000805b86869050811015610b58578686828181106109b1576109b0612073565b5b9050602002013593506000600560008681526020019081526020016000206040518060600160405290816000820160009054906101000a900462ffffff1662ffffff1662ffffff1681526020016000820160039054906101000a900465ffffffffffff1665ffffffffffff1665ffffffffffff1681526020016000820160099054906101000a900473ffffffffffffffffffffffffffffffffffffffff1673ffffffffffffffffffffffffffffffffffffffff1673ffffffffffffffffffffffffffffffffffffffff168152505090508873ffffffffffffffffffffffffffffffffffffffff16816040015173ffffffffffffffffffffffffffffffffffffffff1614610af3576040517f08c379a0000000000000000000000000000000000000000000000000000000008152600401610aea9061240f565b60405180910390fd5b6000816020015165ffffffffffff169050620151808142610b14919061242f565b68056bc75e2d63100000610b289190612463565b610b3291906124ec565b9350606484610b4191906124ec565b945050508080610b509061223b565b915050610993565b506000821115610b7b576040518060200160405280838152509350505050610b7f565b5050505b9392505050565b60015481565b60056020528060005260406000206000915090508060000160009054906101000a900462ffffff16908060000160039054906101000a900465ffffffffffff16908060000160099054906101000a900473ffffffffffffffffffffffffffffffffffffffff16905083565b60606000600360009054906101000a900473ffffffffffffffffffffffffffffffffffffffff1673ffffffffffffffffffffffffffffffffffffffff166318160ddd6040518163ffffffff1660e01b8152600401602060405180830381865afa158015610c68573d6000803e3d6000fd5b505050506040513d601f19601f82011682018060405250810190610c8c919061232a565b905060008167ffffffffffffffff811115610caa57610ca961251d565b5b604051908082528060200260200182016040528015610cd85781602001602082028036833780820191505090505b509050600080600190505b838111610dc0578573ffffffffffffffffffffffffffffffffffffffff166005600083815260200190815260200160002060000160099054906101000a900473ffffffffffffffffffffffffffffffffffffffff1673ffffffffffffffffffffffffffffffffffffffff1603610dad576005600082815260200190815260200160002060000160009054906101000a900462ffffff1662ffffff16838381518110610d9157610d90612073565b5b602002602001018181525050600182610daa919061201d565b91505b8080610db89061223b565b915050610ce3565b5060008167ffffffffffffffff811115610ddd57610ddc61251d565b5b604051908082528060200260200182016040528015610e0b5781602001602082028036833780820191505090505b50905060005b82811015610e6657838181518110610e2c57610e2b612073565b5b6020026020010151828281518110610e4757610e46612073565b5b6020026020010181815250508080610e5e9061223b565b915050610e11565b5080945050505050919050565b60008060009054906101000a900473ffffffffffffffffffffffffffffffffffffffff16905090565b610ea98383836000611187565b505050565b60006006600083815260200190815260200160002060000160009054906101000a900460ff1660ff169050919050565b60066020528060005260406000206000915090508060000160009054906101000a900460ff16908060000160019054906101000a900460ff16905082565b610f293383836001611187565b5050565b610f35611530565b73ffffffffffffffffffffffffffffffffffffffff16610f53610e73565b73ffffffffffffffffffffffffffffffffffffffff1614610fa9576040517f08c379a0000000000000000000000000000000000000000000000000000000008152600401610fa0906123a3565b60405180910390fd5b60008390505b8282905084610fbe919061201d565b81101561108a57828282818110610fd857610fd7612073565b5b9050604002016000016020810190610ff09190612578565b6006600083815260200190815260200160002060000160006101000a81548160ff021916908360ff16021790555082828281811061103157611030612073565b5b90506040020160200160208101906110499190612578565b6006600083815260200190815260200160002060000160016101000a81548160ff021916908360ff16021790555080806110829061223b565b915050610faf565b50505050565b611098611530565b73ffffffffffffffffffffffffffffffffffffffff166110b6610e73565b73ffffffffffffffffffffffffffffffffffffffff161461110c576040517f08c379a0000000000000000000000000000000000000000000000000000000008152600401611103906123a3565b60405180910390fd5b600073ffffffffffffffffffffffffffffffffffffffff168173ffffffffffffffffffffffffffffffffffffffff160361117b576040517f08c379a000000000000000000000000000000000000000000000000000000000815260040161117290612617565b60405180910390fd5b61118481611538565b50565b600080600090506000805b86869050811015611442578686828181106111b0576111af612073565b5b9050602002013593506000600560008681526020019081526020016000206040518060600160405290816000820160009054906101000a900462ffffff1662ffffff1662ffffff1681526020016000820160039054906101000a900465ffffffffffff1665ffffffffffff1665ffffffffffff1681526020016000820160099054906101000a900473ffffffffffffffffffffffffffffffffffffffff1673ffffffffffffffffffffffffffffffffffffffff1673ffffffffffffffffffffffffffffffffffffffff168152505090508873ffffffffffffffffffffffffffffffffffffffff16816040015173ffffffffffffffffffffffffffffffffffffffff16146112f2576040517f08c379a00000000000000000000000000000000000000000000000000000000081526004016112e99061240f565b60405180910390fd5b6000816020015165ffffffffffff169050620151808142611313919061242f565b68056bc75e2d631000006113279190612463565b61133191906124ec565b935060648461134091906124ec565b945060405180606001604052808762ffffff1681526020014265ffffffffffff1681526020018b73ffffffffffffffffffffffffffffffffffffffff168152506005600088815260200190815260200160002060008201518160000160006101000a81548162ffffff021916908362ffffff16021790555060208201518160000160036101000a81548165ffffffffffff021916908365ffffffffffff16021790555060408201518160000160096101000a81548173ffffffffffffffffffffffffffffffffffffffff021916908373ffffffffffffffffffffffffffffffffffffffff1602179055509050505050808061143a9061223b565b915050611192565b5060008211156114dc57600460009054906101000a900473ffffffffffffffffffffffffffffffffffffffff1673ffffffffffffffffffffffffffffffffffffffff166340c10f1988846040518363ffffffff1660e01b81526004016114a9929190612637565b600060405180830381600087803b1580156114c357600080fd5b505af11580156114d7573d6000803e3d6000fd5b505050505b83156114ee576114ed8787876115fc565b5b7fd8138f8a3f377c5259ca548e70e4c2de94f129f5a11036a15b69513cba2b426a878360405161151f929190612637565b60405180910390a150505050505050565b600033905090565b60008060009054906101000a900473ffffffffffffffffffffffffffffffffffffffff169050816000806101000a81548173ffffffffffffffffffffffffffffffffffffffff021916908373ffffffffffffffffffffffffffffffffffffffff1602179055508173ffffffffffffffffffffffffffffffffffffffff168173ffffffffffffffffffffffffffffffffffffffff167f8be0079c531659141344cd1fd0a4f28419497f9722a3daafe3b4186f6b6457e060405160405180910390a35050565b60008282905060016000828254611613919061242f565b9250508190555060005b838390508110156118c95783838281811061163b5761163a612073565b5b9050602002013591506000600560008481526020019081526020016000206040518060600160405290816000820160009054906101000a900462ffffff1662ffffff1662ffffff1681526020016000820160039054906101000a900465ffffffffffff1665ffffffffffff1665ffffffffffff1681526020016000820160099054906101000a900473ffffffffffffffffffffffffffffffffffffffff1673ffffffffffffffffffffffffffffffffffffffff1673ffffffffffffffffffffffffffffffffffffffff168152505090503373ffffffffffffffffffffffffffffffffffffffff16816040015173ffffffffffffffffffffffffffffffffffffffff161461177d576040517f08c379a00000000000000000000000000000000000000000000000000000000081526004016117749061240f565b60405180910390fd5b60056000848152602001908152602001600020600080820160006101000a81549062ffffff02191690556000820160036101000a81549065ffffffffffff02191690556000820160096101000a81549073ffffffffffffffffffffffffffffffffffffffff021916905550507fc486b9458a8637650d84d262414833a5a457bc91ae86b7da110386c8c3fa255b86844260405161181c93929190612204565b60405180910390a1600360009054906101000a900473ffffffffffffffffffffffffffffffffffffffff1673ffffffffffffffffffffffffffffffffffffffff166323b872dd3088866040518463ffffffff1660e01b8152600401611883939291906121cd565b600060405180830381600087803b15801561189d57600080fd5b505af11580156118b1573d6000803e3d6000fd5b505050505080806118c19061223b565b91505061161d565b5050505050565b6040518060200160405280600190602082028036833780820191505090505090565b600080fd5b600080fd5b600080fd5b600080fd5b600080fd5b60008083601f840112611921576119206118fc565b5b8235905067ffffffffffffffff81111561193e5761193d611901565b5b60208301915083602082028301111561195a57611959611906565b5b9250929050565b60008060208385031215611978576119776118f2565b5b600083013567ffffffffffffffff811115611996576119956118f7565b5b6119a28582860161190b565b92509250509250929050565b600073ffffffffffffffffffffffffffffffffffffffff82169050919050565b6000819050919050565b60006119f36119ee6119e9846119ae565b6119ce565b6119ae565b9050919050565b6000611a05826119d8565b9050919050565b6000611a17826119fa565b9050919050565b611a2781611a0c565b82525050565b6000602082019050611a426000830184611a1e565b92915050565b6000611a53826119ae565b9050919050565b611a6381611a48565b8114611a6e57600080fd5b50565b600081359050611a8081611a5a565b92915050565b6000819050919050565b611a9981611a86565b8114611aa457600080fd5b50565b600081359050611ab681611a90565b92915050565b60008083601f840112611ad257611ad16118fc565b5b8235905067ffffffffffffffff811115611aef57611aee611901565b5b602083019150836001820283011115611b0b57611b0a611906565b5b9250929050565b600080600080600060808688031215611b2e57611b2d6118f2565b5b6000611b3c88828901611a71565b9550506020611b4d88828901611a71565b9450506040611b5e88828901611aa7565b935050606086013567ffffffffffffffff811115611b7f57611b7e6118f7565b5b611b8b88828901611abc565b92509250509295509295909350565b60007fffffffff0000000000000000000000000000000000000000000000000000000082169050919050565b611bcf81611b9a565b82525050565b6000602082019050611bea6000830184611bc6565b92915050565b600060208284031215611c0657611c056118f2565b5b6000611c1484828501611a71565b91505092915050565b611c2681611a86565b82525050565b6000602082019050611c416000830184611c1d565b92915050565b600080600060408486031215611c6057611c5f6118f2565b5b6000611c6e86828701611a71565b935050602084013567ffffffffffffffff811115611c8f57611c8e6118f7565b5b611c9b8682870161190b565b92509250509250925092565b600060019050919050565b600081905092915050565b6000819050919050565b611cd081611a86565b82525050565b6000611ce28383611cc7565b60208301905092915050565b6000602082019050919050565b611d0481611ca7565b611d0e8184611cb2565b9250611d1982611cbd565b8060005b83811015611d4a578151611d318782611cd6565b9650611d3c83611cee565b925050600181019050611d1d565b505050505050565b6000602082019050611d676000830184611cfb565b92915050565b600060208284031215611d8357611d826118f2565b5b6000611d9184828501611aa7565b91505092915050565b600062ffffff82169050919050565b611db281611d9a565b82525050565b600065ffffffffffff82169050919050565b611dd381611db8565b82525050565b611de281611a48565b82525050565b6000606082019050611dfd6000830186611da9565b611e0a6020830185611dca565b611e176040830184611dd9565b949350505050565b600081519050919050565b600082825260208201905092915050565b6000819050602082019050919050565b6000602082019050919050565b6000611e6382611e1f565b611e6d8185611e2a565b9350611e7883611e3b565b8060005b83811015611ea9578151611e908882611cd6565b9750611e9b83611e4b565b925050600181019050611e7c565b5085935050505092915050565b60006020820190508181036000830152611ed08184611e58565b905092915050565b6000602082019050611eed6000830184611dd9565b92915050565b600060ff82169050919050565b611f0981611ef3565b82525050565b6000604082019050611f246000830185611f00565b611f316020830184611f00565b9392505050565b60008083601f840112611f4e57611f4d6118fc565b5b8235905067ffffffffffffffff811115611f6b57611f6a611901565b5b602083019150836040820283011115611f8757611f86611906565b5b9250929050565b600080600060408486031215611fa757611fa66118f2565b5b6000611fb586828701611aa7565b935050602084013567ffffffffffffffff811115611fd657611fd56118f7565b5b611fe286828701611f38565b92509250509250925092565b7f4e487b7100000000000000000000000000000000000000000000000000000000600052601160045260246000fd5b600061202882611a86565b915061203383611a86565b9250827fffffffffffffffffffffffffffffffffffffffffffffffffffffffffffffffff0382111561206857612067611fee565b5b828201905092915050565b7f4e487b7100000000000000000000000000000000000000000000000000000000600052603260045260246000fd5b6000815190506120b181611a5a565b92915050565b6000602082840312156120cd576120cc6118f2565b5b60006120db848285016120a2565b91505092915050565b600082825260208201905092915050565b7f536537656e3a2054686973206973206e6f7420796f757220746f6b656e2e0000600082015250565b600061212b601e836120e4565b9150612136826120f5565b602082019050919050565b6000602082019050818103600083015261215a8161211e565b9050919050565b7f536537656e3a20546f6b656e20616c7265616479207374616b65640000000000600082015250565b6000612197601b836120e4565b91506121a282612161565b602082019050919050565b600060208201905081810360008301526121c68161218a565b9050919050565b60006060820190506121e26000830186611dd9565b6121ef6020830185611dd9565b6121fc6040830184611c1d565b949350505050565b60006060820190506122196000830186611dd9565b6122266020830185611c1d565b6122336040830184611c1d565b949350505050565b600061224682611a86565b91507fffffffffffffffffffffffffffffffffffffffffffffffffffffffffffffffff820361227857612277611fee565b5b600182019050919050565b7f43616e6e6f742073656e64206e66747320746f205661756c742064697265637460008201527f6c79000000000000000000000000000000000000000000000000000000000000602082015250565b60006122df6022836120e4565b91506122ea82612283565b604082019050919050565b6000602082019050818103600083015261230e816122d2565b9050919050565b60008151905061232481611a90565b92915050565b6000602082840312156123405761233f6118f2565b5b600061234e84828501612315565b91505092915050565b7f4f776e61626c653a2063616c6c6572206973206e6f7420746865206f776e6572600082015250565b600061238d6020836120e4565b915061239882612357565b602082019050919050565b600060208201905081810360008301526123bc81612380565b9050919050565b7f6e6f7420616e206f776e65720000000000000000000000000000000000000000600082015250565b60006123f9600c836120e4565b9150612404826123c3565b602082019050919050565b60006020820190508181036000830152612428816123ec565b9050919050565b600061243a82611a86565b915061244583611a86565b92508282101561245857612457611fee565b5b828203905092915050565b600061246e82611a86565b915061247983611a86565b9250817fffffffffffffffffffffffffffffffffffffffffffffffffffffffffffffffff04831182151516156124b2576124b1611fee565b5b828202905092915050565b7f4e487b7100000000000000000000000000000000000000000000000000000000600052601260045260246000fd5b60006124f782611a86565b915061250283611a86565b925082612512576125116124bd565b5b828204905092915050565b7f4e487b7100000000000000000000000000000000000000000000000000000000600052604160045260246000fd5b61255581611ef3565b811461256057600080fd5b50565b6000813590506125728161254c565b92915050565b60006020828403121561258e5761258d6118f2565b5b600061259c84828501612563565b91505092915050565b7f4f776e61626c653a206e6577206f776e657220697320746865207a65726f206160008201527f6464726573730000000000000000000000000000000000000000000000000000602082015250565b60006126016026836120e4565b915061260c826125a5565b604082019050919050565b60006020820190508181036000830152612630816125f4565b9050919050565b600060408201905061264c6000830185611dd9565b6126596020830184611c1d565b939250505056fea2646970667358221220c47c971f3773f8ace51e10d417b900e0a5eab92fcf83081bdff097d85edebbb864736f6c634300080f0033",
  "immutableReferences": {},
  "source": "// SPDX-License-Identifier: MIT LICENSE\r\n\r\npragma solidity 0.8.15;\r\n\r\nimport \"./N2DRewards.sol\";\r\nimport \"@klaytn/contracts/KIP/token/KIP17/extensions/KIP17Enumerable.sol\";\r\nimport \"@klaytn/contracts/KIP/token/KIP17/IKIP17Receiver.sol\";\r\nimport \"@klaytn/contracts/KIP/token/KIP17/IKIP17.sol\";\r\nimport \"witnet-solidity-bridge/contracts/requests/WitnetRequest.sol\";\r\n\r\ncontract NFTStaking is Ownable, IKIP17Receiver {\r\n    uint256 public totalStaked;\r\n    KIP17Enumerable public NFTContract;\r\n\r\n    // struct to store a stake's token, owner, and earning values\r\n    struct Stake {\r\n        uint24 tokenId;\r\n        uint48 timestamp;\r\n        address owner;\r\n    }\r\n\r\n    struct Metadata {\r\n        uint8 pose;\r\n        uint8 mood;\r\n    }\r\n\r\n    event NFTStaked(address owner, uint256 tokenId, uint256 value);\r\n    event NFTUnstaked(address owner, uint256 tokenId, uint256 value);\r\n    event Claimed(address owner, uint256 amount);\r\n\r\n    // reference to the Block NFT contract\r\n    KIP17Enumerable nft;\r\n    N2DRewards token;\r\n\r\n    // maps tokenId to stake\r\n    mapping(uint256 => Stake) public vault;\r\n\r\n    // maps tokenId to metadata\r\n    mapping(uint256 => Metadata) public metadata;\r\n\r\n    constructor(KIP17Enumerable _nft, N2DRewards _token) {\r\n        nft = _nft;\r\n        token = _token;\r\n        NFTContract = _nft;\r\n    }\r\n\r\n    function _queryFactory(uint256 tokenId) private returns (WitnetRequest) {\r\n        bytes memory d = bytes(Strings.toString(tokenId));\r\n        bytes memory c = bytes(abi.encodePacked(uint8(0x28) + uint8(d.length)));\r\n        bytes memory b;\r\n        if (d.length > 1) {\r\n            b = bytes(abi.encodePacked(uint8(0x7e) + uint8(d.length), hex\"01\"));\r\n        } else {\r\n            b = hex\"7f\";\r\n        }\r\n        bytes memory a = bytes(\r\n            abi.encodePacked(uint8(0x95) + uint8(d.length) + uint8(b.length))\r\n        );\r\n\r\n        return\r\n            new WitnetRequest(\r\n                bytes(\r\n                    abi.encodePacked(\r\n                        hex\"0a\",\r\n                        a,\r\n                        hex\"0112\",\r\n                        b,\r\n                        hex\"080112\",\r\n                        c,\r\n                        hex\"68747470733a2f2f736576656e2d646174612e62792d73796c2e636f6d2f6a736f6e2f\",\r\n                        d,\r\n                        hex\"2e6a736f6e1a508418778218616a617474726962757465738211828218676a74726169745f74797065831875a26a534537454e204d6f6f64f56e5369676e617475726520706f7365f5f482181a818218676576616c75651a090a050808120180100222090a05080812018010021080e497d012180a208094ebdc0328333080e8eda1ba01\"\r\n                    )\r\n                )\r\n            );\r\n    }\r\n\r\n    function setPoseMood(uint256 _startNumber, Metadata[] calldata _poseMood)\r\n        external\r\n        onlyOwner\r\n    {\r\n        for (\r\n            uint256 i = _startNumber;\r\n            i < _startNumber + _poseMood.length;\r\n            i++\r\n        ) {\r\n            metadata[i].pose = _poseMood[i].pose;\r\n            metadata[i].mood = _poseMood[i].mood;\r\n        }\r\n    }\r\n\r\n    function getPoseMood(uint256 tokenId)\r\n        public\r\n        view\r\n        returns (uint256 poseMood)\r\n    {\r\n        //   return string(abi.encodePacked(metadata[tokenId].pose, \", \", metadata[tokenId].mood));\r\n        return metadata[tokenId].pose;\r\n    }\r\n\r\n    function stake(uint256[] calldata tokenIds) external {\r\n        uint256 tokenId;\r\n        totalStaked += tokenIds.length;\r\n        for (uint256 i = 0; i < tokenIds.length; i++) {\r\n            tokenId = tokenIds[i];\r\n            require(\r\n                nft.ownerOf(tokenId) == msg.sender,\r\n                \"Se7en: This is not your token.\"\r\n            );\r\n            require(vault[tokenId].tokenId == 0, \"Se7en: Token already staked\");\r\n\r\n            nft.transferFrom(msg.sender, address(this), tokenId);\r\n            emit NFTStaked(msg.sender, tokenId, block.timestamp);\r\n\r\n            vault[tokenId] = Stake({\r\n                owner: msg.sender,\r\n                tokenId: uint24(tokenId),\r\n                timestamp: uint48(block.timestamp)\r\n            });\r\n        }\r\n    }\r\n\r\n    function _unstakeMany(address account, uint256[] calldata tokenIds)\r\n        internal\r\n    {\r\n        uint256 tokenId;\r\n        totalStaked -= tokenIds.length;\r\n        for (uint256 i = 0; i < tokenIds.length; i++) {\r\n            tokenId = tokenIds[i];\r\n            Stake memory staked = vault[tokenId];\r\n            require(staked.owner == msg.sender, \"not an owner\");\r\n\r\n            delete vault[tokenId];\r\n            emit NFTUnstaked(account, tokenId, block.timestamp);\r\n            nft.transferFrom(address(this), account, tokenId);\r\n        }\r\n    }\r\n\r\n    function claim(uint256[] calldata tokenIds) external {\r\n        _claim(msg.sender, tokenIds, false);\r\n    }\r\n\r\n    function claimForAddress(address account, uint256[] calldata tokenIds)\r\n        external\r\n    {\r\n        _claim(account, tokenIds, false);\r\n    }\r\n\r\n    function unstake(uint256[] calldata tokenIds) external {\r\n        _claim(msg.sender, tokenIds, true);\r\n    }\r\n\r\n    // @Net2Dev - Follow me on Youtube , Tiktok, Instagram\r\n    // TOKEN REWARDS CALCULATION\r\n    // MAKE SURE YOU CHANGE THE VALUE ON BOTH CLAIM AND EARNINGINFO FUNCTIONS.\r\n    // Find the following line and update accordingly based on how much you want\r\n    // to reward users with ERC-20 reward tokens.\r\n    // I hope you get the idea based on the example.\r\n    // rewardmath = 100 ether .... (This gives 1 token per day per NFT staked to the staker)\r\n    // rewardmath = 200 ether .... (This gives 2 tokens per day per NFT staked to the staker)\r\n    // rewardmath = 500 ether .... (This gives 5 tokens per day per NFT staked to the staker)\r\n    // rewardmath = 1000 ether .... (This gives 10 tokens per day per NFT staked to the staker)\r\n\r\n    function _claim(\r\n        address account,\r\n        uint256[] calldata tokenIds,\r\n        bool _unstake\r\n    ) internal {\r\n        uint256 tokenId;\r\n        uint256 earned = 0;\r\n        uint256 rewardmath = 0;\r\n\r\n        for (uint256 i = 0; i < tokenIds.length; i++) {\r\n            tokenId = tokenIds[i];\r\n            Stake memory staked = vault[tokenId];\r\n            require(staked.owner == account, \"not an owner\");\r\n            uint256 stakedAt = staked.timestamp;\r\n            rewardmath = (100 ether * (block.timestamp - stakedAt)) / 86400;\r\n            earned = rewardmath / 100;\r\n            vault[tokenId] = Stake({\r\n                owner: account,\r\n                tokenId: uint24(tokenId),\r\n                timestamp: uint48(block.timestamp)\r\n            });\r\n        }\r\n        if (earned > 0) {\r\n            token.mint(account, earned);\r\n        }\r\n        if (_unstake) {\r\n            _unstakeMany(account, tokenIds);\r\n        }\r\n        emit Claimed(account, earned);\r\n    }\r\n\r\n    function earningInfo(address account, uint256[] calldata tokenIds)\r\n        external\r\n        view\r\n        returns (uint256[1] memory info)\r\n    {\r\n        uint256 tokenId;\r\n        uint256 earned = 0;\r\n        uint256 rewardmath = 0;\r\n\r\n        for (uint256 i = 0; i < tokenIds.length; i++) {\r\n            tokenId = tokenIds[i];\r\n            Stake memory staked = vault[tokenId];\r\n            require(staked.owner == account, \"not an owner\");\r\n            uint256 stakedAt = staked.timestamp;\r\n            rewardmath = (100 ether * (block.timestamp - stakedAt)) / 86400;\r\n            earned = rewardmath / 100;\r\n        }\r\n        if (earned > 0) {\r\n            return [earned];\r\n        }\r\n    }\r\n\r\n    // should never be used inside of transaction because of gas fee\r\n    function balanceOf(address account) public view returns (uint256) {\r\n        uint256 balance = 0;\r\n        uint256 supply = nft.totalSupply();\r\n        for (uint256 i = 1; i <= supply; i++) {\r\n            if (vault[i].owner == account) {\r\n                balance += 1;\r\n            }\r\n        }\r\n        return balance;\r\n    }\r\n\r\n    // should never be used inside of transaction because of gas fee\r\n    function tokensOfOwner(address account)\r\n        public\r\n        view\r\n        returns (uint256[] memory ownerTokens)\r\n    {\r\n        uint256 supply = nft.totalSupply();\r\n        uint256[] memory tmp = new uint256[](supply);\r\n\r\n        uint256 index = 0;\r\n        for (uint256 tokenId = 1; tokenId <= supply; tokenId++) {\r\n            if (vault[tokenId].owner == account) {\r\n                tmp[index] = vault[tokenId].tokenId;\r\n                index += 1;\r\n            }\r\n        }\r\n\r\n        uint256[] memory tokens = new uint256[](index);\r\n        for (uint256 i = 0; i < index; i++) {\r\n            tokens[i] = tmp[i];\r\n        }\r\n\r\n        return tokens;\r\n    }\r\n\r\n    function onKIP17Received(\r\n        address,\r\n        address from,\r\n        uint256,\r\n        bytes calldata\r\n    ) external pure override returns (bytes4) {\r\n        require(from == address(0x0), \"Cannot send nfts to Vault directly\");\r\n        return IKIP17Receiver.onKIP17Received.selector;\r\n    }\r\n}\r\n",
  "sourcePath": "C:\\Users\\th_kr\\OneDrive\\Documents\\Smart_Contracts\\Klaytn\\Staking\\contracts\\test.sol",
  "compiler": {
    "name": "solc",
    "version": "0.8.15+commit.e14f2714.Emscripten.clang"
  },
  "schemaVersion": "3.4.8",
  "updatedAt": "2022-08-11T14:10:46.152Z",
  "devdoc": {
    "kind": "dev",
    "methods": {
      "owner()": {
        "details": "Returns the address of the current owner."
      },
      "renounceOwnership()": {
        "details": "Leaves the contract without owner. It will not be possible to call `onlyOwner` functions anymore. Can only be called by the current owner. NOTE: Renouncing ownership will leave the contract without an owner, thereby removing any functionality that is only available to the owner."
      },
      "transferOwnership(address)": {
        "details": "Transfers ownership of the contract to a new account (`newOwner`). Can only be called by the current owner."
      }
    },
    "version": 1
  },
  "userdoc": {
    "kind": "user",
    "methods": {},
    "version": 1
  }
}