{
  "contractName": "SevenMetadataRequest",
  "abi": [
    {
      "inputs": [],
      "name": "bytecode",
      "outputs": [
        {
          "internalType": "bytes",
          "name": "",
          "type": "bytes"
        }
      ],
      "stateMutability": "view",
      "type": "function"
    },
    {
      "inputs": [],
      "name": "hash",
      "outputs": [
        {
          "internalType": "bytes32",
          "name": "",
          "type": "bytes32"
        }
      ],
      "stateMutability": "view",
      "type": "function"
    },
    {
      "inputs": [
        {
          "internalType": "bytes",
          "name": "_bytecode",
          "type": "bytes"
        }
      ],
      "name": "initialize",
      "outputs": [],
      "stateMutability": "nonpayable",
      "type": "function"
    },
    {
      "inputs": [],
      "name": "initialize",
      "outputs": [],
      "stateMutability": "nonpayable",
      "type": "function"
    }
  ],
  "bytecode": "0x608060405234801561001057600080fd5b506109c9806100206000396000f3fe608060405234801561001057600080fd5b506004361061004c5760003560e01c806309bd5a6014610051578063439fab911461006f5780638129fc1c1461008b578063f094000214610095575b600080fd5b6100596100b3565b604051610066919061024e565b60405180910390f35b610089600480360381019061008491906103c3565b6100b9565b005b61009361012b565b005b61009d61014e565b6040516100aa9190610494565b60405180910390f35b60015481565b60008080546100c7906104e5565b905014610109576040517f08c379a000000000000000000000000000000000000000000000000000000000815260040161010090610599565b60405180910390fd5b8060009081610118919061076f565b50610122816101dc565b60018190555050565b61014c6040518060e0016040528060a681526020016108ee60a691396100b9565b565b6000805461015b906104e5565b80601f0160208091040260200160405190810160405280929190818152602001828054610187906104e5565b80156101d45780601f106101a9576101008083540402835291602001916101d4565b820191906000526020600020905b8154815290600101906020018083116101b757829003601f168201915b505050505081565b60006002826040516101ee919061087d565b602060405180830381855afa15801561020b573d6000803e3d6000fd5b5050506040513d601f19601f8201168201806040525081019061022e91906108c0565b9050919050565b6000819050919050565b61024881610235565b82525050565b6000602082019050610263600083018461023f565b92915050565b6000604051905090565b600080fd5b600080fd5b600080fd5b600080fd5b6000601f19601f8301169050919050565b7f4e487b7100000000000000000000000000000000000000000000000000000000600052604160045260246000fd5b6102d082610287565b810181811067ffffffffffffffff821117156102ef576102ee610298565b5b80604052505050565b6000610302610269565b905061030e82826102c7565b919050565b600067ffffffffffffffff82111561032e5761032d610298565b5b61033782610287565b9050602081019050919050565b82818337600083830152505050565b600061036661036184610313565b6102f8565b90508281526020810184848401111561038257610381610282565b5b61038d848285610344565b509392505050565b600082601f8301126103aa576103a961027d565b5b81356103ba848260208601610353565b91505092915050565b6000602082840312156103d9576103d8610273565b5b600082013567ffffffffffffffff8111156103f7576103f6610278565b5b61040384828501610395565b91505092915050565b600081519050919050565b600082825260208201905092915050565b60005b8381101561044657808201518184015260208101905061042b565b83811115610455576000848401525b50505050565b60006104668261040c565b6104708185610417565b9350610480818560208601610428565b61048981610287565b840191505092915050565b600060208201905081810360008301526104ae818461045b565b905092915050565b7f4e487b7100000000000000000000000000000000000000000000000000000000600052602260045260246000fd5b600060028204905060018216806104fd57607f821691505b6020821081036105105761050f6104b6565b5b50919050565b600082825260208201905092915050565b7f5769746e657452657175657374496e697469616c697a61626c65426173653a2060008201527f63616e6e6f74206368616e67652062797465636f646500000000000000000000602082015250565b6000610583603683610516565b915061058e82610527565b604082019050919050565b600060208201905081810360008301526105b281610576565b9050919050565b60008190508160005260206000209050919050565b60006020601f8301049050919050565b600082821b905092915050565b60006008830261061b7fffffffffffffffffffffffffffffffffffffffffffffffffffffffffffffffff826105de565b61062586836105de565b95508019841693508086168417925050509392505050565b6000819050919050565b6000819050919050565b600061066c6106676106628461063d565b610647565b61063d565b9050919050565b6000819050919050565b61068683610651565b61069a61069282610673565b8484546105eb565b825550505050565b600090565b6106af6106a2565b6106ba81848461067d565b505050565b5b818110156106de576106d36000826106a7565b6001810190506106c0565b5050565b601f821115610723576106f4816105b9565b6106fd846105ce565b8101602085101561070c578190505b610720610718856105ce565b8301826106bf565b50505b505050565b600082821c905092915050565b600061074660001984600802610728565b1980831691505092915050565b600061075f8383610735565b9150826002028217905092915050565b6107788261040c565b67ffffffffffffffff81111561079157610790610298565b5b61079b82546104e5565b6107a68282856106e2565b600060209050601f8311600181146107d957600084156107c7578287015190505b6107d18582610753565b865550610839565b601f1984166107e7866105b9565b60005b8281101561080f578489015182556001820191506020850194506020810190506107ea565b8683101561082c5784890151610828601f891682610735565b8355505b6001600288020188555050505b505050505050565b600081905092915050565b60006108578261040c565b6108618185610841565b9350610871818560208601610428565b80840191505092915050565b6000610889828461084c565b915081905092915050565b61089d81610235565b81146108a857600080fd5b50565b6000815190506108ba81610894565b92915050565b6000602082840312156108d6576108d5610273565b5b60006108e4848285016108ab565b9150509291505056fe0a9701127f0801122968747470733a2f2f736576656e2d646174612e62792d73796c2e636f6d2f6a736f6e2f312e6a736f6e1a508418778218616a617474726962757465738211828218676a74726169745f74797065831875a26a534537454e204d6f6f64f56e5369676e617475726520706f7365f5f482181a818218676576616c75651a090a050808120180100222090a0508081201801002180220002833308094ebdc03a264697066735822122041dd1fe29bdf8dd284903dd380124fa7528730b38bedddccd4065d6e412baba564736f6c634300080f0033",
  "immutableReferences": {},
  "source": "// SPDX-License-Identifier: MIT\n\npragma solidity >=0.7.0 <0.9.0;\n\n// For the Witnet Request Board OVM-compatible (Optimism) \"trustable\" implementation (e.g. BOBA network),\n// replace the next import line with:\n// import \"witnet-solidity-bridge/contracts/impls/trustable/WitnetRequestBoardTrustableBoba.sol\";\nimport \"witnet-solidity-bridge/contracts/impls/trustable/WitnetRequestBoardTrustableDefault.sol\";\nimport \"witnet-solidity-bridge/contracts/requests/WitnetRequestInitializableBase.sol\";\n\n// The bytecode of the SevenMetadata query that will be sent to Witnet\ncontract SevenMetadataRequest is WitnetRequestInitializableBase {\n  function initialize() public {\n    WitnetRequestInitializableBase.initialize(hex\"0a9701127f0801122968747470733a2f2f736576656e2d646174612e62792d73796c2e636f6d2f6a736f6e2f312e6a736f6e1a508418778218616a617474726962757465738211828218676a74726169745f74797065831875a26a534537454e204d6f6f64f56e5369676e617475726520706f7365f5f482181a818218676576616c75651a090a050808120180100222090a0508081201801002180220002833308094ebdc03\");\n  }\n}\n",
  "sourcePath": "C:\\Users\\th_kr\\OneDrive\\Documents\\Smart_Contracts\\Klaytn\\Staking\\contracts\\witnet\\SevenMetadata.sol",
  "compiler": {
    "name": "solc",
    "version": "0.8.15+commit.e14f2714.Emscripten.clang"
  },
  "schemaVersion": "3.4.8",
  "updatedAt": "2022-08-14T09:54:58.577Z",
  "devdoc": {
    "kind": "dev",
    "methods": {},
    "version": 1
  },
  "userdoc": {
    "kind": "user",
    "methods": {
      "bytecode()": {
        "notice": "Contains a well-formed Witnet Data Request, encoded using Protocol Buffers."
      },
      "hash()": {
        "notice": "Returns SHA256 hash of Witnet Data Request as CBOR-encoded bytes."
      }
    },
    "version": 1
  }
}