{
  "contractName": "test",
  "abi": [
    {
      "inputs": [
        {
          "internalType": "contract WitnetRequestBoard",
          "name": "_wrb",
          "type": "address"
        },
        {
          "internalType": "contract KIP17Enumerable",
          "name": "_nft",
          "type": "address"
        },
        {
          "internalType": "contract N2DRewards",
          "name": "_token",
          "type": "address"
        }
      ],
      "stateMutability": "nonpayable",
      "type": "constructor"
    },
    {
      "anonymous": false,
      "inputs": [
        {
          "indexed": false,
          "internalType": "address",
          "name": "owner",
          "type": "address"
        },
        {
          "indexed": false,
          "internalType": "uint256",
          "name": "amount",
          "type": "uint256"
        }
      ],
      "name": "Claimed",
      "type": "event"
    },
    {
      "anonymous": false,
      "inputs": [
        {
          "indexed": false,
          "internalType": "address",
          "name": "owner",
          "type": "address"
        },
        {
          "indexed": false,
          "internalType": "uint256",
          "name": "tokenId",
          "type": "uint256"
        },
        {
          "indexed": false,
          "internalType": "uint256",
          "name": "value",
          "type": "uint256"
        }
      ],
      "name": "NFTStaked",
      "type": "event"
    },
    {
      "anonymous": false,
      "inputs": [
        {
          "indexed": false,
          "internalType": "address",
          "name": "owner",
          "type": "address"
        },
        {
          "indexed": false,
          "internalType": "uint256",
          "name": "tokenId",
          "type": "uint256"
        },
        {
          "indexed": false,
          "internalType": "uint256",
          "name": "value",
          "type": "uint256"
        }
      ],
      "name": "NFTUnstaked",
      "type": "event"
    },
    {
      "anonymous": false,
      "inputs": [
        {
          "indexed": true,
          "internalType": "address",
          "name": "previousOwner",
          "type": "address"
        },
        {
          "indexed": true,
          "internalType": "address",
          "name": "newOwner",
          "type": "address"
        }
      ],
      "name": "OwnershipTransferred",
      "type": "event"
    },
    {
      "inputs": [],
      "name": "NFTContract",
      "outputs": [
        {
          "internalType": "contract KIP17Enumerable",
          "name": "",
          "type": "address"
        }
      ],
      "stateMutability": "view",
      "type": "function",
      "constant": true
    },
    {
      "inputs": [
        {
          "internalType": "uint256",
          "name": "",
          "type": "uint256"
        }
      ],
      "name": "metadata",
      "outputs": [
        {
          "internalType": "uint256",
          "name": "mood",
          "type": "uint256"
        },
        {
          "internalType": "uint256",
          "name": "pose",
          "type": "uint256"
        }
      ],
      "stateMutability": "view",
      "type": "function",
      "constant": true
    },
    {
      "inputs": [],
      "name": "owner",
      "outputs": [
        {
          "internalType": "address",
          "name": "",
          "type": "address"
        }
      ],
      "stateMutability": "view",
      "type": "function",
      "constant": true
    },
    {
      "inputs": [],
      "name": "renounceOwnership",
      "outputs": [],
      "stateMutability": "nonpayable",
      "type": "function"
    },
    {
      "inputs": [],
      "name": "requestId",
      "outputs": [
        {
          "internalType": "uint256",
          "name": "",
          "type": "uint256"
        }
      ],
      "stateMutability": "view",
      "type": "function",
      "constant": true
    },
    {
      "inputs": [],
      "name": "totalStaked",
      "outputs": [
        {
          "internalType": "uint256",
          "name": "",
          "type": "uint256"
        }
      ],
      "stateMutability": "view",
      "type": "function",
      "constant": true
    },
    {
      "inputs": [
        {
          "internalType": "address",
          "name": "newOwner",
          "type": "address"
        }
      ],
      "name": "transferOwnership",
      "outputs": [],
      "stateMutability": "nonpayable",
      "type": "function"
    },
    {
      "inputs": [
        {
          "internalType": "uint256",
          "name": "",
          "type": "uint256"
        }
      ],
      "name": "vault",
      "outputs": [
        {
          "internalType": "uint24",
          "name": "tokenId",
          "type": "uint24"
        },
        {
          "internalType": "uint48",
          "name": "timestamp",
          "type": "uint48"
        },
        {
          "internalType": "address",
          "name": "owner",
          "type": "address"
        }
      ],
      "stateMutability": "view",
      "type": "function",
      "constant": true
    },
    {
      "inputs": [],
      "name": "witnet",
      "outputs": [
        {
          "internalType": "contract WitnetRequestBoard",
          "name": "",
          "type": "address"
        }
      ],
      "stateMutability": "view",
      "type": "function",
      "constant": true
    },
    {
      "inputs": [
        {
          "internalType": "string",
          "name": "numString",
          "type": "string"
        }
      ],
      "name": "st2num",
      "outputs": [
        {
          "internalType": "uint256",
          "name": "",
          "type": "uint256"
        }
      ],
      "stateMutability": "pure",
      "type": "function",
      "constant": true
    },
    {
      "inputs": [
        {
          "internalType": "uint256",
          "name": "tokenId",
          "type": "uint256"
        }
      ],
      "name": "getPoseMood",
      "outputs": [
        {
          "components": [
            {
              "internalType": "uint256",
              "name": "mood",
              "type": "uint256"
            },
            {
              "internalType": "uint256",
              "name": "pose",
              "type": "uint256"
            }
          ],
          "internalType": "struct test.Metadata",
          "name": "",
          "type": "tuple"
        }
      ],
      "stateMutability": "payable",
      "type": "function",
      "payable": true
    },
    {
      "inputs": [],
      "name": "completeUpdate",
      "outputs": [
        {
          "components": [
            {
              "internalType": "uint256",
              "name": "mood",
              "type": "uint256"
            },
            {
              "internalType": "uint256",
              "name": "pose",
              "type": "uint256"
            }
          ],
          "internalType": "struct test.Metadata",
          "name": "",
          "type": "tuple"
        }
      ],
      "stateMutability": "nonpayable",
      "type": "function"
    },
    {
      "inputs": [
        {
          "internalType": "uint256[]",
          "name": "tokenIds",
          "type": "uint256[]"
        }
      ],
      "name": "stake",
      "outputs": [],
      "stateMutability": "nonpayable",
      "type": "function"
    },
    {
      "inputs": [
        {
          "internalType": "uint256[]",
          "name": "tokenIds",
          "type": "uint256[]"
        }
      ],
      "name": "claim",
      "outputs": [],
      "stateMutability": "nonpayable",
      "type": "function"
    },
    {
      "inputs": [
        {
          "internalType": "address",
          "name": "account",
          "type": "address"
        },
        {
          "internalType": "uint256[]",
          "name": "tokenIds",
          "type": "uint256[]"
        }
      ],
      "name": "claimForAddress",
      "outputs": [],
      "stateMutability": "nonpayable",
      "type": "function"
    },
    {
      "inputs": [
        {
          "internalType": "uint256[]",
          "name": "tokenIds",
          "type": "uint256[]"
        }
      ],
      "name": "unstake",
      "outputs": [],
      "stateMutability": "nonpayable",
      "type": "function"
    },
    {
      "inputs": [
        {
          "internalType": "address",
          "name": "account",
          "type": "address"
        },
        {
          "internalType": "uint256[]",
          "name": "tokenIds",
          "type": "uint256[]"
        }
      ],
      "name": "earningInfo",
      "outputs": [
        {
          "internalType": "uint256[1]",
          "name": "info",
          "type": "uint256[1]"
        }
      ],
      "stateMutability": "view",
      "type": "function",
      "constant": true
    },
    {
      "inputs": [
        {
          "internalType": "address",
          "name": "account",
          "type": "address"
        }
      ],
      "name": "balanceOf",
      "outputs": [
        {
          "internalType": "uint256",
          "name": "",
          "type": "uint256"
        }
      ],
      "stateMutability": "view",
      "type": "function",
      "constant": true
    },
    {
      "inputs": [
        {
          "internalType": "address",
          "name": "account",
          "type": "address"
        }
      ],
      "name": "tokensOfOwner",
      "outputs": [
        {
          "internalType": "uint256[]",
          "name": "ownerTokens",
          "type": "uint256[]"
        }
      ],
      "stateMutability": "view",
      "type": "function",
      "constant": true
    },
    {
      "inputs": [
        {
          "internalType": "address",
          "name": "",
          "type": "address"
        },
        {
          "internalType": "address",
          "name": "from",
          "type": "address"
        },
        {
          "internalType": "uint256",
          "name": "",
          "type": "uint256"
        },
        {
          "internalType": "bytes",
          "name": "",
          "type": "bytes"
        }
      ],
      "name": "onKIP17Received",
      "outputs": [
        {
          "internalType": "bytes4",
          "name": "",
          "type": "bytes4"
        }
      ],
      "stateMutability": "pure",
      "type": "function",
      "constant": true
    }
  ],
  "bytecode": "0x60a06040523480156200001157600080fd5b5060405162004faa38038062004faa8339818101604052810190620000379190620003b3565b82620000586200004c620001cb60201b60201c565b620001d360201b60201c565b600073ffffffffffffffffffffffffffffffffffffffff168173ffffffffffffffffffffffffffffffffffffffff1603620000ca576040517f08c379a0000000000000000000000000000000000000000000000000000000008152600401620000c19062000470565b60405180910390fd5b8073ffffffffffffffffffffffffffffffffffffffff1660808173ffffffffffffffffffffffffffffffffffffffff16815250505081600460006101000a81548173ffffffffffffffffffffffffffffffffffffffff021916908373ffffffffffffffffffffffffffffffffffffffff16021790555080600560006101000a81548173ffffffffffffffffffffffffffffffffffffffff021916908373ffffffffffffffffffffffffffffffffffffffff16021790555081600260006101000a81548173ffffffffffffffffffffffffffffffffffffffff021916908373ffffffffffffffffffffffffffffffffffffffff16021790555050505062000492565b600033905090565b60008060009054906101000a900473ffffffffffffffffffffffffffffffffffffffff169050816000806101000a81548173ffffffffffffffffffffffffffffffffffffffff021916908373ffffffffffffffffffffffffffffffffffffffff1602179055508173ffffffffffffffffffffffffffffffffffffffff168173ffffffffffffffffffffffffffffffffffffffff167f8be0079c531659141344cd1fd0a4f28419497f9722a3daafe3b4186f6b6457e060405160405180910390a35050565b600080fd5b600073ffffffffffffffffffffffffffffffffffffffff82169050919050565b6000620002c9826200029c565b9050919050565b6000620002dd82620002bc565b9050919050565b620002ef81620002d0565b8114620002fb57600080fd5b50565b6000815190506200030f81620002e4565b92915050565b600062000322826200029c565b9050919050565b6000620003368262000315565b9050919050565b620003488162000329565b81146200035457600080fd5b50565b60008151905062000368816200033d565b92915050565b60006200037b8262000315565b9050919050565b6200038d816200036e565b81146200039957600080fd5b50565b600081519050620003ad8162000382565b92915050565b600080600060608486031215620003cf57620003ce62000297565b5b6000620003df86828701620002fe565b9350506020620003f28682870162000357565b925050604062000405868287016200039c565b9150509250925092565b600082825260208201905092915050565b7f5573696e675769746e65743a207a65726f206164647265737300000000000000600082015250565b6000620004586019836200040f565b9150620004658262000420565b602082019050919050565b600060208201905081810360008301526200048b8162000449565b9050919050565b608051614ad2620004d860003960008181610949015281816114b20152818161155901528181611b0601528181611bc801528181611c8e015261221e0152614ad26000f3fe608060405260043610620001395760003560e01c8063817b1cd211620000af578063ce9878a1116200006d578063ce9878a1146200046c578063e3684e3914620004a2578063e449f34114620004e7578063f2fde38b1462000515578063f9881eb614620005435762000139565b8063817b1cd2146200035457806381a36fb614620003845780638462151c14620003ca5780638da5cb5b146200040e578063c36be357146200043e5762000139565b80636ba4c13811620000fd5780636ba4c138146200024057806370a08231146200026e578063715018a614620002b257806379cd905514620002cc5780637e75dd6014620003105762000139565b80626d6cae146200013e5780630fbf0a93146200016e57806331c2273b146200019c57806346d1d21a14620001cc5780636745782b14620001fc575b600080fd5b3480156200014b57600080fd5b506200015662000573565b604051620001659190620023c4565b60405180910390f35b3480156200017b57600080fd5b506200019a600480360381019062000194919062002463565b62000579565b005b348015620001a957600080fd5b50620001b462000921565b604051620001c3919062002543565b60405180910390f35b348015620001d957600080fd5b50620001e462000947565b604051620001f3919062002599565b60405180910390f35b3480156200020957600080fd5b506200022860048036038101906200022291906200268b565b6200096b565b6040516200023791906200275e565b60405180910390f35b3480156200024d57600080fd5b506200026c600480360381019062000266919062002463565b620009f1565b005b3480156200027b57600080fd5b506200029a60048036038101906200029491906200277b565b62000a04565b604051620002a99190620023c4565b60405180910390f35b348015620002bf57600080fd5b50620002ca62000b4f565b005b348015620002d957600080fd5b50620002f86004803603810190620002f291906200290a565b62000be0565b604051620003079190620023c4565b60405180910390f35b3480156200031d57600080fd5b506200033c60048036038101906200033691906200295b565b62000cad565b6040516200034b919062002a80565b60405180910390f35b3480156200036157600080fd5b506200036c62000ec9565b6040516200037b9190620023c4565b60405180910390f35b3480156200039157600080fd5b50620003b06004803603810190620003aa919062002a9d565b62000ecf565b604051620003c19392919062002b23565b60405180910390f35b348015620003d757600080fd5b50620003f66004803603810190620003f091906200277b565b62000f3a565b60405162000405919062002c03565b60405180910390f35b3480156200041b57600080fd5b5062000426620011d5565b60405162000435919062002c27565b60405180910390f35b3480156200044b57600080fd5b506200046a60048036038101906200046491906200295b565b620011fe565b005b6200048a600480360381019062000484919062002a9d565b62001212565b60405162000499919062002c77565b60405180910390f35b348015620004af57600080fd5b50620004ce6004803603810190620004c8919062002a9d565b6200130b565b604051620004de92919062002c94565b60405180910390f35b348015620004f457600080fd5b506200051360048036038101906200050d919062002463565b6200132f565b005b3480156200052257600080fd5b506200054160048036038101906200053b91906200277b565b62001342565b005b3480156200055057600080fd5b506200055b62001445565b6040516200056a919062002c77565b60405180910390f35b60035481565b6000828290506001600082825462000592919062002cf0565b9250508190555060005b838390508110156200091b57838382818110620005be57620005bd62002d4d565b5b9050602002013591503373ffffffffffffffffffffffffffffffffffffffff16600460009054906101000a900473ffffffffffffffffffffffffffffffffffffffff1673ffffffffffffffffffffffffffffffffffffffff16636352211e846040518263ffffffff1660e01b81526004016200063b9190620023c4565b602060405180830381865afa15801562000659573d6000803e3d6000fd5b505050506040513d601f19601f820116820180604052508101906200067f919062002d93565b73ffffffffffffffffffffffffffffffffffffffff1614620006d8576040517f08c379a0000000000000000000000000000000000000000000000000000000008152600401620006cf9062002e26565b60405180910390fd5b60006006600084815260200190815260200160002060000160009054906101000a900462ffffff1662ffffff161462000748576040517f08c379a00000000000000000000000000000000000000000000000000000000081526004016200073f9062002e98565b60405180910390fd5b600460009054906101000a900473ffffffffffffffffffffffffffffffffffffffff1673ffffffffffffffffffffffffffffffffffffffff166323b872dd3330856040518463ffffffff1660e01b8152600401620007a99392919062002eba565b600060405180830381600087803b158015620007c457600080fd5b505af1158015620007d9573d6000803e3d6000fd5b505050507f36b3725f1783bad4ff05b7f4c077c3aa68eeb23a4d054ba189db4d01ac278d39338342604051620008129392919062002ef7565b60405180910390a160405180606001604052808362ffffff1681526020014265ffffffffffff1681526020013373ffffffffffffffffffffffffffffffffffffffff168152506006600084815260200190815260200160002060008201518160000160006101000a81548162ffffff021916908362ffffff16021790555060208201518160000160036101000a81548165ffffffffffff021916908365ffffffffffff16021790555060408201518160000160096101000a81548173ffffffffffffffffffffffffffffffffffffffff021916908373ffffffffffffffffffffffffffffffffffffffff1602179055509050508080620009129062002f34565b9150506200059c565b50505050565b600260009054906101000a900473ffffffffffffffffffffffffffffffffffffffff1681565b7f000000000000000000000000000000000000000000000000000000000000000081565b60008073ffffffffffffffffffffffffffffffffffffffff168573ffffffffffffffffffffffffffffffffffffffff1614620009de576040517f08c379a0000000000000000000000000000000000000000000000000000000008152600401620009d59062002ff7565b60405180910390fd5b636745782b60e01b905095945050505050565b62000a0033838360006200161e565b5050565b600080600090506000600460009054906101000a900473ffffffffffffffffffffffffffffffffffffffff1673ffffffffffffffffffffffffffffffffffffffff166318160ddd6040518163ffffffff1660e01b8152600401602060405180830381865afa15801562000a7b573d6000803e3d6000fd5b505050506040513d601f19601f8201168201806040525081019062000aa1919062003030565b90506000600190505b81811162000b44578473ffffffffffffffffffffffffffffffffffffffff166006600083815260200190815260200160002060000160099054906101000a900473ffffffffffffffffffffffffffffffffffffffff1673ffffffffffffffffffffffffffffffffffffffff160362000b2e5760018362000b2b919062002cf0565b92505b808062000b3b9062002f34565b91505062000aaa565b508192505050919050565b62000b59620019e3565b73ffffffffffffffffffffffffffffffffffffffff1662000b79620011d5565b73ffffffffffffffffffffffffffffffffffffffff161462000bd2576040517f08c379a000000000000000000000000000000000000000000000000000000000815260040162000bc990620030b2565b60405180910390fd5b62000bde6000620019eb565b565b60008060009050600083905060005b815181101562000ca257600081835162000c0a9190620030d4565b9050600083838151811062000c245762000c2362002d4d565b5b602001015160f81c60f81b905060008160f81c9050600060308260ff1662000c4d9190620030d4565b905060018462000c5e9190620030d4565b600a62000c6c919062003263565b8162000c799190620032b4565b8762000c86919062002cf0565b965050505050808062000c999062002f34565b91505062000bef565b508192505050919050565b62000cb7620022c0565b600080600090506000805b8686905081101562000e995786868281811062000ce45762000ce362002d4d565b5b9050602002013593506000600660008681526020019081526020016000206040518060600160405290816000820160009054906101000a900462ffffff1662ffffff1662ffffff1681526020016000820160039054906101000a900465ffffffffffff1665ffffffffffff1665ffffffffffff1681526020016000820160099054906101000a900473ffffffffffffffffffffffffffffffffffffffff1673ffffffffffffffffffffffffffffffffffffffff1673ffffffffffffffffffffffffffffffffffffffff168152505090508873ffffffffffffffffffffffffffffffffffffffff16816040015173ffffffffffffffffffffffffffffffffffffffff161462000e29576040517f08c379a000000000000000000000000000000000000000000000000000000000815260040162000e209062003365565b60405180910390fd5b6000816020015165ffffffffffff16905062015180814262000e4c9190620030d4565b68056bc75e2d6310000062000e629190620032b4565b62000e6e9190620033b6565b935060648462000e7f9190620033b6565b94505050808062000e909062002f34565b91505062000cc2565b50600082111562000ebe57604051806020016040528083815250935050505062000ec2565b5050505b9392505050565b60015481565b60066020528060005260406000206000915090508060000160009054906101000a900462ffffff16908060000160039054906101000a900465ffffffffffff16908060000160099054906101000a900473ffffffffffffffffffffffffffffffffffffffff16905083565b60606000600460009054906101000a900473ffffffffffffffffffffffffffffffffffffffff1673ffffffffffffffffffffffffffffffffffffffff166318160ddd6040518163ffffffff1660e01b8152600401602060405180830381865afa15801562000fac573d6000803e3d6000fd5b505050506040513d601f19601f8201168201806040525081019062000fd2919062003030565b905060008167ffffffffffffffff81111562000ff35762000ff2620027c3565b5b604051908082528060200260200182016040528015620010225781602001602082028036833780820191505090505b509050600080600190505b83811162001114578573ffffffffffffffffffffffffffffffffffffffff166006600083815260200190815260200160002060000160099054906101000a900473ffffffffffffffffffffffffffffffffffffffff1673ffffffffffffffffffffffffffffffffffffffff1603620010fe576006600082815260200190815260200160002060000160009054906101000a900462ffffff1662ffffff16838381518110620010e057620010df62002d4d565b5b602002602001018181525050600182620010fb919062002cf0565b91505b80806200110b9062002f34565b9150506200102d565b5060008167ffffffffffffffff811115620011345762001133620027c3565b5b604051908082528060200260200182016040528015620011635781602001602082028036833780820191505090505b50905060005b82811015620011c85783818151811062001188576200118762002d4d565b5b6020026020010151828281518110620011a657620011a562002d4d565b5b6020026020010181815250508080620011bf9062002f34565b91505062001169565b5080945050505050919050565b60008060009054906101000a900473ffffffffffffffffffffffffffffffffffffffff16905090565b6200120d83838360006200161e565b505050565b6200121c620022e2565b600060076000848152602001908152602001600020604051806040016040529081600082015481526020016001820154815250509050600081600001511480156200126b575060008160200151145b15620012d15760006040516200128190620022fc565b6200128c90620035d0565b604051809103906000f080158015620012a9573d6000803e3d6000fd5b5090506000620012b98262001aaf565b50905080600381905550620012cd62001445565b5050505b6007600084815260200190815260200160002060405180604001604052908160008201548152602001600182015481525050915050919050565b60076020528060005260406000206000915090508060000154908060010154905082565b6200133e33838360016200161e565b5050565b6200134c620019e3565b73ffffffffffffffffffffffffffffffffffffffff166200136c620011d5565b73ffffffffffffffffffffffffffffffffffffffff1614620013c5576040517f08c379a0000000000000000000000000000000000000000000000000000000008152600401620013bc90620030b2565b60405180910390fd5b600073ffffffffffffffffffffffffffffffffffffffff168173ffffffffffffffffffffffffffffffffffffffff160362001437576040517f08c379a00000000000000000000000000000000000000000000000000000000081526004016200142e9062003668565b60405180910390fd5b6200144281620019eb565b50565b6200144f620022e2565b6003546200145d8162001bad565b6200149f576040517f08c379a00000000000000000000000000000000000000000000000000000000081526004016200149690620036da565b60405180910390fd5b6000620014ae60035462001c82565b90507f000000000000000000000000000000000000000000000000000000000000000073ffffffffffffffffffffffffffffffffffffffff1663a8604c1a826040518263ffffffff1660e01b81526004016200150b919062003927565b602060405180830381865afa15801562001529573d6000803e3d6000fd5b505050506040513d601f19601f820116820180604052508101906200154f91906200397c565b15620016185760007f000000000000000000000000000000000000000000000000000000000000000073ffffffffffffffffffffffffffffffffffffffff1663c87d969e836040518263ffffffff1660e01b8152600401620015b2919062003927565b600060405180830381865afa158015620015d0573d6000803e3d6000fd5b505050506040513d6000823e3d601f19601f82011682018060405250810190620015fb919062003b23565b905060006200160a8262001d37565b90508094505050506200161a565b505b5090565b600080600090506000805b86869050811015620018eb578686828181106200164b576200164a62002d4d565b5b9050602002013593506000600660008681526020019081526020016000206040518060600160405290816000820160009054906101000a900462ffffff1662ffffff1662ffffff1681526020016000820160039054906101000a900465ffffffffffff1665ffffffffffff1665ffffffffffff1681526020016000820160099054906101000a900473ffffffffffffffffffffffffffffffffffffffff1673ffffffffffffffffffffffffffffffffffffffff1673ffffffffffffffffffffffffffffffffffffffff168152505090508873ffffffffffffffffffffffffffffffffffffffff16816040015173ffffffffffffffffffffffffffffffffffffffff161462001790576040517f08c379a0000000000000000000000000000000000000000000000000000000008152600401620017879062003365565b60405180910390fd5b6000816020015165ffffffffffff169050620151808142620017b39190620030d4565b68056bc75e2d63100000620017c99190620032b4565b620017d59190620033b6565b9350606484620017e69190620033b6565b945060405180606001604052808762ffffff1681526020014265ffffffffffff1681526020018b73ffffffffffffffffffffffffffffffffffffffff168152506006600088815260200190815260200160002060008201518160000160006101000a81548162ffffff021916908362ffffff16021790555060208201518160000160036101000a81548165ffffffffffff021916908365ffffffffffff16021790555060408201518160000160096101000a81548173ffffffffffffffffffffffffffffffffffffffff021916908373ffffffffffffffffffffffffffffffffffffffff16021790555090505050508080620018e29062002f34565b91505062001629565b5060008211156200198a57600560009054906101000a900473ffffffffffffffffffffffffffffffffffffffff1673ffffffffffffffffffffffffffffffffffffffff166340c10f1988846040518363ffffffff1660e01b81526004016200195592919062003b74565b600060405180830381600087803b1580156200197057600080fd5b505af115801562001985573d6000803e3d6000fd5b505050505b83156200199f576200199e87878762001f34565b5b7fd8138f8a3f377c5259ca548e70e4c2de94f129f5a11036a15b69513cba2b426a8783604051620019d292919062003b74565b60405180910390a150505050505050565b600033905090565b60008060009054906101000a900473ffffffffffffffffffffffffffffffffffffffff169050816000806101000a81548173ffffffffffffffffffffffffffffffffffffffff021916908373ffffffffffffffffffffffffffffffffffffffff1602179055508173ffffffffffffffffffffffffffffffffffffffff168173ffffffffffffffffffffffffffffffffffffffff167f8be0079c531659141344cd1fd0a4f28419497f9722a3daafe3b4186f6b6457e060405160405180910390a35050565b60008062001abc6200221a565b90503481111562001b04576040517f08c379a000000000000000000000000000000000000000000000000000000000815260040162001afb9062003bf1565b60405180910390fd5b7f000000000000000000000000000000000000000000000000000000000000000073ffffffffffffffffffffffffffffffffffffffff1663b281a7bd82856040518363ffffffff1660e01b815260040162001b60919062003c38565b60206040518083038185885af115801562001b7f573d6000803e3d6000fd5b50505050506040513d601f19601f8201168201806040525081019062001ba6919062003030565b9150915091565b60006002600381111562001bc65762001bc562003c55565b5b7f000000000000000000000000000000000000000000000000000000000000000073ffffffffffffffffffffffffffffffffffffffff16636f07abcc846040518263ffffffff1660e01b815260040162001c219190620023c4565b602060405180830381865afa15801562001c3f573d6000803e3d6000fd5b505050506040513d601f19601f8201168201806040525081019062001c65919062003cac565b600381111562001c7a5762001c7962003c55565b5b149050919050565b62001c8c6200230a565b7f000000000000000000000000000000000000000000000000000000000000000073ffffffffffffffffffffffffffffffffffffffff1663d4da69ac836040518263ffffffff1660e01b815260040162001ce79190620023c4565b600060405180830381865afa15801562001d05573d6000803e3d6000fd5b505050506040513d6000823e3d601f19601f8201168201806040525081019062001d30919062003fef565b9050919050565b62001d41620022e2565b60008260008151811062001d5a5762001d5962002d4d565b5b6020026020010151905060008360018151811062001d7d5762001d7c62002d4d565b5b602002602001015190506000600167ffffffffffffffff81111562001da75762001da6620027c3565b5b6040519080825280601f01601f19166020018201604052801562001dda5781602001600182028036833780820191505090505b5090506000600167ffffffffffffffff81111562001dfd5762001dfc620027c3565b5b6040519080825280601f01601f19166020018201604052801562001e305781602001600182028036833780820191505090505b50905083600b8151811062001e4a5762001e4962002d4d565b5b602001015160f81c60f81b8260008151811062001e6c5762001e6b62002d4d565b5b60200101907effffffffffffffffffffffffffffffffffffffffffffffffffffffffffffff1916908160001a90535082600f8151811062001eb25762001eb162002d4d565b5b602001015160f81c60f81b8160008151811062001ed45762001ed362002d4d565b5b60200101907effffffffffffffffffffffffffffffffffffffffffffffffffffffffffffff1916908160001a90535062001f0e8262000be0565b85600001818152505062001f228162000be0565b85602001818152505050505050919050565b6000828290506001600082825462001f4d9190620030d4565b9250508190555060005b83839050811015620022135783838281811062001f795762001f7862002d4d565b5b9050602002013591506000600660008481526020019081526020016000206040518060600160405290816000820160009054906101000a900462ffffff1662ffffff1662ffffff1681526020016000820160039054906101000a900465ffffffffffff1665ffffffffffff1665ffffffffffff1681526020016000820160099054906101000a900473ffffffffffffffffffffffffffffffffffffffff1673ffffffffffffffffffffffffffffffffffffffff1673ffffffffffffffffffffffffffffffffffffffff168152505090503373ffffffffffffffffffffffffffffffffffffffff16816040015173ffffffffffffffffffffffffffffffffffffffff1614620020be576040517f08c379a0000000000000000000000000000000000000000000000000000000008152600401620020b59062003365565b60405180910390fd5b60066000848152602001908152602001600020600080820160006101000a81549062ffffff02191690556000820160036101000a81549065ffffffffffff02191690556000820160096101000a81549073ffffffffffffffffffffffffffffffffffffffff021916905550507fc486b9458a8637650d84d262414833a5a457bc91ae86b7da110386c8c3fa255b8684426040516200215f9392919062002ef7565b60405180910390a1600460009054906101000a900473ffffffffffffffffffffffffffffffffffffffff1673ffffffffffffffffffffffffffffffffffffffff166323b872dd3088866040518463ffffffff1660e01b8152600401620021c89392919062002eba565b600060405180830381600087803b158015620021e357600080fd5b505af1158015620021f8573d6000803e3d6000fd5b505050505080806200220a9062002f34565b91505062001f57565b5050505050565b60007f000000000000000000000000000000000000000000000000000000000000000073ffffffffffffffffffffffffffffffffffffffff1663d2e875613a6040518263ffffffff1660e01b8152600401620022779190620023c4565b602060405180830381865afa15801562002295573d6000803e3d6000fd5b505050506040513d601f19601f82011682018060405250810190620022bb919062003030565b905090565b6040518060200160405280600190602082028036833780820191505090505090565b604051806040016040528060008152602001600081525090565b610a5c806200404183390190565b6040518060400160405280600015158152602001620023286200232e565b81525090565b6040518060c001604052806200234362002389565b8152602001600060ff168152602001600060ff168152602001600060ff168152602001600067ffffffffffffffff168152602001600067ffffffffffffffff1681525090565b604051806040016040528060608152602001600063ffffffff1681525090565b6000819050919050565b620023be81620023a9565b82525050565b6000602082019050620023db6000830184620023b3565b92915050565b6000604051905090565b600080fd5b600080fd5b600080fd5b600080fd5b600080fd5b60008083601f8401126200241d576200241c620023f5565b5b8235905067ffffffffffffffff8111156200243d576200243c620023fa565b5b6020830191508360208202830111156200245c576200245b620023ff565b5b9250929050565b600080602083850312156200247d576200247c620023eb565b5b600083013567ffffffffffffffff8111156200249e576200249d620023f0565b5b620024ac8582860162002404565b92509250509250929050565b600073ffffffffffffffffffffffffffffffffffffffff82169050919050565b6000819050919050565b600062002503620024fd620024f784620024b8565b620024d8565b620024b8565b9050919050565b60006200251782620024e2565b9050919050565b60006200252b826200250a565b9050919050565b6200253d816200251e565b82525050565b60006020820190506200255a600083018462002532565b92915050565b60006200256d82620024e2565b9050919050565b6000620025818262002560565b9050919050565b620025938162002574565b82525050565b6000602082019050620025b0600083018462002588565b92915050565b6000620025c382620024b8565b9050919050565b620025d581620025b6565b8114620025e157600080fd5b50565b600081359050620025f581620025ca565b92915050565b6200260681620023a9565b81146200261257600080fd5b50565b6000813590506200262681620025fb565b92915050565b60008083601f840112620026455762002644620023f5565b5b8235905067ffffffffffffffff811115620026655762002664620023fa565b5b602083019150836001820283011115620026845762002683620023ff565b5b9250929050565b600080600080600060808688031215620026aa57620026a9620023eb565b5b6000620026ba88828901620025e4565b9550506020620026cd88828901620025e4565b9450506040620026e08882890162002615565b935050606086013567ffffffffffffffff811115620027045762002703620023f0565b5b62002712888289016200262c565b92509250509295509295909350565b60007fffffffff0000000000000000000000000000000000000000000000000000000082169050919050565b620027588162002721565b82525050565b60006020820190506200277560008301846200274d565b92915050565b600060208284031215620027945762002793620023eb565b5b6000620027a484828501620025e4565b91505092915050565b600080fd5b6000601f19601f8301169050919050565b7f4e487b7100000000000000000000000000000000000000000000000000000000600052604160045260246000fd5b620027fd82620027b2565b810181811067ffffffffffffffff821117156200281f576200281e620027c3565b5b80604052505050565b600062002834620023e1565b9050620028428282620027f2565b919050565b600067ffffffffffffffff821115620028655762002864620027c3565b5b6200287082620027b2565b9050602081019050919050565b82818337600083830152505050565b6000620028a36200289d8462002847565b62002828565b905082815260208101848484011115620028c257620028c1620027ad565b5b620028cf8482856200287d565b509392505050565b600082601f830112620028ef57620028ee620023f5565b5b8135620029018482602086016200288c565b91505092915050565b600060208284031215620029235762002922620023eb565b5b600082013567ffffffffffffffff811115620029445762002943620023f0565b5b6200295284828501620028d7565b91505092915050565b600080600060408486031215620029775762002976620023eb565b5b60006200298786828701620025e4565b935050602084013567ffffffffffffffff811115620029ab57620029aa620023f0565b5b620029b98682870162002404565b92509250509250925092565b600060019050919050565b600081905092915050565b6000819050919050565b620029f081620023a9565b82525050565b600062002a048383620029e5565b60208301905092915050565b6000602082019050919050565b62002a2881620029c5565b62002a348184620029d0565b925062002a4182620029db565b8060005b8381101562002a7857815162002a5c8782620029f6565b965062002a698362002a10565b92505060018101905062002a45565b505050505050565b600060208201905062002a97600083018462002a1d565b92915050565b60006020828403121562002ab65762002ab5620023eb565b5b600062002ac68482850162002615565b91505092915050565b600062ffffff82169050919050565b62002ae98162002acf565b82525050565b600065ffffffffffff82169050919050565b62002b0c8162002aef565b82525050565b62002b1d81620025b6565b82525050565b600060608201905062002b3a600083018662002ade565b62002b49602083018562002b01565b62002b58604083018462002b12565b949350505050565b600081519050919050565b600082825260208201905092915050565b6000819050602082019050919050565b6000602082019050919050565b600062002ba68262002b60565b62002bb2818562002b6b565b935062002bbf8362002b7c565b8060005b8381101562002bf657815162002bda8882620029f6565b975062002be78362002b8c565b92505060018101905062002bc3565b5085935050505092915050565b6000602082019050818103600083015262002c1f818462002b99565b905092915050565b600060208201905062002c3e600083018462002b12565b92915050565b60408201600082015162002c5c6000850182620029e5565b50602082015162002c716020850182620029e5565b50505050565b600060408201905062002c8e600083018462002c44565b92915050565b600060408201905062002cab6000830185620023b3565b62002cba6020830184620023b3565b9392505050565b7f4e487b7100000000000000000000000000000000000000000000000000000000600052601160045260246000fd5b600062002cfd82620023a9565b915062002d0a83620023a9565b9250827fffffffffffffffffffffffffffffffffffffffffffffffffffffffffffffffff0382111562002d425762002d4162002cc1565b5b828201905092915050565b7f4e487b7100000000000000000000000000000000000000000000000000000000600052603260045260246000fd5b60008151905062002d8d81620025ca565b92915050565b60006020828403121562002dac5762002dab620023eb565b5b600062002dbc8482850162002d7c565b91505092915050565b600082825260208201905092915050565b7f536537656e3a2054686973206973206e6f7420796f757220746f6b656e2e0000600082015250565b600062002e0e601e8362002dc5565b915062002e1b8262002dd6565b602082019050919050565b6000602082019050818103600083015262002e418162002dff565b9050919050565b7f536537656e3a20546f6b656e20616c7265616479207374616b65640000000000600082015250565b600062002e80601b8362002dc5565b915062002e8d8262002e48565b602082019050919050565b6000602082019050818103600083015262002eb38162002e71565b9050919050565b600060608201905062002ed1600083018662002b12565b62002ee0602083018562002b12565b62002eef6040830184620023b3565b949350505050565b600060608201905062002f0e600083018662002b12565b62002f1d6020830185620023b3565b62002f2c6040830184620023b3565b949350505050565b600062002f4182620023a9565b91507fffffffffffffffffffffffffffffffffffffffffffffffffffffffffffffffff820362002f765762002f7562002cc1565b5b600182019050919050565b7f43616e6e6f742073656e64206e66747320746f205661756c742064697265637460008201527f6c79000000000000000000000000000000000000000000000000000000000000602082015250565b600062002fdf60228362002dc5565b915062002fec8262002f81565b604082019050919050565b60006020820190508181036000830152620030128162002fd0565b9050919050565b6000815190506200302a81620025fb565b92915050565b600060208284031215620030495762003048620023eb565b5b6000620030598482850162003019565b91505092915050565b7f4f776e61626c653a2063616c6c6572206973206e6f7420746865206f776e6572600082015250565b60006200309a60208362002dc5565b9150620030a78262003062565b602082019050919050565b60006020820190508181036000830152620030cd816200308b565b9050919050565b6000620030e182620023a9565b9150620030ee83620023a9565b92508282101562003104576200310362002cc1565b5b828203905092915050565b60008160011c9050919050565b6000808291508390505b60018511156200316e5780860481111562003146576200314562002cc1565b5b6001851615620031565780820291505b808102905062003166856200310f565b945062003126565b94509492505050565b6000826200318957600190506200325c565b816200319957600090506200325c565b8160018114620031b25760028114620031bd57620031f3565b60019150506200325c565b60ff841115620031d257620031d162002cc1565b5b8360020a915084821115620031ec57620031eb62002cc1565b5b506200325c565b5060208310610133831016604e8410600b84101617156200322d5782820a90508381111562003227576200322662002cc1565b5b6200325c565b6200323c84848460016200311c565b9250905081840481111562003256576200325562002cc1565b5b81810290505b9392505050565b60006200327082620023a9565b91506200327d83620023a9565b9250620032ac7fffffffffffffffffffffffffffffffffffffffffffffffffffffffffffffffff848462003177565b905092915050565b6000620032c182620023a9565b9150620032ce83620023a9565b9250817fffffffffffffffffffffffffffffffffffffffffffffffffffffffffffffffff04831182151516156200330a576200330962002cc1565b5b828202905092915050565b7f6e6f7420616e206f776e65720000000000000000000000000000000000000000600082015250565b60006200334d600c8362002dc5565b91506200335a8262003315565b602082019050919050565b6000602082019050818103600083015262003380816200333e565b9050919050565b7f4e487b7100000000000000000000000000000000000000000000000000000000600052601260045260246000fd5b6000620033c382620023a9565b9150620033d083620023a9565b925082620033e357620033e262003387565b5b828204905092915050565b600082825260208201905092915050565b7f306139373031313237663038303131323239363837343734373037333361326660008201527f326637333635373636353665326436343631373436313265363237393264373360208201527f373936633265363336663664326636613733366636653266333132653661373360408201527f366636653161353038343138373738323138363136613631373437343732363960608201527f363237353734363537333832313138323832313836373661373437323631363960808201527f373435663734373937303635383331383735613236613533343533373435346560a08201527f323034643666366636346635366535333639363736653631373437353732363560c08201527f323037303666373336356635663438323138316138313832313836373635373660e08201527f36313663373536353161303930613035303830383132303138303130303232326101008201527f30393061303530383038313230313830313030323138303232303030323833336101208201527f333038303934656264633033000000000000000000000000000000000000000061014082015250565b6000620035b761014c83620033ee565b9150620035c482620033ff565b61016082019050919050565b60006020820190508181036000830152620035eb81620035a7565b9050919050565b7f4f776e61626c653a206e6577206f776e657220697320746865207a65726f206160008201527f6464726573730000000000000000000000000000000000000000000000000000602082015250565b60006200365060268362002dc5565b91506200365d82620035f2565b604082019050919050565b60006020820190508181036000830152620036838162003641565b9050919050565b7f5573696e675769746e65743a2072657175657374206e6f7420736f6c76656400600082015250565b6000620036c2601f8362002dc5565b9150620036cf826200368a565b602082019050919050565b60006020820190508181036000830152620036f581620036b3565b9050919050565b60008115159050919050565b6200371381620036fc565b82525050565b600081519050919050565b600082825260208201905092915050565b60005b838110156200375557808201518184015260208101905062003738565b8381111562003765576000848401525b50505050565b6000620037788262003719565b62003784818562003724565b93506200379681856020860162003735565b620037a181620027b2565b840191505092915050565b600063ffffffff82169050919050565b620037c781620037ac565b82525050565b60006040830160008301518482036000860152620037ec82826200376b565b9150506020830151620038036020860182620037bc565b508091505092915050565b600060ff82169050919050565b62003826816200380e565b82525050565b600067ffffffffffffffff82169050919050565b6200384b816200382c565b82525050565b600060c0830160008301518482036000860152620038708282620037cd565b91505060208301516200388760208601826200381b565b5060408301516200389c60408601826200381b565b506060830151620038b160608601826200381b565b506080830151620038c6608086018262003840565b5060a0830151620038db60a086018262003840565b508091505092915050565b600060408301600083015162003900600086018262003708565b50602083015184820360208601526200391a828262003851565b9150508091505092915050565b60006020820190508181036000830152620039438184620038e6565b905092915050565b6200395681620036fc565b81146200396257600080fd5b50565b60008151905062003976816200394b565b92915050565b600060208284031215620039955762003994620023eb565b5b6000620039a58482850162003965565b91505092915050565b600067ffffffffffffffff821115620039cc57620039cb620027c3565b5b602082029050602081019050919050565b6000620039f4620039ee8462002847565b62002828565b90508281526020810184848401111562003a135762003a12620027ad565b5b62003a2084828562003735565b509392505050565b600082601f83011262003a405762003a3f620023f5565b5b815162003a52848260208601620039dd565b91505092915050565b600062003a7262003a6c84620039ae565b62002828565b9050808382526020820190506020840283018581111562003a985762003a97620023ff565b5b835b8181101562003ae657805167ffffffffffffffff81111562003ac15762003ac0620023f5565b5b80860162003ad0898262003a28565b8552602085019450505060208101905062003a9a565b5050509392505050565b600082601f83011262003b085762003b07620023f5565b5b815162003b1a84826020860162003a5b565b91505092915050565b60006020828403121562003b3c5762003b3b620023eb565b5b600082015167ffffffffffffffff81111562003b5d5762003b5c620023f0565b5b62003b6b8482850162003af0565b91505092915050565b600060408201905062003b8b600083018562002b12565b62003b9a6020830184620023b3565b9392505050565b7f5573696e675769746e65743a2072657761726420746f6f206c6f770000000000600082015250565b600062003bd9601b8362002dc5565b915062003be68262003ba1565b602082019050919050565b6000602082019050818103600083015262003c0c8162003bca565b9050919050565b600062003c20826200250a565b9050919050565b62003c328162003c13565b82525050565b600060208201905062003c4f600083018462003c27565b92915050565b7f4e487b7100000000000000000000000000000000000000000000000000000000600052602160045260246000fd5b6004811062003c9257600080fd5b50565b60008151905062003ca68162003c84565b92915050565b60006020828403121562003cc55762003cc4620023eb565b5b600062003cd58482850162003c95565b91505092915050565b600080fd5b600080fd5b600067ffffffffffffffff82111562003d065762003d05620027c3565b5b62003d1182620027b2565b9050602081019050919050565b600062003d3562003d2f8462003ce8565b62002828565b90508281526020810184848401111562003d545762003d53620027ad565b5b62003d6184828562003735565b509392505050565b600082601f83011262003d815762003d80620023f5565b5b815162003d9384826020860162003d1e565b91505092915050565b62003da781620037ac565b811462003db357600080fd5b50565b60008151905062003dc78162003d9c565b92915050565b60006040828403121562003de65762003de562003cde565b5b62003df2604062002828565b9050600082015167ffffffffffffffff81111562003e155762003e1462003ce3565b5b62003e238482850162003d69565b600083015250602062003e398482850162003db6565b60208301525092915050565b62003e50816200380e565b811462003e5c57600080fd5b50565b60008151905062003e708162003e45565b92915050565b62003e81816200382c565b811462003e8d57600080fd5b50565b60008151905062003ea18162003e76565b92915050565b600060c0828403121562003ec05762003ebf62003cde565b5b62003ecc60c062002828565b9050600082015167ffffffffffffffff81111562003eef5762003eee62003ce3565b5b62003efd8482850162003dcd565b600083015250602062003f138482850162003e5f565b602083015250604062003f298482850162003e5f565b604083015250606062003f3f8482850162003e5f565b606083015250608062003f558482850162003e90565b60808301525060a062003f6b8482850162003e90565b60a08301525092915050565b60006040828403121562003f905762003f8f62003cde565b5b62003f9c604062002828565b9050600062003fae8482850162003965565b600083015250602082015167ffffffffffffffff81111562003fd55762003fd462003ce3565b5b62003fe38482850162003ea7565b60208301525092915050565b600060208284031215620040085762004007620023eb565b5b600082015167ffffffffffffffff811115620040295762004028620023f0565b5b620040378482850162003f77565b9150509291505056fe60806040523480156200001157600080fd5b5060405162000a5c38038062000a5c833981810160405281019062000037919062000267565b806000908162000048919062000503565b506200005f816200006c60201b6200010b1760201c565b60018190555050620006b2565b60006002826040516200008091906200062c565b602060405180830381855afa1580156200009e573d6000803e3d6000fd5b5050506040513d601f19601f82011682018060405250810190620000c3919062000680565b9050919050565b6000604051905090565b600080fd5b600080fd5b600080fd5b600080fd5b6000601f19601f8301169050919050565b7f4e487b7100000000000000000000000000000000000000000000000000000000600052604160045260246000fd5b6200013382620000e8565b810181811067ffffffffffffffff82111715620001555762000154620000f9565b5b80604052505050565b60006200016a620000ca565b905062000178828262000128565b919050565b600067ffffffffffffffff8211156200019b576200019a620000f9565b5b620001a682620000e8565b9050602081019050919050565b60005b83811015620001d3578082015181840152602081019050620001b6565b83811115620001e3576000848401525b50505050565b600062000200620001fa846200017d565b6200015e565b9050828152602081018484840111156200021f576200021e620000e3565b5b6200022c848285620001b3565b509392505050565b600082601f8301126200024c576200024b620000de565b5b81516200025e848260208601620001e9565b91505092915050565b60006020828403121562000280576200027f620000d4565b5b600082015167ffffffffffffffff811115620002a157620002a0620000d9565b5b620002af8482850162000234565b91505092915050565b600081519050919050565b7f4e487b7100000000000000000000000000000000000000000000000000000000600052602260045260246000fd5b600060028204905060018216806200030b57607f821691505b602082108103620003215762000320620002c3565b5b50919050565b60008190508160005260206000209050919050565b60006020601f8301049050919050565b600082821b905092915050565b6000600883026200038b7fffffffffffffffffffffffffffffffffffffffffffffffffffffffffffffffff826200034c565b6200039786836200034c565b95508019841693508086168417925050509392505050565b6000819050919050565b6000819050919050565b6000620003e4620003de620003d884620003af565b620003b9565b620003af565b9050919050565b6000819050919050565b6200040083620003c3565b620004186200040f82620003eb565b84845462000359565b825550505050565b600090565b6200042f62000420565b6200043c818484620003f5565b505050565b5b8181101562000464576200045860008262000425565b60018101905062000442565b5050565b601f821115620004b3576200047d8162000327565b62000488846200033c565b8101602085101562000498578190505b620004b0620004a7856200033c565b83018262000441565b50505b505050565b600082821c905092915050565b6000620004d860001984600802620004b8565b1980831691505092915050565b6000620004f38383620004c5565b9150826002028217905092915050565b6200050e82620002b8565b67ffffffffffffffff8111156200052a5762000529620000f9565b5b620005368254620002f2565b6200054382828562000468565b600060209050601f8311600181146200057b576000841562000566578287015190505b620005728582620004e5565b865550620005e2565b601f1984166200058b8662000327565b60005b82811015620005b5578489015182556001820191506020850194506020810190506200058e565b86831015620005d55784890151620005d1601f891682620004c5565b8355505b6001600288020188555050505b505050505050565b600081905092915050565b60006200060282620002b8565b6200060e8185620005ea565b935062000620818560208601620001b3565b80840191505092915050565b60006200063a8284620005f5565b915081905092915050565b6000819050919050565b6200065a8162000645565b81146200066657600080fd5b50565b6000815190506200067a816200064f565b92915050565b600060208284031215620006995762000698620000d4565b5b6000620006a98482850162000669565b91505092915050565b61039a80620006c26000396000f3fe608060405234801561001057600080fd5b50600436106100365760003560e01c806309bd5a601461003b578063f094000214610059575b600080fd5b610043610077565b604051610050919061017d565b60405180910390f35b61006161007d565b60405161006e9190610231565b60405180910390f35b60015481565b6000805461008a90610282565b80601f01602080910402602001604051908101604052809291908181526020018280546100b690610282565b80156101035780601f106100d857610100808354040283529160200191610103565b820191906000526020600020905b8154815290600101906020018083116100e657829003601f168201915b505050505081565b600060028260405161011d91906102ef565b602060405180830381855afa15801561013a573d6000803e3d6000fd5b5050506040513d601f19601f8201168201806040525081019061015d9190610337565b9050919050565b6000819050919050565b61017781610164565b82525050565b6000602082019050610192600083018461016e565b92915050565b600081519050919050565b600082825260208201905092915050565b60005b838110156101d25780820151818401526020810190506101b7565b838111156101e1576000848401525b50505050565b6000601f19601f8301169050919050565b600061020382610198565b61020d81856101a3565b935061021d8185602086016101b4565b610226816101e7565b840191505092915050565b6000602082019050818103600083015261024b81846101f8565b905092915050565b7f4e487b7100000000000000000000000000000000000000000000000000000000600052602260045260246000fd5b6000600282049050600182168061029a57607f821691505b6020821081036102ad576102ac610253565b5b50919050565b600081905092915050565b60006102c982610198565b6102d381856102b3565b93506102e38185602086016101b4565b80840191505092915050565b60006102fb82846102be565b915081905092915050565b600080fd5b61031481610164565b811461031f57600080fd5b50565b6000815190506103318161030b565b92915050565b60006020828403121561034d5761034c610306565b5b600061035b84828501610322565b9150509291505056fea264697066735822122031870fb462f1661ff2edcb468da8c37916f547de580128e2c9464ce539fb39b364736f6c634300080f0033a264697066735822122097fa07f0577466c5dbd0c0591a33158ac1cd709156e8cbcd608058ce5264232f64736f6c634300080f0033",
  "immutableReferences": {
    "6402": [
      {
        "length": 32,
        "start": 2377
      },
      {
        "length": 32,
        "start": 5298
      },
      {
        "length": 32,
        "start": 5465
      },
      {
        "length": 32,
        "start": 6918
      },
      {
        "length": 32,
        "start": 7112
      },
      {
        "length": 32,
        "start": 7310
      },
      {
        "length": 32,
        "start": 8734
      }
    ]
  },
  "source": "// SPDX-License-Identifier: MIT LICENSE\r\n\r\npragma solidity 0.8.15;\r\n\r\nimport \"./N2DRewards.sol\";\r\nimport \"@klaytn/contracts/KIP/token/KIP17/extensions/KIP17Enumerable.sol\";\r\nimport \"@klaytn/contracts/KIP/token/KIP17/IKIP17Receiver.sol\";\r\nimport \"@klaytn/contracts/KIP/token/KIP17/IKIP17.sol\";\r\nimport \"@klaytn/contracts/utils/Strings.sol\";\r\nimport \"witnet-solidity-bridge/contracts/requests/WitnetRequest.sol\";\r\nimport \"witnet-solidity-bridge/contracts/UsingWitnet.sol\";\r\n\r\ncontract test is Ownable, IKIP17Receiver, UsingWitnet {\r\n    uint256 public totalStaked;\r\n    KIP17Enumerable public NFTContract;\r\n    uint256 public requestId;\r\n    // string[] arr;\r\n    // Metadata[] arr2;\r\n\r\n    // struct to store a stake's token, owner, and earning values\r\n    struct Stake {\r\n        uint24 tokenId;\r\n        uint48 timestamp;\r\n        address owner;\r\n    }\r\n\r\n    struct Metadata {\r\n        uint256 mood;\r\n        uint256 pose;\r\n    }\r\n\r\n    event NFTStaked(address owner, uint256 tokenId, uint256 value);\r\n    event NFTUnstaked(address owner, uint256 tokenId, uint256 value);\r\n    event Claimed(address owner, uint256 amount);\r\n\r\n    // reference to the Block NFT contract\r\n    KIP17Enumerable nft;\r\n    N2DRewards token;\r\n\r\n    // maps tokenId to stake\r\n    mapping(uint256 => Stake) public vault;\r\n\r\n    // maps tokenId to metadata\r\n    mapping(uint256 => Metadata) public metadata;\r\n    uint256[] metadata_result;\r\n\r\n    constructor(\r\n        WitnetRequestBoard _wrb,\r\n        KIP17Enumerable _nft,\r\n        N2DRewards _token\r\n    ) UsingWitnet(_wrb) {\r\n        nft = _nft;\r\n        token = _token;\r\n        NFTContract = _nft;\r\n    }\r\n\r\n    function _queryFactory(uint256 tokenId) private returns (WitnetRequest) {\r\n        bytes memory d = bytes(Strings.toString(tokenId));\r\n        bytes memory c = bytes(abi.encodePacked(uint8(0x28) + uint8(d.length)));\r\n        bytes memory b;\r\n        if (d.length > 1) {\r\n            b = bytes(abi.encodePacked(uint8(0x7e) + uint8(d.length), hex\"01\"));\r\n        } else {\r\n            b = hex\"7f\";\r\n        }\r\n        bytes memory a = bytes(\r\n            abi.encodePacked(uint8(0x95) + uint8(d.length) + uint8(b.length))\r\n        );\r\n\r\n        return\r\n            new WitnetRequest(\r\n                bytes(\r\n                    abi.encodePacked(\r\n                        hex\"0a\",\r\n                        a,\r\n                        hex\"0112\",\r\n                        b,\r\n                        hex\"080112\",\r\n                        c,\r\n                        hex\"68747470733a2f2f736576656e2d646174612e62792d73796c2e636f6d2f6a736f6e2f\",\r\n                        d,\r\n                        hex\"2e6a736f6e1a508418778218616a617474726962757465738211828218676a74726169745f74797065831875a26a534537454e204d6f6f64f56e5369676e617475726520706f7365f5f482181a818218676576616c75651a090a050808120180100222090a05080812018010021080e497d012180a208094ebdc0328333080e8eda1ba01\"\r\n                    )\r\n                )\r\n            );\r\n    }\r\n\r\n    function st2num(string memory numString) public pure returns (uint256) {\r\n        uint256 val = 0;\r\n        bytes memory stringBytes = bytes(numString);\r\n        for (uint256 i = 0; i < stringBytes.length; i++) {\r\n            uint256 exp = stringBytes.length - i;\r\n            bytes1 ival = stringBytes[i];\r\n            uint8 uval = uint8(ival);\r\n            uint256 jval = uval - uint256(0x30);\r\n\r\n            val += (uint256(jval) * (10**(exp - 1)));\r\n        }\r\n        return val;\r\n    }\r\n\r\n    function extractPoseMood(string[] memory strings)\r\n        internal\r\n        returns (Metadata memory poseMood)\r\n    {\r\n        bytes memory s_mood = bytes(strings[0]);\r\n        bytes memory s_pose = bytes(strings[1]);\r\n        bytes memory result_m = new bytes(1);\r\n        bytes memory result_p = new bytes(1);\r\n\r\n        result_m[0] = s_mood[11];\r\n        result_p[0] = s_pose[15];\r\n\r\n        poseMood.mood = st2num(string(result_m));\r\n        poseMood.pose = st2num(string(result_p));\r\n        return poseMood;\r\n    }\r\n\r\n    // function testExtract(string[] memory arr)\r\n    //     public\r\n    //     view\r\n    //     returns (Metadata memory poseMood)\r\n    // {\r\n    //     bytes memory s_mood = bytes(arr[0]);\r\n    //     bytes memory s_pose = bytes(arr[1]);\r\n    //     bytes memory result_m = new bytes(1);\r\n    //     bytes memory result_p = new bytes(1);\r\n\r\n    //     result_m[0] = s_mood[11];\r\n    //     result_p[0] = s_pose[15];\r\n\r\n    //     poseMood.mood = st2num(string(result_m));\r\n    //     poseMood.pose = st2num(string(result_p));\r\n    //     return poseMood;\r\n    // }\r\n\r\n    function getPoseMood(uint256 tokenId)\r\n        external\r\n        payable\r\n        returns (Metadata memory)\r\n    {\r\n        Metadata memory seven = metadata[tokenId];\r\n\r\n        if (seven.mood == 0 && seven.pose == 0) {\r\n            // WitnetRequest request = _queryFactory(tokenId);\r\n            WitnetRequest request = new WitnetRequest('0a9701127f0801122968747470733a2f2f736576656e2d646174612e62792d73796c2e636f6d2f6a736f6e2f312e6a736f6e1a508418778218616a617474726962757465738211828218676a74726169745f74797065831875a26a534537454e204d6f6f64f56e5369676e617475726520706f7365f5f482181a818218676576616c75651a090a050808120180100222090a0508081201801002180220002833308094ebdc03');\r\n            \r\n            (uint256 id, ) = _witnetPostRequest(request);\r\n            requestId = id;\r\n            completeUpdate();\r\n            \r\n            \r\n            // Witnet.Result memory result = _witnetReadResult(requestId);\r\n\r\n            // if (witnet.isOk(result)) {\r\n            //     string[] memory arr = witnet.asStringArray(result);\r\n            //     Metadata memory arr2 = extractPoseMood(arr);\r\n            //     return arr2;\r\n            // }\r\n        }\r\n        return metadata[tokenId];\r\n    }\r\n\r\n    function completeUpdate() public witnetRequestSolved(requestId) returns (Metadata memory) {\r\n        Witnet.Result memory result = _witnetReadResult(requestId);\r\n\r\n        if (witnet.isOk(result)) {\r\n            string[] memory arr = witnet.asStringArray(result);\r\n            Metadata memory arr2 = extractPoseMood(arr);\r\n            return arr2;\r\n        } else {\r\n            // You can decide here what to do if the query failed\r\n        }\r\n    }\r\n\r\n    function stake(uint256[] calldata tokenIds) external {\r\n        uint256 tokenId;\r\n        totalStaked += tokenIds.length;\r\n        for (uint256 i = 0; i < tokenIds.length; i++) {\r\n            tokenId = tokenIds[i];\r\n            require(\r\n                nft.ownerOf(tokenId) == msg.sender,\r\n                \"Se7en: This is not your token.\"\r\n            );\r\n            require(vault[tokenId].tokenId == 0, \"Se7en: Token already staked\");\r\n\r\n            nft.transferFrom(msg.sender, address(this), tokenId);\r\n            emit NFTStaked(msg.sender, tokenId, block.timestamp);\r\n\r\n            vault[tokenId] = Stake({\r\n                owner: msg.sender,\r\n                tokenId: uint24(tokenId),\r\n                timestamp: uint48(block.timestamp)\r\n            });\r\n        }\r\n    }\r\n\r\n    function _unstakeMany(address account, uint256[] calldata tokenIds)\r\n        internal\r\n    {\r\n        uint256 tokenId;\r\n        totalStaked -= tokenIds.length;\r\n        for (uint256 i = 0; i < tokenIds.length; i++) {\r\n            tokenId = tokenIds[i];\r\n            Stake memory staked = vault[tokenId];\r\n            require(staked.owner == msg.sender, \"not an owner\");\r\n\r\n            delete vault[tokenId];\r\n            emit NFTUnstaked(account, tokenId, block.timestamp);\r\n            nft.transferFrom(address(this), account, tokenId);\r\n        }\r\n    }\r\n\r\n    function claim(uint256[] calldata tokenIds) external {\r\n        _claim(msg.sender, tokenIds, false);\r\n    }\r\n\r\n    function claimForAddress(address account, uint256[] calldata tokenIds)\r\n        external\r\n    {\r\n        _claim(account, tokenIds, false);\r\n    }\r\n\r\n    function unstake(uint256[] calldata tokenIds) external {\r\n        _claim(msg.sender, tokenIds, true);\r\n    }\r\n\r\n    // @Net2Dev - Follow me on Youtube , Tiktok, Instagram\r\n    // TOKEN REWARDS CALCULATION\r\n    // MAKE SURE YOU CHANGE THE VALUE ON BOTH CLAIM AND EARNINGINFO FUNCTIONS.\r\n    // Find the following line and update accordingly based on how much you want\r\n    // to reward users with ERC-20 reward tokens.\r\n    // I hope you get the idea based on the example.\r\n    // rewardmath = 100 ether .... (This gives 1 token per day per NFT staked to the staker)\r\n    // rewardmath = 200 ether .... (This gives 2 tokens per day per NFT staked to the staker)\r\n    // rewardmath = 500 ether .... (This gives 5 tokens per day per NFT staked to the staker)\r\n    // rewardmath = 1000 ether .... (This gives 10 tokens per day per NFT staked to the staker)\r\n\r\n    function _claim(\r\n        address account,\r\n        uint256[] calldata tokenIds,\r\n        bool _unstake\r\n    ) internal {\r\n        uint256 tokenId;\r\n        uint256 earned = 0;\r\n        uint256 rewardmath = 0;\r\n\r\n        for (uint256 i = 0; i < tokenIds.length; i++) {\r\n            tokenId = tokenIds[i];\r\n            Stake memory staked = vault[tokenId];\r\n            require(staked.owner == account, \"not an owner\");\r\n            uint256 stakedAt = staked.timestamp;\r\n            rewardmath = (100 ether * (block.timestamp - stakedAt)) / 86400;\r\n            earned = rewardmath / 100;\r\n            vault[tokenId] = Stake({\r\n                owner: account,\r\n                tokenId: uint24(tokenId),\r\n                timestamp: uint48(block.timestamp)\r\n            });\r\n        }\r\n        if (earned > 0) {\r\n            token.mint(account, earned);\r\n        }\r\n        if (_unstake) {\r\n            _unstakeMany(account, tokenIds);\r\n        }\r\n        emit Claimed(account, earned);\r\n    }\r\n\r\n    function earningInfo(address account, uint256[] calldata tokenIds)\r\n        external\r\n        view\r\n        returns (uint256[1] memory info)\r\n    {\r\n        uint256 tokenId;\r\n        uint256 earned = 0;\r\n        uint256 rewardmath = 0;\r\n\r\n        for (uint256 i = 0; i < tokenIds.length; i++) {\r\n            tokenId = tokenIds[i];\r\n            Stake memory staked = vault[tokenId];\r\n            require(staked.owner == account, \"not an owner\");\r\n            uint256 stakedAt = staked.timestamp;\r\n            rewardmath = (100 ether * (block.timestamp - stakedAt)) / 86400;\r\n            earned = rewardmath / 100;\r\n        }\r\n        if (earned > 0) {\r\n            return [earned];\r\n        }\r\n    }\r\n\r\n    // should never be used inside of transaction because of gas fee\r\n    function balanceOf(address account) public view returns (uint256) {\r\n        uint256 balance = 0;\r\n        uint256 supply = nft.totalSupply();\r\n        for (uint256 i = 1; i <= supply; i++) {\r\n            if (vault[i].owner == account) {\r\n                balance += 1;\r\n            }\r\n        }\r\n        return balance;\r\n    }\r\n\r\n    // should never be used inside of transaction because of gas fee\r\n    function tokensOfOwner(address account)\r\n        public\r\n        view\r\n        returns (uint256[] memory ownerTokens)\r\n    {\r\n        uint256 supply = nft.totalSupply();\r\n        uint256[] memory tmp = new uint256[](supply);\r\n\r\n        uint256 index = 0;\r\n        for (uint256 tokenId = 1; tokenId <= supply; tokenId++) {\r\n            if (vault[tokenId].owner == account) {\r\n                tmp[index] = vault[tokenId].tokenId;\r\n                index += 1;\r\n            }\r\n        }\r\n\r\n        uint256[] memory tokens = new uint256[](index);\r\n        for (uint256 i = 0; i < index; i++) {\r\n            tokens[i] = tmp[i];\r\n        }\r\n\r\n        return tokens;\r\n    }\r\n\r\n    function onKIP17Received(\r\n        address,\r\n        address from,\r\n        uint256,\r\n        bytes calldata\r\n    ) external pure override returns (bytes4) {\r\n        require(from == address(0x0), \"Cannot send nfts to Vault directly\");\r\n        return IKIP17Receiver.onKIP17Received.selector;\r\n    }\r\n}\r\n",
  "sourcePath": "C:\\Users\\th_kr\\OneDrive\\Documents\\Smart_Contracts\\Klaytn\\Staking\\contracts\\test.sol",
  "compiler": {
    "name": "solc",
    "version": "0.8.15+commit.e14f2714.Emscripten.clang"
  },
  "schemaVersion": "3.4.8",
  "updatedAt": "2022-08-14T09:55:11.568Z",
  "networkType": "ethereum",
  "devdoc": {
    "kind": "dev",
    "methods": {
      "owner()": {
        "details": "Returns the address of the current owner."
      },
      "renounceOwnership()": {
        "details": "Leaves the contract without owner. It will not be possible to call `onlyOwner` functions anymore. Can only be called by the current owner. NOTE: Renouncing ownership will leave the contract without an owner, thereby removing any functionality that is only available to the owner."
      },
      "transferOwnership(address)": {
        "details": "Transfers ownership of the contract to a new account (`newOwner`). Can only be called by the current owner."
      }
    },
    "version": 1
  },
  "userdoc": {
    "kind": "user",
    "methods": {},
    "version": 1
  }
}