{
  "contractName": "WitnetRequest",
  "abi": [
    {
      "inputs": [
        {
          "internalType": "bytes",
          "name": "_bytecode",
          "type": "bytes"
        }
      ],
      "stateMutability": "nonpayable",
      "type": "constructor"
    },
    {
      "inputs": [],
      "name": "bytecode",
      "outputs": [
        {
          "internalType": "bytes",
          "name": "",
          "type": "bytes"
        }
      ],
      "stateMutability": "view",
      "type": "function"
    },
    {
      "inputs": [],
      "name": "hash",
      "outputs": [
        {
          "internalType": "bytes32",
          "name": "",
          "type": "bytes32"
        }
      ],
      "stateMutability": "view",
      "type": "function"
    }
  ],
  "bytecode": "0x60806040523480156200001157600080fd5b5060405162000a5c38038062000a5c833981810160405281019062000037919062000267565b806000908162000048919062000503565b506200005f816200006c60201b6200010b1760201c565b60018190555050620006b2565b60006002826040516200008091906200062c565b602060405180830381855afa1580156200009e573d6000803e3d6000fd5b5050506040513d601f19601f82011682018060405250810190620000c3919062000680565b9050919050565b6000604051905090565b600080fd5b600080fd5b600080fd5b600080fd5b6000601f19601f8301169050919050565b7f4e487b7100000000000000000000000000000000000000000000000000000000600052604160045260246000fd5b6200013382620000e8565b810181811067ffffffffffffffff82111715620001555762000154620000f9565b5b80604052505050565b60006200016a620000ca565b905062000178828262000128565b919050565b600067ffffffffffffffff8211156200019b576200019a620000f9565b5b620001a682620000e8565b9050602081019050919050565b60005b83811015620001d3578082015181840152602081019050620001b6565b83811115620001e3576000848401525b50505050565b600062000200620001fa846200017d565b6200015e565b9050828152602081018484840111156200021f576200021e620000e3565b5b6200022c848285620001b3565b509392505050565b600082601f8301126200024c576200024b620000de565b5b81516200025e848260208601620001e9565b91505092915050565b60006020828403121562000280576200027f620000d4565b5b600082015167ffffffffffffffff811115620002a157620002a0620000d9565b5b620002af8482850162000234565b91505092915050565b600081519050919050565b7f4e487b7100000000000000000000000000000000000000000000000000000000600052602260045260246000fd5b600060028204905060018216806200030b57607f821691505b602082108103620003215762000320620002c3565b5b50919050565b60008190508160005260206000209050919050565b60006020601f8301049050919050565b600082821b905092915050565b6000600883026200038b7fffffffffffffffffffffffffffffffffffffffffffffffffffffffffffffffff826200034c565b6200039786836200034c565b95508019841693508086168417925050509392505050565b6000819050919050565b6000819050919050565b6000620003e4620003de620003d884620003af565b620003b9565b620003af565b9050919050565b6000819050919050565b6200040083620003c3565b620004186200040f82620003eb565b84845462000359565b825550505050565b600090565b6200042f62000420565b6200043c818484620003f5565b505050565b5b8181101562000464576200045860008262000425565b60018101905062000442565b5050565b601f821115620004b3576200047d8162000327565b62000488846200033c565b8101602085101562000498578190505b620004b0620004a7856200033c565b83018262000441565b50505b505050565b600082821c905092915050565b6000620004d860001984600802620004b8565b1980831691505092915050565b6000620004f38383620004c5565b9150826002028217905092915050565b6200050e82620002b8565b67ffffffffffffffff8111156200052a5762000529620000f9565b5b620005368254620002f2565b6200054382828562000468565b600060209050601f8311600181146200057b576000841562000566578287015190505b620005728582620004e5565b865550620005e2565b601f1984166200058b8662000327565b60005b82811015620005b5578489015182556001820191506020850194506020810190506200058e565b86831015620005d55784890151620005d1601f891682620004c5565b8355505b6001600288020188555050505b505050505050565b600081905092915050565b60006200060282620002b8565b6200060e8185620005ea565b935062000620818560208601620001b3565b80840191505092915050565b60006200063a8284620005f5565b915081905092915050565b6000819050919050565b6200065a8162000645565b81146200066657600080fd5b50565b6000815190506200067a816200064f565b92915050565b600060208284031215620006995762000698620000d4565b5b6000620006a98482850162000669565b91505092915050565b61039a80620006c26000396000f3fe608060405234801561001057600080fd5b50600436106100365760003560e01c806309bd5a601461003b578063f094000214610059575b600080fd5b610043610077565b604051610050919061017d565b60405180910390f35b61006161007d565b60405161006e9190610231565b60405180910390f35b60015481565b6000805461008a90610282565b80601f01602080910402602001604051908101604052809291908181526020018280546100b690610282565b80156101035780601f106100d857610100808354040283529160200191610103565b820191906000526020600020905b8154815290600101906020018083116100e657829003601f168201915b505050505081565b600060028260405161011d91906102ef565b602060405180830381855afa15801561013a573d6000803e3d6000fd5b5050506040513d601f19601f8201168201806040525081019061015d9190610337565b9050919050565b6000819050919050565b61017781610164565b82525050565b6000602082019050610192600083018461016e565b92915050565b600081519050919050565b600082825260208201905092915050565b60005b838110156101d25780820151818401526020810190506101b7565b838111156101e1576000848401525b50505050565b6000601f19601f8301169050919050565b600061020382610198565b61020d81856101a3565b935061021d8185602086016101b4565b610226816101e7565b840191505092915050565b6000602082019050818103600083015261024b81846101f8565b905092915050565b7f4e487b7100000000000000000000000000000000000000000000000000000000600052602260045260246000fd5b6000600282049050600182168061029a57607f821691505b6020821081036102ad576102ac610253565b5b50919050565b600081905092915050565b60006102c982610198565b6102d381856102b3565b93506102e38185602086016101b4565b80840191505092915050565b60006102fb82846102be565b915081905092915050565b600080fd5b61031481610164565b811461031f57600080fd5b50565b6000815190506103318161030b565b92915050565b60006020828403121561034d5761034c610306565b5b600061035b84828501610322565b9150509291505056fea264697066735822122031870fb462f1661ff2edcb468da8c37916f547de580128e2c9464ce539fb39b364736f6c634300080f0033",
  "immutableReferences": {},
  "source": "// SPDX-License-Identifier: MIT\n\npragma solidity >=0.7.0 <0.9.0;\n\nimport \"./WitnetRequestBase.sol\";\n\ncontract WitnetRequest\n    is\n        WitnetRequestBase\n{\n    using Witnet for bytes;\n    constructor(bytes memory _bytecode) {\n        bytecode = _bytecode;\n        hash = _bytecode.hash();\n    }\n}\n",
  "sourcePath": "witnet-solidity-bridge\\contracts\\requests\\WitnetRequest.sol",
  "compiler": {
    "name": "solc",
    "version": "0.8.15+commit.e14f2714.Emscripten.clang"
  },
  "schemaVersion": "3.4.8",
  "updatedAt": "2022-08-11T14:10:46.174Z",
  "devdoc": {
    "kind": "dev",
    "methods": {},
    "version": 1
  },
  "userdoc": {
    "kind": "user",
    "methods": {
      "bytecode()": {
        "notice": "Contains a well-formed Witnet Data Request, encoded using Protocol Buffers."
      },
      "hash()": {
        "notice": "Returns SHA256 hash of Witnet Data Request as CBOR-encoded bytes."
      }
    },
    "version": 1
  }
}